:100000000C94DA040C94F7040C94F7040C94F704A1
:100010000C94F7040C94F7040C94F7040C94F70474
:100020000C94F7040C94F7040C949A320C94563206
:100030000C943F360C94F7040C94F7040C94F704DA
:100040000C94F7040C94F7040C94F7040C94F70444
:100050000C94F7040C941B360C94F7040C94F704DE
:100060000C94F7040C94F7040C94F7040C94F70424
:100070000C94F7040C94F7040C94F7040C94F70414
:100080000C94F7040C94F7040C94F7040C94F70404
:100090000C94F7040C94F7040C94F7040C94F704F4
:1000A0000C94F7040C94F7040C94F704000000007F
:1000B0000000000000000000000000000000000040
:1000C0000000000000000000000000000000000030
:1000D0000000000000000000000000000000000020
:1000E0000000000000000000000000000000000010
:1000F0000000000000000000000000000000000000
:1001000000000000000000000000000000000000EF
:1001100000000000000000000000000000000000DF
:1001200000000000000000000000000000000000CF
:1001300000000000000000000000000000000000BF
:1001400000000000000000000000000000000000AF
:10015000000000000000000000000000000000009F
:10016000000000000000000000000000000000008F
:10017000000000000000000000000000000000007F
:100180000000000030FFFF20FFFF10FFFF00FFFF17
:1001900000000070FFFF60FFFF50FFFF40FFFF0007
:1001A0000000B0FFFFA0FFFF90FFFF80FFFF0000F7
:1001B00000F0FFFFE0FFFFD0FFFFC0FFFF000000E7
:1001C0000000000000FF0000000000000000000030
:1001D000000000000000000000000056FFFF56FF76
:1001E000FF56FFFF56FFFF56FFFF56FFFF56FFFF6C
:1001F00056FFFF56FFFF56FFFF56FFFF56FFFF5605
:10020000FFFF56FFFF56FFFF000000000000000048
:1002100000000000000000000000000000000000DE
:1002200000000056FFFF56FFFF56FFFF56FFFF5628
:10023000FFFF56FFFF56FFFF56FFFF56FFFF56FF1B
:10024000FF56FFFF56FFFF56FFFF56FFFF56FFFF0B
:10025000000000000000000000000000ACFFFFAC48
:10026000FFFFACFFFFACFFFFACFFFF000000000092
:1002700000000000ACFFFF00000000000056FFFF80
:1002800000000000000000000056FFFF56FFFF5670
:10029000FFFF000000000000000000000000000060
:1002A00000000000ACFFFFACFFFFACFFFFACFFFFA6
:1002B000ACFFFF000000ACFFFF00000000000000EA
:1002C000000000000000000000000000000000002E
:1002D00000000000000000ACFFFF00000000000074
:1002E000000000000000000000000000000000000E
:1002F00000000000000000000000000000000000FE
:1003000000000000000000000000000000000000ED
:1003100000000000000000000000000000000000DD
:1003200000000000000000000000000000000000CD
:1003300000000000000000000000000000000000BD
:1003400000000000000000000000000000000000AD
:10035000000000000000000000000000000000009D
:10036000000000000000000000000000000000008D
:10037000000000000000000000000000000000007D
:10038000000000000000000000000000000101016A
:100390000101010001010101000000000000000056
:1003A0000000000000000100010001010101010145
:1003B000010101010101010101010101010101012D
:1003C0000101010101010100000001010000000024
:1003D000000000000000000000000000000000001D
:1003E0000000000000000001010101000000000009
:1003F000000000002A2B2800000000000000000080
:100400000000000000000029000000002C1E342025
:10041000212224342627252E362D3738271E1F204B
:100420002122232425263333362E37381F04050690
:100430000708090A0B0C0D0E0F10111213141516D4
:100440001718191A1B1C1D2F3130232D35040506D2
:100450000708090A0B0C0D0E0F10111213141516B4
:100460001718191A1B1C1D2F3130354C00000000C5
:100470000000000000000101010101010101010271
:100480000202020202020203030303030303040441
:100490000404040505050505060606060607070704
:1004A00007080808080909090A0A0A0B0B0B0C0CB3
:1004B0000C0D0D0D0E0E0E0F0F101010111112124B
:1004C00013131414151516161717181819191A1AC4
:1004D0001B1C1C1D1D1E1F1F202121222323242520
:1004E0002526272828292A2B2C2C2D2E2F30313158
:1004F00032333435363738393A3B3C3D3E3F404164
:1005000042434445464748494B4C4D4E4F50525349
:1005100054555758595A5C5D5E60616364656768FD
:100520006A6B6C6E6F7172747677797A7C7D7F817D
:1005300082848687898B8D8E9092949597999B9DC6
:100540009FA1A2A4A6A8AAACAEB0B2B4B6B9BBBDD6
:10055000BFC1C3C5C8CACCCED0D3D5D7DADCDEE1A3
:10056000E3E6E8EAEDEFF2F4F7F9FCFF29002B00EF
:1005700039000255E00000001E0034000400330082
:10058000E30003581F00360012001400E2002A00A6
:100590002000370008000D0035162C002100130044
:1005A00018000E001455015822001C000C001B00FE
:1005B000000006014C004B0000004E000000190135
:1005C00035002F000000300000002F00230009003C
:1005D000070005000000300024000A000B00100096
:1005E000500002582500060017001A0052002C0087
:1005F00026001500110019005100280027000F00E7
:1006000016001D004F0003582E0031002D0012551A
:1006100038000000C45CC65CC85CCA5C0100000015
:10062000C35CC55CC75CC95C01000100F75CFB5C96
:10063000FF5C035D01000100F85CFC5C005D045D93
:10064000075D0100F95CFD5C015D055D01000100D5
:10065000FA5CFE5C025D065D00000100C25CF55CB8
:100660000000F65C00000100010001000000010034
:100670000000010001000100010001000000010074
:100680000100010001000100010001000100010062
:100690000100010001000100010001000100010052
:1006A0000100010001000100010001000100010042
:1006B000005C0100010001000100000001000100D8
:1006C00001000100010000000100140004001D00F1
:1006D0000100010001001A0016001B0001000100CA
:1006E00001000800070006000100010001001500DC
:1006F0000900190001000100010017000A000500AF
:1007000000000100010001000000010000000100E4
:1007100001000100000001000000010001001C00B8
:100720000B00110000000100010018000D00100076
:100730000100010001000C000E0036000100010064
:10074000010012000F00370001000100010013003A
:10075000330034000100010001000100010001002C
:10076000010000003D040100010001000100000043
:100770003A00010001000100010001003B000100FE
:1007800001000100010001003C0001000100085DC2
:10079000010001003D0046000100010001000100D0
:1007A0003F0001000100010000001B0149000100A1
:1007B000000001000000190101004B0000004E0084
:1007C00000004A003F0001004A00500000004D00B8
:1007D00040000100520051004A00010041000100A8
:1007E0004D004F004B0001004200095D0100010077
:1007F0004E00010043000100010001004D00010016
:10080000440045006800DE5CE4000000726F6F7415
:10081000012B3132333435360128006A756469732F
:100820006F6E40676D61696C2E636F6D0005010925
:1008300002A10185020901A1000509190129051577
:10084000002501950575018102950175038101055A
:1008500001093009311581257F9502750881060946
:10086000381581257F950175088106050C0A380227
:100870001581257F950175088106C0C00501098095
:10088000A10185031601002603001A81002A8300B6
:10089000751095018100C0050C0901A101850416A0
:1008A0000100269C021A01002A9C02751095018104
:1008B00000C005010906A1018505050719E029E722
:1008C0001500250195087501810205081901290502
:1008D00095057501910295017503910105071900B0
:1008E00029EF1500250195F075018102C005010968
:1008F00006A101050719E029E715002501950875EE
:1009000001810295017508810105081901290595E4
:1009100005750191029501750391010507190029DB
:10092000FF150026FF00950675088100C009023BEF
:1009300000020100A0FA09040000010301010009FE
:1009400021110100012240000705810308000A0966
:10095000040100010300000009211101000122C06F
:10096000000705820320000A1201100100000008A0
:10097000EDFE071301000102030104033000000033
:1009800016034500720067006F0044006F00780096
:10099000200045005A000000160345007200670061
:1009A0006F0044006F007800200045005A000000EE
:1009B0000403090411241FBECFEFDAE0DEBFCDBF70
:1009C00026E0A2E7B3E001C01D92A438B207E1F728
:1009D00013E0A0E0B1E0E4ECF2E702C005900D9274
:1009E000A237B107D9F70E9476330C94F0380C94F3
:1009F0000000E8EDF0E080818E7F80831092E200BD
:100A00001092DA001092E100A0EEB0E08C918160CB
:100A10008C9380818F77808319BCA7EDB0E08C9197
:100A20008E7F8C9380818F7E80831092060608953E
:100A30002091E4003091E50095E6A9012091EC00B9
:100A4000822F817020FF06C08091E80080FF06C0E1
:100A500080E008952091E80022FD1AC080912C06C4
:100A6000882389F0853089F08091EB0085FD0FC0E7
:100A70002091E4003091E50042175307F9F29150BC
:100A8000E1F684E0089582E0089583E0089581E02E
:100A90000895EF92FF920F931F93CF937C018B01E8
:100AA0000E941805C82F811117C08091E80085FDAC
:100AB0000BC08091E8008E778093E8000E941805B3
:100AC000882399F3C82F08C0F70181917F01809393
:100AD000F1000150110949F78C2FCF911F910F910F
:100AE000FF90EF90089580912E0687FF13C08091AC
:100AF000E80082FF06C08091E8008B778093E800D1
:100B000004C080912C068111F2CF089580912C06AB
:100B10008823D9F38091E80080FFF8CF8091E80026
:100B20008E77ECCF982F9093E900242F762F50E00A
:100B3000891731F07091EC002091ED005091F00098
:100B400021FD07C09F5F973071F78093E90081E036
:100B500008953091EB003E7F3093EB003091ED0033
:100B60003D7F3093ED003091EB0031603093EB002E
:100B70007093EC002093ED005093F0002091EE0074
:100B800027FDE0CF80E00895CF92DF92EF92FF92B1
:100B90000F931F93CF93DF93C8EDD0E088818F7EB2
:100BA0008883E7EDF0E080818160808384E082BF0C
:100BB00081E08093060688818E7F888302EE10E0B4
:100BC000F80110821092DA0081EEC82ED12CF601C5
:100BD000108288818F778883888180688883888164
:100BE0008F7D888319BC10922C0610922D061092CE
:100BF0002B0610922A0690EEE92EF12CF701808147
:100C00008B7F808388818160888342E060E080E020
:100C10000E949205F60180818E7F8083F801808199
:100C200081608083808188608083F70180818E7FEE
:100C30008083888180618883DF91CF911F910F919C
:100C4000FF90EF90DF90CF900895FC01CB012091B1
:100C50003406309135062617370790F0009729F4AF
:100C60002091E8002E772093E80040E0009751F4AF
:100C7000411108C08091E80082FF31C080E00895F2
:100C8000C901F3CF20912C062223A9F12530A9F127
:100C90002091E80023FD2DC02091E80022FDEACF3D
:100CA0002091E80020FFE2CF3091F3002091F20084
:100CB000009719F02830310558F041E0283031050F
:100CC00009F040E02091E8002E772093E800CECF95
:100CD00041914093F10001972F5F3F4FE9CF809101
:100CE0002C06882341F0853041F08091E80083FF95
:100CF000C1CF81E0089582E0089583E00895809156
:100D00000506811107C080912C06843011F482E021
:100D1000089581E008958091090608959091EE0567
:100D2000803F41F48091EF0587FD1092EF059923F4
:100D300071F00895813F29F48091EF051816ACF306
:100D4000F6CF823F81F497FFF2CF1092EE058091AB
:100D5000EF059091F005892B9091F105892B49F7CA
:100D60001092F2050895833F19F4191674F3DFCF3A
:100D7000893F39F48091F0051816CCF61092F005F1
:100D8000D6CF8A3F29F48091F00587FFD0CFF6CFE8
:100D90008B3F39F48091F10587FFC9CF1092F1059F
:100DA000C6CF8C3F29F48091F1051816BCF3BFCF54
:100DB000843F31F48091ED058E7F8093ED05B7CFB0
:100DC000853F21F48091ED058D7FF7CF863F21F49B
:100DD0008091ED058B7FF1CF873F21F48091ED0568
:100DE000877FEBCF883F21F48091ED058F7EE5CFA3
:100DF0008D3F31F480919B058E7F80939B0597CF2B
:100E00008E3F21F480919B058D7FF7CF8F3F09F0B6
:100E10008ECF80919B058B7FF0CF80919B0580FDCD
:100E200016C081FD16C082FD16C08091F205882390
:100E3000A1F0883280F428E0829FC001112468E28A
:100E400070E00E947A36862F672B39F0089582E091
:100E5000089584E0089588E0089581E008958091E0
:100E60009B0580FD16C081FD16C082FD18C08091D3
:100E7000F205882391F08C3390F423E2829FC00125
:100E800011246CE370E00E947A36862F672B49F0BC
:100E9000089588E0089581E1089585E0089583E24A
:100EA000089581E00895803F31F40E942F078195D5
:100EB0008093EF050895813F19F40E942F07F8CF22
:100EC000823F31F40E942F0781958093EE050895AB
:100ED000833F19F40E942F07F8CF893F29F40E941D
:100EE0000D078093F00508958A3F21F40E940D07B5
:100EF0008195F7CF8B3F31F40E940D078195809348
:100F0000F10508958C3F19F40E940D07F8CF843F36
:100F100031F48091ED0581608093ED050895853F62
:100F200021F48091ED058260F7CF863F21F4809116
:100F3000ED058460F1CF873F21F48091ED05886055
:100F4000EBCF883F21F48091ED058061E5CF8D3FA7
:100F500031F480919B05816080939B0508958E3FBD
:100F600021F480919B058260F7CF8F3FB9F7809184
:100F70009B058460F1CFCF92DF92EF92FF929C01AC
:100F80004FB7F8948091970590919805A091990595
:100F9000B0919A054FBF6C017D01EE24FF24A90199
:100FA00070E060E0C416D506E606F70638F0821B4E
:100FB000930BFF90EF90DF90CF9008950197F7CFBC
:100FC0002FB7F8948091970590919805A091990575
:100FD000B0919A052FBF0895CF93DF938093BB0004
:100FE00084E88093BC000E94E007EC018091BC0083
:100FF00087FF0FC02091B900287F81E090E0283260
:1010000011F490E080E0919581959109DF91CF9165
:1010100008950E94E0078C1B9D0B8436910530F3E8
:101020008EEF9FEFF3CF0F931F93CF93DF93C82FD4
:101030001092BC0084EA8093BC000E94E0078C01FF
:101040008091BC0087FF27C08091B900887F8830DD
:1010500029F08091B900887F803199F5C093BB0059
:1010600084E88093BC000E94E007EC018091BC0002
:1010700087FF1FC02091B900287F90E080E02831D1
:1010800099F081E090E0203411F490E080E09195B7
:101090008195910909C00E94E007801B910B84365D
:1010A000910570F28EEF9FEFDF91CF911F910F911D
:1010B00008950E94E0078C1B9D0B84369105B0F2C9
:1010C000F1CF8FEF9FEFF0CF0F931F93CF93DF936D
:1010D000EB010E9413089C0106E316E0CA5CD94F9D
:1010E00037FD09C0F80181918F010E94EC079C0136
:1010F000C017D107A9F784E98093BC00C901DF912B
:10110000CF911F910F910895E091DB05F091DC05DF
:10111000309749F082E08093EC050480F581E02D62
:101120008CEE95E009950E94E0079093F40580937A
:10113000F30508950F931F93462F572FBC01CB0142
:10114000AA27BB270097A105B105E9F1AC01BD01B4
:1011500080E1052F162F272F3327011511052105B3
:10116000310519F0885FB901A8018A019B01F4E0FB
:101170003695279517950795FA95D1F7011511051D
:101180002105310519F08C5FB901A8018A019B0185
:10119000E2E03695279517950795EA95D1F7011561
:1011A00011052105310519F08E5FB901A801769569
:1011B000679557954795452B462B472B09F08F5F31
:1011C0001F910F91089580E0C4CF80919205811105
:1011D0001092920508958091070690919105892BB0
:1011E00090919005892B8093720390919205992399
:1011F000A1F0892B8093720380911901882341F11A
:101200008091D90587FF24C08EE1E4E7F3E090E008
:10121000815000F591110E94E508E091DB05F09105
:10122000DC053097E1F080911901882359F0809115
:10123000D90587FF07C0809172038093730385E00F
:10124000809372030280F381E02D82E793E009949A
:1012500086E0DBCF21912223D9F29F5FD9CF089579
:10126000909119019923E1F09091D90597FF18C049
:10127000E82FE695E695E695803FF0F4F0E0EE582D
:10128000FC4F877021E030E0A90102C0440F551FD8
:101290008A95E2F7CA018095928189238283089515
:1012A000E4E7F3E09191891303C0DF0111971C92E9
:1012B00053E0EA37F507B1F70895909119019923A2
:1012C000C1F09091D90597FF14C0E82FE695E695F7
:1012D000E695803FF8F4F0E0EE58FC4F877021E08F
:1012E00030E001C0220F8A95EAF78281822B828347
:1012F0000895A4E7B3E0EFEF90E02D91821751F04D
:10130000EF3F19F4211101C0E92F9F5F9630A9F733
:10131000EF3F09F408950E2E000CFF0BEE58FC4F22
:10132000E6CF292F220FE22FE90FEE0FE80F9E2FB5
:101330009770E695E695E69585E0E89FF001112423
:10134000EC5AFA4F50E040E080E0219130E0092E65
:1013500002C0369527950A94E2F721703327042EB0
:1013600001C0220F0A94EAF7822B4F5F5F4F45308E
:10137000510559F70895292F220FE22FE90FEE0F9B
:10138000E80F8E2F877041E001C0440F8A95EAF77D
:10139000E695E695E69585E0E89FF0011124EC5A84
:1013A000FA4F30E020E070E05191DF011197CB015E
:1013B000022E02C0969587950A94E2F78170819576
:1013C0008527842385278C932F5F3F4F2530310558
:1013D00059F708958091530590912205981301C003
:1013E00008958F5F8770FACF882341F080959091A0
:1013F00007068923809307060C94EB080895882339
:1014000039F090910706892B809307060C94EB081E
:101410000895877021E030E001C0220F8A95EAF735
:1014200080919105822B809391050C94EB08282FD5
:10143000277081E090E001C0880F2A95EAF7809537
:10144000909191058923809391050C94EB0820914C
:10145000E3043091E4042817390771F09093E40411
:101460008093E304E091DB05F091DC05309721F0F7
:101470000084F185E02D099408952091E1043091D4
:10148000E2042817390771F09093E2048093E10495
:10149000E091DB05F091DC05309721F00680F781C3
:1014A000E02D0994089510929105109290050E94E4
:1014B000EB0886E0ECEEF5E0DF011D928A95E9F796
:1014C0001092F20510929B050E94840890E080E043
:1014D0000E943D0A90E080E00C94270A60939305F7
:1014E0007093940580939505909396050C94530AF8
:1014F000E091DB05F091DC05309721F00190F0815F
:10150000E02D099480E00895882309F459C08238B9
:1015100071F40E94780A81FF53C089E30E945D093B
:101520000E94EB0889E30E9430090C94EB08833891
:1015300059F40E94780A80FF43C083E50E945D0948
:101540000E94EB0883E5EFCF843859F40E94780AB3
:1015500082FF36C087E40E945D090E94EB0887E4A1
:10156000E2CF9CEF980F913AF0F290E2980F98300A
:1015700088F4877021E030E0A90102C0440F551FB4
:101580008A95E2F7CA018095909107068923809396
:101590000706CBCF9BE5980F933020F490E080E0D6
:1015A0000C943D0A98E5980F973120F490E080E084
:1015B0000C94270A803F20F00E948E060C94840829
:1015C0000895FC01C09718F5EE0FFF1FEE0FFF1FE7
:1015D000EB5DFE4F5281338180818370E18170E940
:1015E000879FC001112481549C4FE80FF92FF11DF2
:1015F000B4976083FC01E50FF11DB4974083830F1E
:10160000911DFC01B497208381E08093BE0308956F
:10161000EF92FF921F93CF93DF937B01182F110F4F
:10162000D0E0C0E08C2F8C5D80933606D701AC0FE4
:10163000BD1FE7E3F6E08D91819386E0E734F8077C
:10164000D1F761E170E0812F0E9464086096C03993
:10165000D10541F7DF91CF911F91FF90EF90089551
:10166000E6E3F6E06083418362E070E0880F0C946B
:1016700064088091BE03882351F06FEB73E084E728
:101680000E94080B6FE474E087E70E94080B109239
:10169000BE0308950C94E10A0F931F93FC01021BF3
:1016A00011090F3F110519F010F00FEF10E0009530
:1016B0002281200F08F42FEF22831F910F910895AC
:1016C0000F931F93FC01021B11090F3F110519F025
:1016D00010F00FEF10E08081800F80830095228151
:1016E000200F08F42FEF22831F910F9108950F937D
:1016F0001F93FC01DB01CA01422F9801493430F4E9
:10170000241B31092F3F310519F010F02FEF30E085
:101710001896519740F0AC01485F5F4F4131510539
:1017200010F02FEF30E020953281320F08F43FEFB8
:10173000328397FD0396959587959595879590911A
:101740007C06890F80831F910F9108950F931F933B
:10175000FC01020F111D9A0157FF03C0319521951D
:10176000310994E0220F331F9A95E1F72F3F31059D
:1017700019F014F02FEF30E0AB0177FF03C0519563
:101780004195510984E0440F551F8A95E1F74217AE
:1017900053070CF49A01200F311F2F3F310519F028
:1017A00010F02FEF30E020953281320F08F43FEF38
:1017B00032831F910F9108950F931F93FC0185E0D1
:1017C000289F000D111D11240F3F110519F010F075
:1017D0000FEF10E000952281200F08F42FEF2283F5
:1017E0001F910F910895FC0122E8261B08F420E0C8
:1017F00080917C06820F80830895FC0120917E06F3
:101800006095629F612D1124628308950F931F9349
:10181000DC0130E0F901EE0FFF1FEF51FD4F908129
:10182000905797FD9195220F331FF901EE51FD4F0F
:1018300000810052110B40039001419F300D112493
:1018400048E350E0491B510997FD53956403C001DB
:10185000659F900D1124280F391FC901880F991F0A
:10186000820F931F97FF02C081589F4F880F892FC7
:10187000881F990B90917C06890F8C931F910F9173
:1018800008950F931F93DC0130E0F901EE0FFF1F65
:10189000EE51FD4F00810052110B4003C001419FEA
:1018A000900D1124220F331FF901EF51FD4F2081BC
:1018B0002057330B6203A001639F500D1124840F46
:1018C000951F97FDCF9626E0959587952A95E1F788
:1018D00090917C06890F8C931F910F9108950F931F
:1018E0001F93DC0130E0F901EE0FFF1FEE51FD4FB9
:1018F00000810052110B4003C001419F900D112443
:10190000220F331FF901EF51FD4F20812057330B78
:101910006203A001639F500D1124840F951F97FF50
:1019200002C081589F4F880F892F881F990B909173
:101930007C06890F8C931F910F9108950F9343E0BC
:10194000249F9001112435952795200FFC012083B9
:101950000F910895DC0170E0FB01EE0FFF1FEE51C7
:10196000FD4F8081805287FD819590917C06941B6C
:10197000660F771FFB01EF51FD4F2081920F890FFA
:101980008C930895DC01E62FF0E0EE0FFF1FEE517F
:10199000FD4F9081941B9C930895DC01E62FF0E0AD
:1019A000EE0FFF1FEF51FD4F9081941B9C93089504
:1019B000FC0140830895FC01A62FB0E0AA0FBB1FD5
:1019C000AF51BD4F8C91282F34EE239F212D112430
:1019D00080917E06682F70E0822F90E04C96841BE9
:1019E000910997FF03C091958195910923E0880F94
:1019F000991F2A95E1F7681B790B77FD60E06283F8
:101A00000895FC01A62FB0E0AA0FBB1FAF51BD4F38
:101A10008C91282F34EE239F212D112480917D0657
:101A2000682F70E0822F90E04C96841B910997FFFD
:101A300003C091958195910923E0880F991F2A95FC
:101A4000E1F7681B790B77FD60E061830895FC0185
:101A50009B01009729F480E077FF2BC080E8089570
:101A6000AC0197FF04C044275527481B590BB90107
:101A7000640F751F37FD10C0241B350BC901A5E08D
:101A8000880F991FAA95E1F70E947A3680E2861B9B
:101A9000F7FF0FC081950895CB0165E0880F991F6E
:101AA0006A95E1F7BA01621B730B0E947A3680E6F1
:101AB000EECF0895EF92FF920F93CF937C01CA016E
:101AC000C22FC01B0E94270DC81BF701C083CF91F6
:101AD0000F91FF90EF9008951F93CF93DF93EC0148
:101AE000CA01122F0E94270D810F8883DF91CF91A9
:101AF0001F910895EF92FF920F93CF937C01CA013B
:101B0000201BC0917E06C20F0E94270DC81BF70143
:101B1000C283CF910F91FF90EF900895EF92FF92C3
:101B20000F93CF937C01CA01201BC0917D06C20F89
:101B30000E94270DC81BF701C183CF910F91FF9021
:101B4000EF9008951F93CF93DF93EC01CA0110919A
:101B50007E06121B0E94270D982F990F990F891B43
:101B6000810F8A83DF91CF911F9108951F93CF93A7
:101B7000DF93EC01CA0110917D06121B0E94270D14
:101B8000982F990F990F891B810F8983DF91CF912E
:101B90001F910895982FE82F96FDE0952E2F2F7016
:101BA00096FD2F5FE695E695E695E670F0E0E35E3C
:101BB000FE4F8181829F802D212D112482958F706F
:101BC0002295207F822B2081820F97FD819580585E
:101BD00008959C018230910508F408959FEF213EFD
:101BE0008EE1380740F4C90145E0969587954A95FE
:101BF000E1F798E0980F61E0E62FE90FFF27FF1F5C
:101C0000AF0155954795842F449FF001459FF00DF6
:101C1000F00D11242E173F0738F49FEF940F9617FD
:101C200058F78FEF860F08954F3FE9F361E0640F97
:101C3000F6CF1F93CF93DF93EC01FA01122F67FDCC
:101C4000619548E350E0461B510967FD5395449F59
:101C50009001459F300D300D1124EE9FC001EF9F84
:101C6000900D900D1124820F931F0E94E90D982F63
:101C7000990F980F910F9883DF91CF911F9108953D
:101C80009C0190E080E0269F812D369F800D911D64
:101C900011240895AF92BF92CF92DF92EF92FF92FC
:101CA0000F931F93CF93DF93462FD72E282F382FD4
:101CB000E82FF0E0711110C0E459FB4F6491762FCA
:101CC000862FDF91CF911F910F91FF90EF90DF90C2
:101CD000CF90BF90AF900895E72EF12C86E0689FDB
:101CE00080011124CFEFD0E0C801BE010E9466360A
:101CF000842F90E0880F991FA5E5A69FA001A79FBC
:101D0000500D1124841B950BB82EBB0CB80ECE01C0
:101D10008E199F098E9FA0018F9F500D9E9F500D81
:101D20001124952FBD9CD0011124AB2FBB276E0130
:101D3000CA1ADB0ACE9ED001CF9EB00DDE9EB00D3A
:101D400011248B2F6E01CB18D1085601AE9C600177
:101D5000AF9CD00CBE9CD00C1124CD2CDD24CC1912
:101D6000DD09CE9F7001CF9FF00CDE9FF00C112497
:101D70006330710531F10C3FE3E01E0760F4613020
:101D8000710519F16230710521F10F3F110548F419
:101D9000852F9F2D06C064307105F1F06630710506
:101DA000B9F3E22FF0E0E459FB4F6491E92FF0E042
:101DB000E459FB4F7491E82FF0E0E459FB4F849114
:101DC00080CF252F9B2F832FECCF2B2F852F932F69
:101DD000E8CF8F2D252FFBCF822F2F2DE2CF2F92F3
:101DE0003F924F925F926F927F928F929F92AF92AB
:101DF000BF92CF92DF92EF92FF920F931F93CF93F8
:101E0000DF93CDB7DEB729970FB6F894DEBF0FBECC
:101E1000CDBF282E6D837E83E0901A018AE0E89E74
:101E2000802D11242AE0280F2C832F83213310F0DA
:101E300030E33F8390917D069A8390915206988774
:101E4000E82EF12CC701880F991FFC01EF51FD4FBF
:101E50006F01422C512CFFEF4F1A5F0A8F81E81659
:101E6000F0F081E09C81903308F080E029960FB675
:101E7000F894DEBF0FBECDBFDF91CF911F910F91C0
:101E8000FF90EF90DF90CF90BF90AF909F908F909A
:101E90007F906F905F904F903F902F900895F70143
:101EA000EF5BFC4F808190911B018923E9F08091C9
:101EB0007C0689831B8292012E5A394F3901322CBC
:101EC000F8853F16C0F030917E062B81239F212D8F
:101ED00011242B8369817A818B810E944A0E472FBE
:101EE000282FC7010E944A0B2FEFE21AF20A32E0B4
:101EF000C30ED11CB3CFF30181913F01F601A08045
:101F0000A81ABB088180F3018781881A9908AA9CC6
:101F10009001AB9C300D300D1124889CC001899C30
:101F2000900D900D1124820F931F0E94E90D898757
:101F3000F301EE0FFF1FE255F64060917F068589A1
:101F400096890E94400E8C012985A401B501CE011D
:101F50000196ED81FE8109953394B2CFAF92BF9285
:101F6000CF92DF92EF92FF920F931F93CF93DF9365
:101F700000D00F92CDB7DEB75C0100911A018AE064
:101F8000089F002D11242AE0D22ED00ECD2C80E304
:101F90008D1510F490E3C92E80917C068983809181
:101FA0007D068A8380917E068B8320917F0630E0B8
:101FB00050E040E06FEF7FEF80E090E00E948D38CE
:101FC000790110E0202F0C1598F081E0FFE2FD155B
:101FD00008F480E00F900F900F90DF91CF911F9148
:101FE0000F91FF90EF90DF90CF90BF90AF9008954A
:101FF000F801EF5BFC4F808190911B018923E1F098
:10200000409152064150042E000C550B47FF17C05B
:10201000C70160917F060E94400EBC01CE0101966F
:10202000F501099569817A818B810E944A0E472FBB
:10203000282FC8010E944A0B0F5F1F4FC3CFFA0120
:10204000EE5AF94F818982130AC0FA01EE0FFF1F81
:10205000EE5AF94F818D928D8E159F05D0F2415029
:102060005109D4CFAF92BF92CF92DF92EF92FF92FD
:102070000F931F93CF93DF9300D000D00F92CDB773
:10208000DEB75C01E0901A010AE0E09E002D112409
:102090009AE0D92ED00ECD2C80E38D1510F480E37C
:1020A000C82E80917C06898380917D068A838091E9
:1020B0007E068B8360917F066695669580914A06C1
:1020C00090914B060E94400E182F80E4810F0E94D1
:1020D000CA0D80588C83812F0E94CA0D80588D8331
:1020E000E02EF12CEC14A8F081E09FE29D1508F49D
:1020F00080E00F900F900F900F900F90DF91CF9195
:102100001F910F91FF90EF90DF90CF90BF90AF9015
:102110000895F701EF5BFC4F808190911B018923AB
:1021200091F0012F2E2D4D816C81CE010196F5018C
:10213000099569817A818B810E944A0E472F282F49
:10214000C7010E944A0BFFEFEF1AFF0ACBCF6F9235
:102150007F928F929F92AF92BF92CF92DF92EF9237
:10216000FF920F931F93CF93DF9300D00F92CDB7C1
:10217000DEB74C01E0901A010AE0E09E002D112428
:102180001AE0100F612E113310F090E3692E809148
:102190007C06898380917D068A8380917E068B836D
:1021A00060917F06669580914A0690914B060E9449
:1021B000400E782EE02EF12CE614B0F081E01033C2
:1021C00008F080E00F900F900F90DF91CF911F915A
:1021D0000F91FF90EF90DF90CF90BF90AF909F90C6
:1021E0008F907F906F900895F701EF5BFC4F808197
:1021F00090911B018923A9F19701220F331FF90147
:10220000EF51FD4F8081482F4057550B6A012E51E9
:102210003D4FF9018081282F2052330B5901449FF3
:102220009001459F300D300D1124AA9CC001AB9C3C
:10223000900D900D1124820F931F0E94E90D282FFD
:10224000072DA501B601CE010196F401099569811A
:102250007A818B810E944A0E472F282FC7010E9446
:102260004A0BFFEFEF1AFF0AA7CFBF92CF92DF9280
:10227000EF92FF920F931F93CF93DF9300D00F92B3
:10228000CDB7DEB77C0100911A018AE0089F002DCE
:1022900011242AE0D22ED00EBD2C80E38D1510F42F
:1022A00090E3B92E80917C06898380917D068A8394
:1022B00080917E068B8360917F06669580914A06A9
:1022C00090914B060E94400EC82E10E00B1590F026
:1022D00081E0FFE2FD1508F480E00F900F900F9071
:1022E000DF91CF911F910F91FF90EF90DF90CF90F2
:1022F000BF900895F801EF5BFC4F808190911B0126
:102300008923F1F09801220F331FF901EE51FD4F9F
:1023100040814052550B2F513D4FF901608160576C
:10232000770B2C2DCE010196F701099569817A81F1
:102330008B810E944A0E472F282FC8010E944A0B0A
:102340000F5F1F4FC3CFBF92CF92DF92EF92FF92EA
:102350000F931F93CF93DF9300D00F92CDB7DEB7CB
:102360006C0100911A018AE0089F002D11249AE067
:10237000F92EF00EBF2C80E38F1510F480E3B82EF9
:1023800080917C06898380917D068A8380917E0678
:102390008B8360917F066695669580914A06909141
:1023A0004B060E94400EE82E10E00B1590F081E0E5
:1023B000FFE2FF1508F480E00F900F900F90DF917F
:1023C000CF911F910F91FF90EF90DF90CF90BF9032
:1023D0000895F801EF5BFC4F808190911B018923E8
:1023E00081F04E2D602FCE010196F601099569818D
:1023F0007A818B810E944A0E472F282FC8010E94A4
:102400004A0B0F5F1F4FD1CF9091D90592FF06C0A5
:10241000282F2871283069F4877F846093FF06C0D5
:10242000282F2871283161F4877E846194FD877E8E
:102430000895282F2471243089F78B7F8860EECF90
:10244000282F2471243191F78B7E8861EFCF0F9371
:102450001F93CF93DF93972F70E026E0929F600D3C
:10246000711D1124FB0134E5839FE00DF11D112442
:10247000EE0FFF1FE459FA4F05911491E801003E59
:10248000110509F47CC0B8F50133110509F4AEC09B
:1024900090F40932110509F4A2C00A32110509F4B9
:1024A000ACC001301105A1F104501109013A110528
:1024B00008F074C02DC00933110509F459C0023861
:1024C000110509F455C00533110509F481C0083A16
:1024D000110508F099C0053A110518F3C1E8D0E4D8
:1024E000053A1105A9F0C2E8D0E4063A110581F0D9
:1024F000C3E8D0E40DC0063E110509F459C070F4DC
:10250000023E110509F442C0033E110509F449C019
:10251000CE01DF91CF911F910F910895073E1105D4
:1025200009F44FC0011541E5140708F09BC00115DF
:1025300080E5180708F47AC0C80174E0969587957D
:102540007A95E1F78370202F26952695237090E2E7
:10255000299F90011124382B802F8370C1E0D0E097
:1025600002C0CC0FDD1F8A95E2F7C22BD32BA3C08C
:102570008091D905837061F2C0EED0E0C9CF80911F
:10258000D90580FFC5CFC9E3D0E0C2CF8091D9057E
:1025900082FFBECFC3EED0E084FFBACFD0E0C0E070
:1025A000B7CF8091D90582FD8BC184FFB1CFF6CF23
:1025B0008091D90583FFACCFC7EED0E084FDEECF8C
:1025C000A7CF8091D90583FFF0CFC6EED0E0A0CF92
:1025D0008091D90585FF9CCFC9E2D0E099CF809149
:1025E000D90585FF95CFC5E3D0E092CF8091D9057D
:1025F00086FF8ECFCAE2D0E08BCF8091D90586FFCF
:1026000087CFC1E3D0E084CF0F3B110508F49AC017
:10261000005C1109F8010032110508F0BFCFEE0F80
:10262000FF1FE459FB4FC591D49172CF011590E380
:10263000190780F4011520E2120708F010C10F3FBE
:10264000110511F008F064CFD065003F110508F0C6
:102650005FCFA4CF011530E4130708F403C1DF7086
:10266000D06A56CF011546E5140760F5011585E5DA
:10267000180708F017C1011594E51907F0F40115C2
:1026800023E5120708F0FAC0011532E5130708F434
:10269000F0C0C80183709927C1E0D0E002C0CC0F20
:1026A000DD1F8A95E2F70695069540E2049F8001BA
:1026B0001124C02BD12BDC682BCFD02FCC27C46F9B
:1026C000D06A26CF01158CE5180748F501159BE562
:1026D000190708F0F2C0011529E5120750F4011599
:1026E00038E5130708F45ACFD02FCC27C06FD06A33
:1026F0000FCFC80199558F3F910511F008F04ECFCB
:10270000802F8F700E94041234E0169507953A9539
:10271000E1F70F70C82FCF70C06ED02FA1CFC801C6
:1027200090568115904208F039CF8D2F8F710E94FD
:10273000041290E0982F882788279F719C01202BF6
:10274000E901B9C0C2EED4E4083A110509F4E0CEBB
:10275000C9EED4E4093A110509F4DACECAEED4E49C
:102760000A3A110509F4D4CEC5EBD4E40B3A1105AD
:1027700009F4CECEC6EBD4E40C3A110509F4C8CE68
:10278000C3EBD4E40B3B110509F4C2CEC4EBD4E493
:102790000C3B110509F4BCCEC7EBD4E40D3A11058E
:1027A00009F4B6CECCECD4E4003B110509F4B0CE6C
:1027B000CDECD4E40E3A110509F4AACEC3E8D5E471
:1027C0000F3A110509F4A4CECAE8D5E4013B11057E
:1027D00009F49ECEC2E9D5E4023B110509F498CE76
:1027E000C4E9D5E4033B110509F492CEC1E2D6E475
:1027F000043B110509F48CCEC3E2D6E4053B110578
:1028000009F486CEC4E2D6E4063B110509F480CE75
:10281000C5E2D6E4073B110509F47ACEC6E2D6E458
:10282000083B110509F474CEC7E2D6E4093B110553
:1028300009F46ECECFE6D4E40D3B110509F468CE61
:10284000C0E7D4E40E3B110509F462CEC0E0D4E445
:102850000A3B110509F05CCECAE2D6E459CEF80174
:10286000FF70DDCEDD2713FF02C0D86C51CED06CD7
:102870004FCED02FCC27C16FD06A4ACEC80183700B
:102880009927C1E0D0E002C0CC0FDD1F8A95E2F7A6
:102890000695069520E2029F80011124C02BD12BC2
:1028A000DA6836CE802F0E940412C82FD0E0DC2FC9
:1028B000CC27CC27DF71D0622BCEDD27D06628CE87
:1028C000C2EED0E025CEBF92CF92DF92EF92FF9280
:1028D0000F931F93CF93DF938C01C0908B05D09003
:1028E0008C05E0908D05F0908E0580919305909178
:1028F0009405A0919505B0919605C82AD92AEA2A8F
:10290000FB2ACFE1D0E0BC2ED701C6010C2E04C0BB
:10291000B695A795979587950A94D2F780FD0EC036
:10292000219788F7B12C8B2DDF91CF911F910F91BB
:10293000FF90EF90DF90CF90BF900895B8018C2F5B
:102940000E942712019761F3EECFCF93DF93D82F28
:10295000C92F0E9463146D2F7C2FDF91CF910C94AF
:1029600027120E94A514282F892F8F70392F329596
:102970003F70903C80F43A30B0F4343020F4323080
:1029800090F480E008953630E1F781E0203E88F051
:10299000213FB9F70EC03C3011F03F3091F78695DA
:1029A00086958695089581E0203F39F018F4203E01
:1029B00040F70895243F29F7FCCF08950F931F9304
:1029C000CF93DF9320E9289FE001299FD00D1124A8
:1029D000C455DF4F10E000E0FE0164913196749120
:1029E00031968491962F972B982B89F420E040E024
:1029F00060E0C8010E944A0B0F5F1F4F239600330F
:102A0000110551F7DF91CF911F910F9108950E9409
:102A10004A0E472F282FEDCF27982F9808952698F4
:102A20002E98089525982D98089556985E980895A3
:102A3000279A2F9A0895269A2E9A0895259A2D9AC4
:102A40000895FF920F931F93CF93DF93F62E072FD6
:102A5000182FD92F0E949A08C82F0E9415150E947E
:102A600012150E940F150E940C15C150C73040F47A
:102A7000EC2FF0E0EE50F74C0C948E360E941E15B1
:102A8000F0928B0500938C0510938D05D0938E05E5
:102A9000DF91CF911F910F91FF900C94530A0E94E8
:102AA0001E150E941B15ECCF0E941E150E941815C2
:102AB000E7CF0E941E150E941B15F8CF0F931F939E
:102AC000CF93DF9300D000D0CDB7DEB741E050E028
:102AD00060E070E004C0440F551F661F771F8A95A1
:102AE000D2F7409550956095709580918B059091A7
:102AF0008C05A0918D05B0918E058A019B0108235C
:102B000019232A233B2309831A832B833C83C9017E
:102B1000B8010F900F900F900F90DF91CF911F9100
:102B20000F910C94211590918F05809589238093A6
:102B30008F05282F277071F4282F082E000C330BD7
:102B40009217130639F08595859585950E945E1537
:102B500010928F0508950F931F93CF93DF9300D0AA
:102B600000D0CDB7DEB741E050E060E070E004C0D7
:102B7000440F551F661F771F8A95D2F780918B05EA
:102B800090918C05A0918D05B0918E058A019B01D5
:102B9000082B192B2A2B3B2B09831A832B833C836D
:102BA000C901B8010F900F900F900F90DF91CF9156
:102BB0001F910F910C942115CF93C82F873050F59A
:102BC00080910D0190910E01892B11F580E40E94F6
:102BD000130890930E0180930D01892BB1F482E1CB
:102BE0000E94EC0790930E0180930D01892B69F4EC
:102BF00081E090E001C0880FCA95EAF780950E94B5
:102C0000EC0790930E0180930D0184E98093BC0042
:102C1000CF9108958B30C1F048F4893079F08A3033
:102C200081F0883041F0209A2898F2CF8C3079F4E6
:102C3000539A5B98EDCF219A2998EACF229A2A9845
:102C4000E7CF239A2B98E4CF529A5A98E1CF3E9A35
:102C50004698DECF84B1807F84B985B1807F85B905
:102C60008AB1837F8AB98BB1837F8BB93E984698AE
:102C70000895CF93DF93873008F049C080910D010C
:102C800090910E01892B09F04BC080E40E9413083B
:102C900090930E0180930D01892B39F080E094E927
:102CA0009093BC00DF91CF91089583E10E94EC07DF
:102CB00090930E0180930D01892B81F781E40E948E
:102CC000130890930E0180930D01892B39F784E846
:102CD0008093BC000E94E007EC018091BC0087FF5C
:102CE00008C08091BB00809510920E0110920D01DA
:102CF000D6CF0E94E0078C1B9D0B8436910568F3AC
:102D00008EEF9FEF90930E0180930D01C7CF9FB17F
:102D10008FB1869586958C739370892B8095C2CFE1
:102D200080E0C0CF80B38C7080BB81B3836F81BBE8
:102D30000895CF93DF93EC0180EEFE01099581EEBB
:102D4000FE01DF91CF9109940F931F93CF93DF93EF
:102D500000D00F92CDB7DEB78C010E947F06823083
:102D600011F0843021F584E089830A831B8382E09B
:102D70008093E9008FEF9091E800815095FD06C0A7
:102D800095ED9A95F1F700008111F5CF8091E8005B
:102D900085FF0DC050E040E063E070E0CE01019699
:102DA0000E9449058091E8008E778093E8000F909B
:102DB0000F900F90DF91CF911F910F910895CF93B6
:102DC000DF9300D00F92CDB7DEB79C0180912C0627
:102DD000843031F583E08983205831093B832A838D
:102DE00082E08093E9008FEF9091E800815095FD9B
:102DF00006C095ED9A95F1F700008111F5CF80910D
:102E0000E80085FF0DC050E040E063E070E0CE01D7
:102E100001960E9449058091E8008E778093E80032
:102E20000F900F900F90DF91CF910895CF93DF9384
:102E3000D82FC92F0E947F06823011F0843001F50F
:102E400082E08093E9008FEF9091E800815095FD3A
:102E500006C095ED9A95F1F700008111F5CF8091AC
:102E6000E80085FF0DC050E040E066E070E08D2F87
:102E70009C2F0E9449058091E8008E778093E8009E
:102E8000DF91CF910895CF93DF93D82FC92F0E9460
:102E90007F06823011F08430C9F5809119018823B2
:102EA000C1F18091D90587FF34C060E282E0809350
:102EB000E9008FEF9091E800815095FD06C095EDF7
:102EC0009A95F1F700008111F5CF8091E80085FF18
:102ED0001DC08091190170E050E040E0811104C0F4
:102EE00050E040E068E070E08D2F9C2F0E94490583
:102EF0008091E8008E778093E80080E2ED2FFC2F30
:102F0000AAE0B6E001900D928A95E1F7DF91CF91AA
:102F1000089568E081E0CBCF882309F408C18238A6
:102F2000B9F40E94780A81FD02C189E30E945D091B
:102F30000E94EB082FEF81EE94E0215080409040FA
:102F4000E1F700C0000089E30E9430090C94EB080F
:102F50008338A1F40E94780A80FDE9C083E50E94CD
:102F60005D090E94EB082FEF81EE94E02150804034
:102F70009040E1F700C0000083E5E6CF8438A1F47B
:102F80000E94780A82FDD3C087E40E945D090E94F6
:102F9000EB082FEF81EE94E0215080409040E1F764
:102FA00000C0000087E4D0CF9CEF980F913A18F44E
:102FB0000E945D09CBCF90E2980F983068F487703B
:102FC00021E030E001C0220F8A95EAF780910706E0
:102FD000822B80930706BACF9BE5980F933070F44D
:102FE000853A31F0863A39F083E890E00C943D0A56
:102FF00081E890E0FBCF82E890E0F8CF98E5980F69
:10300000973108F08EC0883A09F446C0893A09F42D
:1030100046C08A3A09F446C08B3A09F446C08C3A55
:1030200009F446C08B3B09F446C08C3B09F446C00A
:103030008D3A09F446C0803B09F446C08E3A09F443
:1030400046C08F3A09F446C0813B09F446C0823B32
:1030500009F446C0833B09F446C0843B09F446C0EA
:10306000853B09F446C0863B09F446C0873B09F41A
:1030700046C0883B09F446C0893B09F446C08D3BF5
:1030800009F446C08E3B09F446C08A3B09F446C0A9
:1030900090E080E00C94270A82EE90E0FBCF89EE6E
:1030A00090E0F8CF8AEE90E0F5CF85EB90E0F2CF9C
:1030B00086EB90E0EFCF83EB90E0ECCF84EB90E0F9
:1030C000E9CF87EB90E0E6CF8CEC90E0E3CF8DEC9E
:1030D00090E0E0CF83E891E0DDCF8AE891E0DACFBD
:1030E00082E991E0D7CF84E991E0D4CF81E292E008
:1030F000D1CF83E292E0CECF84E292E0CBCF85E2E3
:1031000092E0C8CF86E292E0C5CF87E292E0C2CFDC
:103110008FE690E0BFCF80E790E0BCCF8AE292E0FC
:10312000B9CF803F20F00E9453070C948408089583
:10313000CF93C82F0E948C17C93349F42FEF83EC2B
:1031400099E0215080409040E1F700C000008C2FB2
:10315000CF910C94840AFF920F931F93CF93DF9328
:10316000C62FD42F022FFC0182818823A9F06093FF
:1031700016050E94E0079093E0048093DF04C77077
:1031800081E001C0880FCA95EAF7DF91CF911F91C6
:103190000F91FF900C94FF0910911605161334C07F
:1031A0008091DF049091E0040E94BB07883C910568
:1031B00058F5C0E2CD0F1D17A9F01770FF24F39446
:1031C0008F2D01C0880F1A95EAF70E94F409C830C4
:1031D00048F48D2F877001C0FF0C8A95EAF78F2D78
:1031E0000E94FF09802F0E949818C830A0F4D77061
:1031F00081E001C0880FDA95EAF7DF91CF911F9146
:103200000F91FF900C94F409C77081E001C0880F02
:10321000CA95EAF7F2CFDF91CF911F910F91FF90FE
:103220000895CF93DF93C82F4BE06DEF0E94300BD2
:1032300040E06AE08C2F0E94300B8FE39CE90197FD
:10324000F1F700C0000040E060E08C2F0E94300BDE
:1032500040E061E08C2F0E94300B40E066E08C2F54
:103260000E94300B40E06DEF8C2F0E94300BD0E0BD
:1032700040E06D2F8C2F0E94300BDF5FD231C1F701
:1032800040E06D2F8C2F0E94300BDF5FD432C1F7EE
:1032900040E06D2F8C2F0E94300BDF5FD43BC1F7D5
:1032A0004BE06DEF8C2F0E94300B41E06AE08C2FD9
:1032B0000E94300B40E06DEF8C2FDF91CF910C948A
:1032C000300B7F928F929F92AF92BF92CF92DF92FC
:1032D000EF92FF920F931F93CF93DF931092B90059
:1032E0008CE08093B80084E70E94111987E70E9460
:1032F000111965E2E62E61E0F62ED12CC12C72E1A7
:10330000772EE8E08E2E912CAA24A394B12CF701FD
:10331000418150E0CA01849702810452110BC3819C
:10332000C452DD0BF601EE0FFF1FEE0FFF1FEB5D2A
:10333000FE4F2081237030E0FC0197FD379643E07B
:10334000F595E7954A95E1F7729EA001739E500DA1
:10335000112447565C4FE40FF52FF11DB4010E9474
:103360007A36A50101C0440F8A95EAF78081842B43
:103370008083F80117FD379693E0F595E7959A95C8
:10338000E1F7729EC001739E900D112487569C4FE9
:10339000E80FF92FF11DC801B4010E947A36A5018A
:1033A00001C0440F8A95EAF78081842B8083FE0157
:1033B000D7FD379683E0F595E7958A95E1F7729EFC
:1033C000C001739E900D112487569C4FE80FF92F72
:1033D000F11DCE01B4010E947A36950101C0220F81
:1033E0008A95EAF78081822B8083FFEFCF1ADF0A6C
:1033F00084E0E80EF11CE0E3CE16D10409F087CF9B
:1034000081E08093BD0309E913E0C0E0F801419138
:103410008F016C2F84E70E94300BF80141896C2FDB
:1034200087E70E94300BCF5FC23181F7DF91CF91E8
:103430001F910F91FF90EF90DF90CF90BF90AF90D2
:103440009F908F907F900895FF920F931F93CF933B
:10345000DF938C01F8012491222309F442C0E80192
:103460002196213049F4FE011491812F0E948C177E
:10347000812F0E94840A06C0223041F4FE0184910B
:103480000E948C178E010F5F1F4FE4CF233019F479
:10349000FE018491EECF30E0F901E451FC4FF4904D
:1034A000F901E459FC4FD491F901E451FD4FC49165
:1034B000DD2319F081EE0E948C17CC2319F086EEE3
:1034C0000E948C178F2D0E949818CC2319F086EE3D
:1034D0000E94840ADD2319F081EE0E94840AE8012B
:1034E000D1CFDF91CF911F910F91FF90089580E28E
:1034F00090E090930E0180930D01809198038111CB
:1035000011C01092B9008CE08093B80081E08093E4
:1035100098032FEF83ED90E3215080409040E1F736
:1035200000C0000080E40E94130890930E01809375
:103530000D01892B09F040C080E00E94EC079093B8
:103540000E0180930D01892BB9F580E00E94EC07F4
:1035500090930E0180930D01892B71F58FE30E94EA
:10356000EC0790930E0180930D01892B29F584E9D6
:103570008093BC0080E40E94130890930E01809316
:103580000D01892BC9F48CE00E94EC0790930E0189
:1035900080930D01892B81F480E00E94EC079093C9
:1035A0000E0180930D01892B39F48FE30E94EC0703
:1035B00090930E0180930D0184E98093BC0080916B
:1035C0000D0108950E9415150E9412150E940F15F5
:1035D0000E940C158FEF90E09093890080938800F3
:1035E00090938B0080938A0090938D0080938C0041
:1035F0000E941E152FEF80E792E0215080409040FE
:10360000E1F700C000000E941B152FEF80E792E059
:10361000215080409040E1F700C000000E94181542
:103620002FEF80E792E0215080409040E1F700C00A
:1036300000000E9412152FEF80E792E02150804099
:103640009040E1F700C000000E940F152FEF80E7C7
:1036500092E0215080409040E1F700C000000E94BD
:103660000C150E9415150E9412150E940F150C943E
:103670000C1590E080E00E9453389C0181E02D3EC3
:103680003E4F09F080E00895AB01BC0180E190E07D
:103690000C946B38CF93DF9300D000D0CDB7DEB75A
:1036A000EBE7F6E081836283438380819181A2818D
:1036B000B38189839A83AB83BC83BC01CD010F9016
:1036C0000F900F900F90DF91CF910C94441BCF93EC
:1036D000DF9300D000D0CDB7DEB7EBE7F6E0982F50
:1036E000990F990F80818370892B808310920C0130
:1036F00080819181A281B38189839A83AB83BC83CA
:10370000BC01CD010F900F900F900F90DF91CF91E2
:103710000C94441BCF93DF9300D000D0CDB7DEB71D
:1037200080917B06845080937B06982F9C7F21F4A8
:103730008370886880937B0610920C0180917B06D1
:1037400090917C06A0917D06B0917E0689839A8334
:10375000AB83BC83BC01CD010F900F900F900F90F5
:10376000DF91CF910C94441BCF93DF9300D000D016
:10377000CDB7DEB780917B06982F969596959F5F83
:103780009F7383709332E8F4990F990F892B80937C
:103790007B0610920C0180917B0690917C06A09193
:1037A0007D06B0917E0689839A83AB83BC83BC017E
:1037B000CD010F900F900F900F90DF91CF910C944F
:1037C000441B8460E4CFCF93DF9300D000D0CDB70B
:1037D000DEB7EBE7F6E08DE2808311828FEF828324
:1037E00083838FE7848380819181A281B3818983E0
:1037F0009A83AB83BC83BC01CD010F900F900F90D7
:103800000F90DF91CF910C94441B6091C7058CE021
:1038100090E00C9459386DEE7EEF90E080E00E94CD
:10382000773860E082E090E00E94593860E083E001
:1038300090E00E94593810929305109294051092CE
:1038400095051092960560E084E090E00E9459385A
:1038500060E085E090E00E94593860E086E090E00A
:103860000E9459386FEF87E090E00E94593840E09D
:1038700050E0BA0188E090E00E946B3860E08DE093
:1038800090E00E94593840E050E0BA0188E190E0B1
:103890000E946B3860E087E190E00E94593840E078
:1038A00050E0BA0180E190E00E946B3840E050E0C7
:1038B000BA018FE090E00E946B3840E050E0BA011E
:1038C00083E190E00C946B3880911901E4E7F3E018
:1038D000882359F08091D90587FF07C08EE1DF0169
:1038E0001D928A95E9F70C94530A86E0F8CF1F934E
:1038F000CF93DF93CDB7DEB7AA970FB6F894DEBFAC
:103900000FBECDBF8EE296E0FC0101962091F10042
:10391000208326E086339207B9F780912F068930FD
:1039200009F458C0C8F4823009F4B3C0833009F4F4
:1039300082C0813081F18091E80083FF87C280914D
:103940002E0690912F069A3008F080C2E92FF0E001
:10395000E750F74C0C948E368A3009F489C08B30CE
:1039600051F780912E06813231F780913206909185
:103970003306892B01F78091E800877F8093E80068
:103980000E947305809130068093190110920706FA
:103990000E94641CD0CF80912E06813A61F68091FE
:1039A000E800877F8093E80080913206909133068B
:1039B000892B61F460E28AE096E070E00E942506BF
:1039C0008091E8008B778093E800B5CF60E090E0CD
:1039D00080E0F3CF80912E06813209F0ACCF809148
:1039E000320690913306029708F0A5CF8091E80047
:1039F000877F8093E8008091E80082FF17C0909154
:103A0000F3008091F200029729F48091F1008B7FFE
:103A1000813021F48091F100809309068091E800C3
:103A20008B778093E8000E94730585CF80912C06E8
:103A30008111E1CF80CF80912E06813A09F07BCFB2
:103A40008091320690913306892B09F074CF8091D2
:103A5000E800877F8093E8008091E80080FFFCCF3A
:103A6000809119018093F1008091E8008E77D9CF81
:103A700080912E06813209F05ECF8091E800877F29
:103A80008093E8000E9473058091310680930806B8
:103A900052CF80912E06813A09F04DCF8091E800F7
:103AA000877F8093E8008091E80080FFFCCF8091C1
:103AB0000806D8CF803899F0823809F0C7C18091C4
:103AC00032068F70873008F0C1C18093E900809181
:103AD000EB0085FB882780F91092E90006C08091F1
:103AE0002A0690912B06911182609091E800977FB1
:103AF0009093E8008093F1001092F1008091E8002B
:103B00008E77A0C1882309F48EC1823009F09EC14E
:103B100080913006811191C1809132068F702FEF14
:103B2000280F263008F092C18093E9002091EB0025
:103B300020FF83C1933031F48091EB008062809349
:103B4000EB007BC19091EB0090619093EB0021E042
:103B500030E001C0220F8A95EAF72093EA00109224
:103B6000EA008091EB008860EACF81116FC110916B
:103B700030061F778091E3008078812B8093E300EB
:103B80008091E800877F8093E8000E947305809110
:103B9000E80080FFFCCF8091E30080688093E30021
:103BA00082E0111183E080932C0650C1805882304E
:103BB00008F04CC140913006509131064C3D83E0F5
:103BC0005807A1F583E08A838AE289834FB7F89486
:103BD000DE01139620E03EE051E2E32FF0E0509347
:103BE0005700E49120FF03C0E295EF703F5FEF7054
:103BF0008E2F90E0EA30C0F0C7968D939D932F5F93
:103C0000243159F74FBF8091E800877F8093E80007
:103C10006AE270E0CE0101960E9425068091E800DC
:103C20008B778093E80012C1C096E7CF20913206CF
:103C300030913306852F99278330910509F160F47F
:103C40008130910509F47EC0029709F0FFC08BE333
:103C500090E0EDE2F9E03EC08132910509F466C0E2
:103C6000829709F0F3C02115310509F475C02130A0
:103C7000310509F0EBC080EC90E0EDE2F8E02AC0FD
:103C8000CA019927423009F449C08330910568F48C
:103C90000097B1F0019709F0D9C0E8E9F9E0E491A3
:103CA0008E2F90E0E8E9F9E012C0039709F0CEC04A
:103CB000EAE7F9E0E4918E2F90E0EAE7F9E007C047
:103CC000E0EBF9E0E4918E2F90E0E0EBF9E0009773
:103CD00009F4BCC02091E800277F2093E8002091E0
:103CE0003406309135068217930708F49C0140E0B2
:103CF00021153105B1F5411134C08091E80082FDF4
:103D00008DCF80912C06882309F488CF853009F463
:103D100085CF8091E80083FFF0CF80CFE0E8F9E025
:103D2000E4918E2F90E0E0E8F9E0D1CF2115310544
:103D300071F02130310509F089C089E090E0E8E5B3
:103D4000F9E0C8CF82E190E0E8E6F9E0C3CF89E08E
:103D500090E0EFE3F9E0BECF80E490E0EDEEF8E034
:103D6000B9CF80912C06882309F458CF853009F407
:103D700055CF8091E80083FD51CF8091E80082FD0E
:103D8000BCCF8091E80080FFB3CF9091F300809189
:103D9000F2002115310519F08830910550F041E00D
:103DA000089709F040E08091E8008E778093E80062
:103DB0009FCF44914093F1003196215031090196F3
:103DC000E8CF803809F042C08091E800877F809377
:103DD000E80080912D068093F10090CE811136C0CD
:103DE00010913006123090F58091E800877F809323
:103DF000E80010932D060E947305112311F084E052
:103E000005C08091E30087FDFACF81E080932C0606
:103E100042E061EC81E00E94920542E261EC82E0C6
:103E20000E94920513C080913006813079F481E0C0
:103E3000933009F080E080932B061092E900809186
:103E4000E800877F8093E8000E9473058091E80076
:103E500083FF0AC08091E800877F8093E80080910B
:103E6000EB0080628093EB00AA960FB6F894DEBF59
:103E70000FBECDBFDF91CF911F9108952F923F923A
:103E80004F925F926F927F928F929F92AF92BF926A
:103E9000CF92DF92EF92FF920F931F93CF93DF9316
:103EA000CDB7DEB72C970FB6F894DEBF0FBECDBFEF
:103EB0003C01DC0113968D919C911497892B49F05C
:103EC0001C911196FC90812F8F218F3F11F00C9443
:103ED000EE2A2C960FB6F894DEBF0FBECDBFDF9151
:103EE000CF911F910F91FF90EF90DF90CF90BF90F7
:103EF000AF909F908F907F906F905F904F903F908A
:103F00002F9008950E946314082F682F89819A8149
:103F10000E94BB09E12FF0E0B6E0FB9EE00DF11D31
:103F2000112414E5019FE00DF11D1124EE0FFF1F78
:103F3000E459FA4FA591B491BC87AB874D01CD01EF
:103F400081509545EB85FC858F3F910518F4FD0167
:103F5000B5E5FB27D30112968C91882309F4DCC2C6
:103F6000EF3FF10581F078F0EE3DFC4529F010922D
:103F70001305EB85FC8586C08091130591E08927A8
:103F800080931305A6CF80911305882309F477C188
:103F900010921305E03CF10508F03FC0E038F10550
:103FA00008F037C18F01005411090034110508F4DD
:103FB000FDC021E030E040E050E060E070E080E0F3
:103FC00090E00E2F0E949436C090F304C22AD09045
:103FD000F404D32AE090F504E42AF090F604F52ADC
:103FE0000091F704062B1091F804172BB091F904F7
:103FF000B82BA091FA04A92BC092F304D092F40438
:10400000E092F504F092F6040093F7041093F8049C
:10401000B093F904A093FA0435C021E030E040E009
:1040200050E060E070E080E090E08F01005C1109FA
:104030000E949436C0900B05C22AD0900C05D32A5A
:10404000E0900D05E42AF0900E05F52A00910F0589
:10405000062B10911005172BB0911105B82BA091CC
:104060001205A92BC0920B05D0920C05E0920D050C
:10407000F0920E0500930F0510931005B0931105F3
:10408000A0931205D30111968C9111972C91B6E053
:104090008B9FC001112483579D4F820F911DDC011E
:1040A0005C90BFEF10E05B1211E010924E06109290
:1040B0004F0610925006109251064F0100919E0536
:1040C000E12EF12CC701800F911D099764F188E062
:1040D00090E06C01CE18DF08B70161567A4FA60157
:1040E0008FE995E00E943C38B70169557A4FA601E7
:1040F00087EA95E00E943C38A601440F551FB7019E
:10410000660F771F69547A4F87EB95E00E943C3821
:10411000B70161557A4FA6018FEA95E00E943C38BD
:10412000015000939E0580919E0590E0252D30E082
:10413000D901AA0FBB1FBD016F517D4F9D012E51AB
:104140003D4F41E0480F911708F462C280939E05ED
:104150009401275F3C45F30192812031310508F03D
:104160006CC2992309F4B5CE4FEF6FEFC90154E04B
:10417000880F991F5A95E1F72C960FB6F894DEBF79
:104180000FBECDBFDF91CF911F910F91FF90EF90A8
:10419000DF90CF90BF90AF909F908F907F906F9067
:1041A0005F904F903F902F900C944A1B21E030E09D
:1041B00040E050E060E070E080E090E00E949436E3
:1041C000C090FB04C22AD090FC04D32AE090FD04E6
:1041D000E42AF090FE04F52A0091FF04062B1091CA
:1041E0000005172BB0910105B82BA0910205A92B52
:1041F000C092FB04D092FC04E092FD04F092FE0415
:104200000093FF0410930005B0930105A0930205ED
:1042100039CF21E030E040E050E060E070E080E045
:1042200090E08F01005811090E949436C090030558
:10423000C22AD0900405D32AE0900505E42AF09024
:104240000605F52A00910705062B10910805172B86
:10425000B0910905B82BA0910A05A92BC0920305BE
:10426000D0920405E0920505F0920605009307053B
:1042700010930805B0930905A0930A0503CFE03415
:10428000F10508F06AC02090F3043090F4044090E7
:10429000F5045090F6048090F7049090F804A091F3
:1042A000F904B091FA0421E030E040E050E060E031
:1042B00070E080E090E00E2F0E949436A22EA220A3
:1042C000B32EB320C42EC420D52ED520E62EE82050
:1042D000F72EF9200A2F08231B2F19230E94AD3631
:1042E00009F047CE8F01E03CF10508F090C0E038BE
:1042F000F10508F0E4C0005411090034110508F478
:10430000B3C021E030E040E050E060E070E080E0E9
:1043100090E00E2F0E949436209530954095509550
:1043200060957095809590952221332144215521E7
:10433000682179218A239B232093F3043093F4048A
:104340004093F5045093F6046093F7047093F804D7
:104350008093F9049093FA04BCCDE038F105E0F4C1
:104360002090FB043090FC044090FD045090FE042B
:104370008090FF0490900005A0910105B091020586
:1043800021E030E040E050E060E070E080E090E06C
:104390008F010054110990CFE03CF105E0F420902A
:1043A0000305309004054090050550900605809067
:1043B000070590900805A0910905B0910A0521E034
:1043C00030E040E050E060E070E080E090E08F019D
:1043D0000058110971CF20900B0530900C054090CA
:1043E0000D0550900E0580900F0590901005A0913E
:1043F0001105B091120521E030E040E050E060E0AE
:1044000070E080E090E08F01005C110955CF005C06
:10441000110921E030E040E050E060E070E080E031
:1044200090E00E9494362095309540955095609587
:104430007095809590952221332144215521682142
:1044400079218A239B2320930B0530930C054093FD
:104450000D0550930E0560930F0570931005809322
:1044600011059093120535CD21E030E040E050E099
:1044700060E070E080E090E00E94943620953095F6
:1044800040955095609570958095909522213321A7
:1044900044215521682179218A239B232093FB0401
:1044A0003093FC044093FD045093FE046093FF049A
:1044B0007093000580930105909302050ACD005882
:1044C000110921E030E040E050E060E070E080E081
:1044D00090E00E94943620953095409550956095D7
:1044E0007095809590952221332144215521682192
:1044F00079218A239B23209303053093040540935D
:104500000505509306056093070570930805809391
:10451000090590930A05DDCCEF3FF10509F060F540
:10452000E034F10558F5A090F304B090F404C09085
:10453000F504D090F604E090F704F090F804A09110
:10454000F904B091FA0421E030E040E050E060E08E
:1045500070E080E090E00E2F0E949436A222B322F9
:10456000C422D522E622F722082F0A23192F1B2363
:104570000E94AD3609F4ADCC10E0A0CDE038F105D5
:10458000E0F4A090FB04B090FC04C090FD04D09037
:10459000FE04E090FF04F0900005A0910105B091A9
:1045A00002058F010054110921E030E040E050E0A5
:1045B00060E070E080E090E0CFCFE03CF105A0F457
:1045C000A0900305B0900405C0900505D0900605A5
:1045D000E0900705F0900805A0910905B0910A0543
:1045E0008F0100581109E0CFA0900B05B0900C0589
:1045F000C0900D05D0900E05E0900F05F0901005CD
:10460000A0911105B09112058F01005C1109CCCF6A
:1046100090E0FC01E256FA4FDB015C915183D90135
:104620005C915187518A880F991FFC01E256FA4F1D
:10463000128E118E842F91E084CDF7E08F16FDE568
:104640009F0609F457C008F044C015EF81161CE519
:10465000910609F457C026EF82162CE5920609F45C
:104660007EC032EC83163CE5930609F469C09923B9
:10467000A9F084EE88168CE5980609F4ADC008F020
:1046800097C0A2EE8A16ACE59A0609F4A0C081E0B4
:10469000B3EE8B16BCE59B0609F496C097FE62C18B
:1046A000D30112968C91882309F4EFC080910706FC
:1046B00080931505109207068091C705823009F492
:1046C000CFC008F08DC08111BCC082EE0E948C1753
:1046D0008AC048E084164DE5940609F44AC059E0C2
:1046E00085165DE5950619F6992309F4F2CB8CE061
:1046F00098E044C0992309F4ECCB4FEF60E090E0E0
:1047000080E03ACD992309F4E4CB81E02C960FB6F2
:10471000F894DEBF0FBECDBFDF91CF911F910F91F7
:10472000FF90EF90DF90CF90BF90AF909F908F90D1
:104730007F906F905F904F903F902F900C94671BED
:10474000992309F4C6CB60917D0680917C0690E0A8
:1047500020917E0640E021110FCD4FEF0DCD992322
:1047600009F4B7CB8091140591E089278093140553
:10477000B0CB992309F4ADCB8BE198E02C960FB622
:10478000F894DEBF0FBECDBFDF91CF911F910F9187
:10479000FF90EF90DF90CF90BF90AF909F908F9061
:1047A0007F906F905F904F903F902F900C94241AC1
:1047B000E5EE8E16ECE59E0689F084E0F6EE8F16A7
:1047C000FCE59F0609F06ACF8093C70502C01092EE
:1047D000C7050E94051C62CF82E0F6CF83E0F4CFCC
:1047E000843009F444C0EFE3FCE93197F1F700C0ED
:1047F00000007401E894F7F80CE010E09701002E37
:1048000002C0369527950A94E2F72F7087E290E070
:1048100029F0822F90E02A3078F54D960E94981862
:10482000045011090C3FFFEF1F0741F78091C705A6
:10483000823019F018F581118FC082EE0E94840A2F
:1048400020C089E09AE00E94991688E10E948C17A6
:1048500088E10E94840A87E19AE00E949916C3CFFA
:1048600082EE0E948C1787E50E949818BCCF86EED6
:104870000E94981888E1F8CF0697D0CF843009F4C9
:104880006FC08091150580930706D30112968C9115
:10489000811110921605F0EE8F16FCE59F06E8F4E4
:1048A00002EC80160CE5900608F05DC615E1811655
:1048B0001CE5910608F062C622E082162CE59206FD
:1048C00008F070C281143CE5930609F4A6C041E0EB
:1048D00084164CE5940609F4E2C0D301ED90FC90F7
:1048E000882309F4F8C2C7010E946314182F682FA7
:1048F000C7010E94BB09B701812F0E9427128C01BA
:10490000D82EF301E580E2943FE0E322F280F1103B
:104910001092910580918F05877079F0FF2069F0E2
:1049200080E2800F883048F082E00E9493158091E9
:104930008F058770CC24C3948111C12CB12EB29401
:104940002FE0B222FBE0FB1508F42FC5EB2DF0E0C1
:10495000ED5FF64C0C948E368CE20E94981891CF45
:1049600088E2FBCF01EF80160CE5900609F44DC0FC
:10497000B8F428ED82162CE5920609F442C028E22C
:1049800041E039ED83163CE59306E9F147ED8416E5
:104990004CE5940609F079CF26E241EE61EE16C0AF
:1049A00053EF85165CE59506A1F127E245EE66EE2C
:1049B00084EF88168CE5980649F027E245EE64EE10
:1049C00092EF89169CE5990609F05FCFC3012C96FA
:1049D0000FB6F894DEBF0FBECDBFDF91CF911F9110
:1049E0000F91FF90EF90DF90CF90BF90AF909F908E
:1049F0008F907F906F905F904F903F902F900C948E
:104A0000AB1827E245EE65EEE1CF26E241EE60EE1F
:104A1000DDCF26E241EE62EED9CF882309F459CAF0
:104A2000109207060E94641CBFEFE4E3FCE0B15063
:104A3000E040F040E1F700C00000F89481E080938E
:104A4000E00080E28093D8001092C9008FE19EE4DC
:104A50000197F1F700C000001DBA109268001CBC5D
:104A600010BE1FBA10927A0010926E0010926F0062
:104A700010927100109272001092C9001092BC0046
:104A800014B817B81AB81DB810BA1092BC0015B8EF
:104A900018B81BB81EB811BA0C94003F1ACA882364
:104AA00009F417CA9091F605892F8E7F90FF8160D7
:104AB0008093F6050ECA882309F40BCA2C960FB60C
:104AC000F894DEBF0FBECDBFDF91CF911F910F9144
:104AD000FF90EF90DF90CF90BF90AF909F908F901E
:104AE0007F906F905F904F903F902F900C940B1C95
:104AF000882309F4EEC980917B0691E08927809391
:104B00007B0610920C0100917B0610917C0620918F
:104B10007D0630917E060E831F8328873987C90161
:104B2000B8012C960FB6F894DEBF0FBECDBFDF9153
:104B3000CF911F910F91FF90EF90DF90CF90BF909A
:104B4000AF909F908F907F906F905F904F903F902D
:104B50002F900C94441B882309F4BBC9809107064D
:104B6000827209F12C960FB6F894DEBF0FBECDBF4E
:104B7000DF91CF911F910F91FF90EF90DF90CF9039
:104B8000BF90AF909F908F907F906F905F904F906D
:104B90003F902F900C948A1B882309F49AC9809126
:104BA00007068272F9F22C960FB6F894DEBF0FBE9C
:104BB000CDBFDF91CF911F910F91FF90EF90DF90CC
:104BC000CF90BF90AF909F908F907F906F905F90AD
:104BD0004F903F902F900C94B41B882309F479C90F
:104BE00080917C06885F80937C0620917B063091C3
:104BF0007C0640917D0650917E062E833F83488738
:104C00005987CA01B9018DCF882309F462C98091FF
:104C10007C06885080937C0680917B0690917C0670
:104C2000A0917D06B0917E068E839F83A887B98769
:104C3000BC01CD0176CF882309F44BC920917D06B4
:104C400030E1230F08F42FEF20937D065CCF8823FB
:104C500009F43FC920917D0630E1231B08F420E0D0
:104C600020937D06C2CF882309F433C920917E06A4
:104C700030E1230F08F42FEF20937E06CDCF882359
:104C800009F427C920917E0630E1231B08F420E0B7
:104C900020937E0638CF882309F41BC920917F0614
:104CA00030E1230F08F42FEF20937F069ECF882357
:104CB00009F40FC920917F0630E1231B08F420E09E
:104CC00020937F06A9CF882309F403C91ECD88232A
:104CD00009F4FFC880917B0686958695825C8F7368
:104CE000833008F460CF82E011CD882309F4F1C845
:104CF00080917B0686958695865C8F73823008F45A
:104D000052CF86E003CD882309F4E3C880917B0667
:104D100086958695895C8F73853008F444CF89E049
:104D2000F5CC882309F4D5C880917B0686958695B5
:104D30008F5C8F73853008F436CF8FE0E7CC882303
:104D400009F4C7C880917B0686958695855D8F732B
:104D5000823008F428CF85E1D9CC882309F4B9C87A
:104D600088E1D4CC882309F4B4C880917B06869569
:104D70008695895D8F73893008F415CF89E1C6CC9B
:104D8000882309F4A6C883E2C1CC882309F4A1C80A
:104D9000109205069EC8882309F49BC882E0809380
:104DA000050697C8882309F498CD0E94391B811104
:104DB00002C00E940B1C84E090E00E94453890E005
:104DC0009093DA058093D905F401E350FC45809176
:104DD000D9058160E231F10538F4E15FF64C0C94BD
:104DE0008E368091D90582608093D9056091D9056E
:104DF00084E090E00E945938109207062C960FB676
:104E0000F894DEBF0FBECDBFDF91CF911F910F9100
:104E1000FF90EF90DF90CF90BF90AF909F908F90DA
:104E20007F906F905F904F903F902F900C94641CF8
:104E30008091D9058460D8CF8091D9058860D4CF7E
:104E40008091D9058061D0CF8091D9058062CCCF87
:104E50008091D9058064C8CF8091D9058068C4CF7E
:104E60008091D9058C60C0CF8091D9058E7FBCCF51
:104E70008091D9058D7FB8CF8091D9058B7FB4CF34
:104E80008091D905877FB0CF8091D9058F7EACCF37
:104E90008091D9058F7DA8CF8091D9058F7BA4CF34
:104EA0008091D9058F77A0CF8091D905837F9CCF42
:104EB0009091D905892F97FB87F9805895CF85E385
:104EC00071C380911705811104C089E20E943009E5
:104ED0006BC385E3FBCFC7010E949109182F0BCD4F
:104EE000212F2F70E22E107F19F0E29490EFE9222B
:104EF000802FFF20C9F0EE2069F090E2900F9830EB
:104F000010F001110BC080910706E82AE092070615
:104F10000E94EB08802F0E948C1717C0809191058A
:104F2000E82AE0929105F4CF0E94840AEE2069F00D
:104F3000E094005E083010F0D1103AC0809107066E
:104F4000E822E09207060E94EB08CC2011F40C94B2
:104F5000691F80918F0580FF02C00C94691FF301C7
:104F600012828595859585950E94AB15C3010E9497
:104F70003E1F80918F058595859585952C960FB65A
:104F8000F894DEBF0FBECDBFDF91CF911F910F917F
:104F9000FF90EF90DF90CF90BF90AF909F908F9059
:104FA0007F906F905F904F903F902F900C945E1584
:104FB00080919105E822E0929105C5CF312F3F7095
:104FC000B32E107F103219F0B29480EFB822DD209A
:104FD00041F041E0D41631F1FF2079F1EE2041F1AA
:104FE00099CFFF2091F0909192058B2D892BE110A4
:104FF00003C00E94FF09A9CF51E0E512FACF89173B
:1050000009F4A3CF80939205A0CFE11006C00E94BF
:10501000E5088B2D0E94F40998CF81E0E81609F489
:1050200094CFF5CFFF2031F091E09E1508F48DCF9D
:105030008B2DDFCFE11089CFECCFEE2051F3802F05
:105040000E94840A82CF812F86958695837049F0CD
:10505000813081F086E08B0D8F70823008F4A7C01C
:1050600074CFC8019370F11002C090E080E00E94FC
:105070003D0A6BCFC8019370F11002C090E080E050
:105080000E94270A62CFFF2009F1053F99F0063FF1
:10509000B9F0043F49F48091180590911905816099
:1050A0009093190580931805802F0E9453070E9442
:1050B00084084BCF80911805909119058260F0CF3C
:1050C00080911805909119058460EACF053F89F019
:1050D000063FA9F0043F49F4809118059091190505
:1050E0008E7F9093190580931805802F0E948E065D
:1050F000DECF80911805909119058D7FF2CF8091B8
:105100001805909119058B7FECCF812F837009F0E2
:1051100086C0F1104CC0802F829586958770880FCD
:10512000880F402F4F70842E912CB12CA12C082E6B
:1051300004C0880C991CAA1CBB1C0A94D2F740E03E
:1051400050E0BA0104FF0FC04FE050E060E070E0B3
:1051500004C0440F551F661F771F8A95D2F74095EC
:10516000509560957095812F8695869583700091F6
:105170009305109194052091950530919605823004
:1051800051F1833099F18130A9F0482959296A29D0
:105190007B29DB01CA0180239123A223B3238E83C1
:1051A0009F83A887B987BC01CD010E946E0A0E9427
:1051B000780ACBCE802A912AA22AB32A95018401AB
:1051C000042B152B262B372B0E831F83288739871B
:1051D000C901B801EACF482959296A297B29DB018D
:1051E000CA0180279127A227B327D9CFD901C801A7
:1051F00084239523A623B723BC01CD010E946E0A08
:105200008091930590919405A0919505B091960594
:1052100095018401082B192B2A2B3B2BD5CF869582
:10522000FF2011F0812F8170882309F2802F829551
:1052300086958770880F880F402F4F70842E912C91
:10524000B12CA12C082E04C0880C991CAA1CBB1CD4
:105250000A94D2F740E050E0BA0104FF0FC04FE0DB
:1052600050E060E070E004C0440F551F661F771FD8
:105270008A95D2F74095509560957095812F8695C7
:105280008695837000918B0510918C0520918D057A
:1052900030918E05823041F1833089F1813099F06F
:1052A000482959296A297B29DB01CA0180239123D6
:1052B000A223B3238E839F83A887B987BC01CD0126
:1052C0000E94211574CF802A912AA22AB32A95011F
:1052D0008401042B152B262B372B0E831F83288745
:1052E0003987C901B801ECCF482959296A297B2996
:1052F000DB01CA0180279127A227B327DBCFD90181
:10530000C80184239523A623B723BC01CD010E94A5
:10531000211580918B0590918C05A0918D05B09100
:105320008E0595018401082B192B2A2B3B2BD5CFF9
:10533000802F22EFD21609F474C02D15A8F030EF9B
:10534000D316E9F141EFD41609F464C090E2900F4E
:10535000903108F1FF2009F493C0EE2009F48DC0CC
:10536000802F0E948C1721C053EFD51609F460C01E
:1053700094EFD912EFCFFF2009F474C01F71812F71
:105380000E94AB1538E0139FC00111248360809305
:105390008F05812F43C00F70812F8F71FF2049F03F
:1053A0000E94AB15802F0E94FF09B8E0BB1252CEBD
:1053B000FECE0E945E15802F0E94F409F6CFFF20DA
:1053C00029F1E110F2CF1F7181E090E0A0E0B0E0A0
:1053D00004C0880F991FAA1FBB1F1A95D2F74091CE
:1053E0008B0550918C0560918D0570918E058C0117
:1053F0009D0104271527262737270E831F8328871B
:105400003987C901B8010E942115CFCF21E02E159F
:1054100060F2D9CF812F8F71FF2039F00E94AB1538
:10542000C4CF812F8F71FF20C9F30E945E15BDCFBD
:1054300060E070E0CB01FF2031F31F7181E090E06C
:10544000A0E0B0E09C01AD0104C0220F331F441F57
:10545000551F1A95D2F72E833F8348875987CA0173
:10546000B901D1CF81E00E94931541E04E1508F0BB
:105470009CCF82E00E94931598CF812F8F71CECF61
:10548000EE2079F0893349F45FEF83EC99E05150D5
:1054900080409040E1F700C00000802F0E94840A05
:1054A00084CF812F8F71C1CFA3EFDA16D1F1AD1563
:1054B00020F1B1EFDB1609F43EC0E2EFDE1699F100
:1054C000F0EFDF1621F180911A05EE2009F43FC0BC
:1054D000882341F080911B0591E0892780931B056B
:1054E00010921A05802FF11016CD0E94840A86E0D2
:1054F000D3011D928A95E9F728CD14EFD116B1F0AA
:1055000025EFD212E0CFF11020CD81E007C0FF20BF
:1055100009F41BCD80911B0591E0892780931B0521
:1055200014CD81E0F826F0921B050FCDF1100DCDC2
:1055300010921B050ACDFF2039F080911A058823AF
:1055400049F310921A0501CDEE2021F3FECC8823F9
:1055500009F4FBCCF110F9CC80911B0591E089276F
:1055600080931B05EECFF401E25CFC45EE31F105C2
:1055700008F0B3C9EF5DF64C0C948E3656E18516F3
:105580005CE5950609F0A9C9882309F49ACC8091B5
:1055900007068A7A91E009F490E09093170581114B
:1055A0008ECC89E20E945D092C960FB6F894DEBF7E
:1055B0000FBECDBFDF91CF911F910F91FF90EF9064
:1055C000DF90CF90BF90AF909F908F907F906F9023
:1055D0005F904F903F902F900C94EB0885E0F30183
:1055E000DE01119601900D928A95E1F7F301228177
:1055F00089819A8121110C94821F0E949109082FA0
:105600000C948A1F1F93CF93DF9380912105807F95
:10561000C1F480911E058823A1F080915305C091AB
:10562000220560911C0570911D0540911F05509148
:105630002005D62FD723DA01A095B09516E0C81320
:1056400004C0DF91CF911F91089590E0411551055D
:1056500011F0DF3F31F401968770F1CF2A0F3B1F25
:1056600017C0189FF001199FF00D1124ED5DFA4F3E
:1056700021812713F0CF20812613EDCF2281211124
:10568000EACF238134812417350740F3241B350BDF
:10569000283C310500F7209121052F7020612093CF
:1056A000210526E0289FF001299FF00D1124E85DD7
:1056B000FA4F80818F70806180838CE195E00E9439
:1056C0003E1FDF91CF911F910C94EA099F92AF92F8
:1056D000BF92CF92DF92EF92FF920F931F93CF93DF
:1056E000DF93CDB7DEB72B970FB6F894DEBF0FBEB2
:1056F000CDBF8C0185E0F801DE01179601900D9277
:105700008A95E1F7D8012C9111963C911197129648
:10571000EC90129780911F0590912005009709F455
:105720004EC140911C0550911D05652F64236F3FAC
:1057300009F445C11396CD90DC9090901E059920F8
:1057400009F4ECC0C816D906E8F1F601E81BF90B1C
:10575000CF01FF24F394883C910508F0F12C8CE1F3
:10576000A82E85E0B82E80912105982F907FFF20EC
:1057700009F4B5C091117EC0FE2C531328C042130A
:1057800026C0E11024C08F70806180932105C5017F
:105790000E943E1F80912105D80115968C938F2D74
:1057A0002B960FB6F894DEBF0FBECDBFDF91CF9121
:1057B0001F910F91FF90EF90DF90CF90BF90AF902F
:1057C0009F900895809590958C0D9D1DC2CFCD28FA
:1057D00029F0822F83238F3F09F01BC180E0B82F6F
:1057E000B170DB2EE09153054091220556E080FD1B
:1057F0001CC0EE20A1F280912105816080932105DB
:10580000F12CCDCF8E2F90E05E9FF0011124ED5D45
:10581000FA4F6181361306C06081261303C062818E
:105820006E11E7CFFC013196E770E413EBCF2F83C5
:1058300038878F8198850E94A514292F22952F7073
:10584000903260F0225F2F70223078F49F7051F018
:10585000F8019581907F31F4D12C0AC09F7011F02E
:105860008823D1F3805E8830B8F3C8010E943E1FC0
:10587000FD2C95CF531306C0421304C0D801EE206F
:1058800009F47EC02F8338878F8198850E94B114D8
:10589000882309F1EE20F9F080912105803270F023
:1058A00020911C0530911D053A8329831B82DD82DE
:1058B000CC828E83CE0101960E943E1F86E0F801C5
:1058C000ACE1B5E001900D928A95E1F70E94022BC0
:1058D000FF24F39464CFC8010E943E1FF9CF9111B9
:1058E0000AC08CE195E00E943E1F86E0F50111920E
:1058F0008A95E9F754CF5313C5CF4213C3CFE110B4
:10590000C1CFD80115968C93C8010E943E1F86E036
:10591000F50111928A95E9F7F92C41CFC816D906FD
:1059200078F0C81AD90AF8ECCF16D10480F0F12C1F
:1059300086E0ECE1F5E0DF011D928A95E9F72FCFD3
:10594000809590958C0D9D1D883C910580F7FE2CCF
:10595000EE2009F2531322C0421320C0809121058A
:1059600080FD13C0982F907F81F0D80115968C93FD
:105970001597903F39F0982F907F905F8F70892B0B
:1059800015968C93C8010E943E1F86E0F801ACE199
:10599000B5E001900D928A95E1F701CF2F8338870A
:1059A0008F8198850E94B114811188CF8091210543
:1059B000816080932105C8010E943E1FF0CEEE2039
:1059C00009F489CF2F8338878F8198850E94B1147D
:1059D000F82E882309F47FCF86E0F801ACE1B5E02A
:1059E00001900D928A95E1F780911C0590911D051B
:1059F0000E94A51492959F70963041F480911B05EA
:105A000091E0892780931B0590931A050E94022B31
:105A1000C6CE81E08E25E3CE0F931F93CF93DF9305
:105A2000CDB7DEB767970FB6F894DEBF0FBECDBF18
:105A30004B8B5C8B6D8B7E8B8F8B0E891F89011539
:105A4000110509F486C0842F85238F3F09F05DC0BE
:105A50005FEF4FEF7EC0809528232C937AC086E0BD
:105A6000FE013796DE01119601900D928A95E1F7BD
:105A70008A859B85892B09F482C088859F8189232B
:105A80008F3F09F47CC02091220530E0C9010196C6
:105A900087709927409153054817190681F4109291
:105AA00007060E94641C109222051092530586E09E
:105AB000ECE1F5E0DF011D928A95E9F760C096E020
:105AC000929FD001939FB00D1124AD5DBA4FFE019E
:105AD000319601900D929A95E1F7809322050E94EC
