:100000000C940A040C9427040C9427040C942704E1
:100010000C9427040C9427040C9427040C942704B4
:100020000C9427040C9427040C943D2B0C94F92A6F
:100030000C949B2E0C9427040C9427040C942704F6
:100040000C9427040C9427040C9427040C94270484
:100050000C9427040C94772E0C9427040C942704FA
:100060000C9427040C9427040C9427040C94270464
:100070000C9427040C9427040C9427040C94270454
:100080000C9427040C9427040C9427040C94270444
:100090000C9427040C9427040C9427040C94270434
:1000A0000C9427040C9427040C94270400000000EF
:1000B0000000000000000000000000000000000040
:1000C0000000000000000000000000000000000030
:1000D0000000000000000000000000000000000020
:1000E0000000000000000000000000000000000010
:1000F0000000000000000000000000000000000000
:1001000000000000000000000000000000000000EF
:1001100000000000000000000000000000000000DF
:1001200000000000000000000000000000000000CF
:1001300000000000000000000000000000000000BF
:1001400000000000000000000000000000000000AF
:10015000000000000000000000000000000000009F
:10016000000000000000000000000000000000008F
:10017000000000000000000000000000000000007F
:100180000000000030FFFF20FFFF10FFFF00FFFF17
:1001900000000070FFFF60FFFF50FFFF40DAFF002C
:1001A0000000B0FFFFA0FFFF90FFFF80FFFF0000F7
:1001B00000F0FFFFE0FFFFD0FFFFC0FFFF000000E7
:1001C0000000000000FF0000000000000000000030
:1001D000000000000000000000000056FFFF56FF76
:1001E000FF56FFFF56FFFF56FFFF56FFFF56FFFF6C
:1001F00056FFFF56FFFF56FFFF56FFFF56FFFF5605
:10020000FFFF56FFFF56FFFF000000000000000048
:1002100000000000000000000000000000000000DE
:1002200000000056FFFF56FFFF56FFFF56FFFF5628
:10023000FFFF56FFFF56FFFF56FFFF56FFFF56FF1B
:10024000FF56FFFF56FFFF56FFFF56FFFF56FFFF0B
:10025000000000000000000000000000ACFFFFAC48
:10026000FFFFACFFFFACFFFFACFFFF000000000092
:1002700000000000ACFFFFACFFFF0000000000002A
:10028000000000000000000000000000ACFFFFAC18
:10029000FFFFACFFFF000000ACFFFFACFFFFACFFB7
:1002A000FF000000ACFFFFACFFFFACFFFFACFFFFA7
:1002B000ACFFFF000000ACFFFF00000000000000EA
:1002C000000000000000000000000000000000002E
:1002D000000000000000000000000000000000001E
:1002E000000000000000000000000000000000000E
:1002F00000000000000001010101010101010102F3
:1003000002020202020202030303030303030404C2
:100310000404040505050505060606060607070785
:1003200007080808080909090A0A0A0B0B0B0C0C34
:100330000C0D0D0D0E0E0E0F0F10101011111212CC
:1003400013131414151516161717181819191A1A45
:100350001B1C1C1D1D1E1F1F2021212223232425A1
:100360002526272828292A2B2C2C2D2E2F303131D9
:1003700032333435363738393A3B3C3D3E3F4041E5
:1003800042434445464748494B4C4D4E4F505253CB
:1003900054555758595A5C5D5E606163646567687F
:1003A0006A6B6C6E6F7172747677797A7C7D7F81FF
:1003B00082848687898B8D8E9092949597999B9D48
:1003C0009FA1A2A4A6A8AAACAEB0B2B4B6B9BBBD58
:1003D000BFC1C3C5C8CACCCED0D3D5D7DADCDEE125
:1003E000E3E6E8EAEDEFF2F4F7F9FCFF29002B0071
:1003F00039000255E00000001E0034000400330004
:10040000E30003581F00360012001400E2002A0027
:100410002000370008000D0035162C0021001300C5
:1004200018000E001455015822001C000C001B007F
:10043000000006014C004B0000004E0000001901B6
:100440003500520000005100000050002300090058
:100450000700050000004F0024000A000B001000F8
:10046000380002582500060017001A002F002C0043
:10047000260015001100190030002A0027000F0087
:1004800016001D002E0003582A00310028001255C6
:100490002D000000C45CC65CC85CCA5C01000000A2
:1004A000C35CC55CC75CC95C01000100F75CFB5C18
:1004B000FF5C035D01000100F85CFC5C005D045D15
:1004C000075D0100F95CFD5C015D055D0100010057
:1004D000FA5CFE5C025D065D00000100C25CF45C3B
:1004E0000000010000000100010001000000010007
:1004F00000000100010001000100010000000100F6
:1005000001000100010001000100010001000100E3
:1005100001000100010001000100010001000100D3
:1005200001000100010001000100010001000100C3
:1005300001000100010001000100000001000100B4
:1005400001000100010000000100140004001D0072
:100550000100010001001A0016001B00010001004B
:10056000010008000700060001000100010015005D
:100570000900190001000100010017000A00050030
:100580000000010001000100000001000000010066
:1005900001000100000001000000010001001C003A
:1005A0000B00110000000100010018000D001000F8
:1005B0000100010001000C000E00360001000100E6
:1005C000010012000F0037000100010001001300BC
:1005D00033003400010001000100010001000100AE
:1005E000010000003D0401000100010001000000C5
:1005F0003A00010001000100010001003B00010080
:1006000001000100010001003C00010001000100A7
:10061000010001003D004600010001000100010051
:100620003F0001000100010000000100490001003D
:10063000000001000000010001004B0000004E001E
:1006400000004A003F0001000100010000004D00D1
:100650004000010001004A0050000100410001007B
:1006600001005200510001004200010001004D0054
:100670004F000100430001000100010001000100E2
:100680004400450001000100E400000005010902EA
:10069000A10185020901A10005091901290515001B
:1006A00025019505750181029501750381010501FB
:1006B000093009311581257F9502750881060938B1
:1006C0001581257F950175088106050C0A380215EC
:1006D00081257F950175088106C0C005010980A1AB
:1006E0000185031601002603001A81002A83007584
:1006F0001095018100C0050C0901A10185041601B6
:1007000000269C021A01002A9C02751095018100A6
:10071000C005010906A1018505050719E029E715AE
:100720000025019508750181020508190129059523
:1007300005750191029501750391010507190029BD
:10074000EF1500250195F075018102C0050109062C
:10075000A101050719E029E7150025019508750194
:100760008102950175088101050819012905950582
:10077000750191029501750391010507190029FF83
:10078000150026FF00950675088100C009023B0090
:10079000020100A0FA09040000010301010009217F
:1007A000110100012240000705810308000A090425
:1007B0000100010300000009211101000122C00015
:1007C0000705820320000A1201100100000008ED55
:1007D000FE071301000102030104033000000016AC
:1007E000034500720067006F0044006F007800202E
:1007F0000045005A00000016034500720067006FB4
:100800000044006F007800200045005A00000004FA
:100810000309040011241FBECFEFDAE0DEBFCDBF15
:1008200026E0A2E7B3E001C01D92A131B207E1F7D3
:1008300013E0A0E0B1E0ECE0F3E602C005900D9219
:10084000A237B107D9F70E94192C0C9421310C94CE
:100850000000E8EDF0E080818E7F80831092E2005E
:100860001092DA001092E100A0EEB0E08C9181606D
:100870008C9380818F77808319BCA7EDB0E08C9139
:100880008E7F8C9380818F7E80831092BC0508952B
:100890002091E4003091E50095E6A9012091EC005B
:1008A000822F817020FF06C08091E80080FF06C083
:1008B00080E008952091E80022FD1AC08091E205B1
:1008C000882389F0853089F08091EB0085FD0FC089
:1008D0002091E4003091E50042175307F9F291505E
:1008E000E1F684E0089582E0089583E0089581E0D0
:1008F0000895EF92FF920F931F93CF937C018B018A
:100900000E944804C82F811117C08091E80085FD1E
:100910000BC08091E8008E778093E8000E94480425
:10092000882399F3C82F08C0F70181917F01809334
:10093000F1000150110949F78C2FCF911F910F91B0
:10094000FF90EF9008958091E40587FF13C0809198
:10095000E80082FF06C08091E8008B778093E80072
:1009600004C08091E2058111F2CF08958091E205E3
:100970008823D9F38091E80080FFF8CF8091E800C8
:100980008E77ECCF982F9093E900242F762F50E0AC
:10099000891731F07091EC002091ED005091F0003A
:1009A00021FD07C09F5F973071F78093E90081E0D8
:1009B00008953091EB003E7F3093EB003091ED00D5
:1009C0003D7F3093ED003091EB0031603093EB00D0
:1009D0007093EC002093ED005093F0002091EE0016
:1009E00027FDE0CF80E00895CF92DF92EF92FF9253
:1009F0000F931F93CF93DF93C8EDD0E088818F7E54
:100A00008883E7EDF0E080818160808384E082BFAD
:100A100081E08093BC0588818E7F888302EE10E0A0
:100A2000F80110821092DA0081EEC82ED12CF60166
:100A3000108288818F778883888180688883888105
:100A40008F7D888319BC1092E2051092E305109205
:100A5000E1051092E00590EEE92EF12CF70180817E
:100A60008B7F808388818160888342E060E080E0C2
:100A70000E94C204F60180818E7F8083F80180810C
:100A800081608083808188608083F70180818E7F90
:100A90008083888180618883DF91CF911F910F913E
:100AA000FF90EF90DF90CF900895FC01CB01209153
:100AB000EA053091EB052617370790F0009729F4E7
:100AC0002091E8002E772093E80040E0009751F451
:100AD000411108C08091E80082FF31C080E0089594
:100AE000C901F3CF2091E2052223A9F12530A9F114
:100AF0002091E80023FD2DC02091E80022FDEACFDF
:100B00002091E80020FFE2CF3091F3002091F20025
:100B1000009719F02830310558F041E028303105B0
:100B200009F040E02091E8002E772093E800CECF36
:100B300041914093F10001972F5F3F4FE9CF8091A2
:100B4000E205882341F0853041F08091E80083FF81
:100B5000C1CF81E0089582E0089583E008958091F7
:100B6000BB05811107C08091E205843011F482E059
:100B7000089581E008958091BF0508959091A4059E
:100B8000803F41F48091A50587FD1092A50599232A
:100B900071F00895813F29F48091A5051816ACF3F2
:100BA000F6CF823F81F497FFF2CF1092A405809197
:100BB000A5059091A605892B9091A705892B49F74A
:100BC0001092A8050895833F19F4191674F3DFCF26
:100BD000893F39F48091A6051816CCF61092A60527
:100BE000D6CF8A3F29F48091A60587FFD0CFF6CFD4
:100BF0008B3F39F48091A70587FFC9CF1092A705D5
:100C0000C6CF8C3F29F48091A7051816BCF3BFCF3F
:100C1000843F31F48091A3058E7F8093A305B7CFE5
:100C2000853F21F48091A3058D7FF7CF863F21F486
:100C30008091A3058B7FF1CF873F21F48091A3059D
:100C4000877FEBCF883F21F48091A3058F7EE5CF8E
:100C50008D3F31F480917A058E7F80937A0597CF0E
:100C60008E3F21F480917A058D7FF7CF8F3F09F079
:100C70008ECF80917A058B7FF0CF80917A0580FDB1
:100C800016C081FD16C082FD16C08091A80588237C
:100C9000A1F0883280F428E0829FC001112468E22C
:100CA00070E00E94D62E862F672B39F0089582E0DF
:100CB000089584E0089588E0089581E00895809182
:100CC0007A0580FD16C081FD16C082FD18C0809196
:100CD000A805882391F08C3390F423E2829FC00111
:100CE00011246CE370E00E94D62E862F672B49F00A
:100CF000089588E0089581E1089585E0089583E2EC
:100D0000089581E00895803F31F40E945F06819547
:100D10008093A5050895813F19F40E945F06F8CFDE
:100D2000823F31F40E945F0681958093A405089567
:100D3000833F19F40E945F06F8CF893F29F40E948F
:100D40003D068093A60508958A3F21F40E943D0642
:100D50008195F7CF8B3F31F40E943D0681958093BA
:100D6000A70508958C3F19F40E943D06F8CF843FF3
:100D700031F48091A30581608093A3050895853F98
:100D800021F48091A3058260F7CF863F21F4809102
:100D9000A3058460F1CF873F21F48091A30588608B
:100DA000EBCF883F21F48091A3058061E5CF8D3F93
:100DB00031F480917A05816080937A0508958E3FA1
:100DC00021F480917A058260F7CF8F3FB9F7809147
:100DD0007A058460F1CFCF92DF92EF92FF929C016F
:100DE0004FB7F8948091760590917705A09178059A
:100DF000B09179054FBF6C017D01EE24FF24A9015C
:100E000070E060E0C416D506E606F70638F0821BEF
:100E1000930BFF90EF90DF90CF9008950197F7CF5D
:100E20002FB7F8948091760590917705A091780579
:100E3000B09179052FBF0895CF93DF938093BB00C6
:100E400084E88093BC000E941007EC018091BC00F4
:100E500087FF0FC02091B900287F81E090E0283201
:100E600011F490E080E0919581959109DF91CF9107
:100E700008950E9410078C1B9D0B8436910530F35A
:100E80008EEF9FEFF3CF0F931F93CF93DF93C82F76
:100E90001092BC0084EA8093BC000E9410078C0171
:100EA0008091BC0087FF27C08091B900887F88307F
:100EB00029F08091B900887F803199F5C093BB00FB
:100EC00084E88093BC000E941007EC018091BC0074
:100ED00087FF1FC02091B900287F90E080E0283173
:100EE00099F081E090E0203411F490E080E0919559
:100EF0008195910909C00E941007801B910B8436CF
:100F0000910570F28EEF9FEFDF91CF911F910F91BE
:100F100008950E9410078C1B9D0B84369105B0F23A
:100F2000F1CF8FEF9FEFF0CF0F931F93CF93DF930E
:100F3000EB010E9443079C010CEE15E0C451DA4F0F
:100F400037FD09C0F80181918F010E941C079C01A7
:100F5000C017D107A9F784E98093BC00C901DF91CC
:100F6000CF911F910F910895E0919105F091920515
:100F7000309749F082E08093A2050480F581E02D4E
:100F800082EA95E009950E9410079093AA05809344
:100F9000A90508950F931F93462F572FBC01CB012E
:100FA000AA27BB270097A105B105E9F1AC01BD0156
:100FB00080E1052F162F272F332701151105210555
:100FC000310519F0885FB901A8018A019B01F4E09D
:100FD0003695279517950795FA95D1F701151105BF
:100FE0002105310519F08C5FB901A8018A019B0127
:100FF000E2E03695279517950795EA95D1F7011503
:1010000011052105310519F08E5FB901A80176950A
:10101000679557954795452B462B472B09F08F5FD2
:101020001F910F91089580E0C4CF809171058111C7
:101030001092710508958091BD0590917005892BDE
:1010400090916F05892B809372039091710599237C
:10105000A1F0892B8093720380911901882341F1BB
:1010600080918F0587FF24C08EE1E4E7F3E090E0F4
:10107000815000F591110E941508E0919105F091C1
:1010800092053097E1F080911901882359F0809101
:101090008F0587FF07C0809172038093730385E0FB
:1010A000809372030280F381E02D82E793E009943C
:1010B00086E0DBCF21912223D9F29F5FD9CF08951B
:1010C000909119019923E1F090918F0597FF18C035
:1010D000E82FE695E695E695803FF0F4F0E0EE58CF
:1010E000FC4F877021E030E0A90102C0440F551F7A
:1010F0008A95E2F7CA0180959281892382830895B7
:10110000E4E7F3E09191891303C0DF0111971C928A
:1011100053E0EA37F507B1F7089590911901992343
:10112000C1F090918F0597FF14C0E82FE695E695E2
:10113000E695803FF8F4F0E0EE58FC4F877021E030
:1011400030E001C0220F8A95EAF78281822B8283E8
:101150000895A4E7B3E0EFEF90E02D91821751F0EE
:10116000EF3F19F4211101C0E92F9F5F9630A9F7D5
:10117000EF3F09F408950E2E000CFF0BEE58FC4FC4
:10118000E6CF292F220FE22FE90FEE0FE80F9E2F57
:101190009770E695E695E69585E0E89FF0011124C5
:1011A000ED5CFA4F50E040E080E0219130E0092E04
:1011B00002C0369527950A94E2F721703327042E52
:1011C00001C0220F0A94EAF7822B4F5F5F4F453030
:1011D000510559F70895292F220FE22FE90FEE0F3D
:1011E000E80F8E2F877041E001C0440F8A95EAF71F
:1011F000E695E695E69585E0E89FF0011124ED5C23
:10120000FA4F30E020E070E05191DF011197CB01FF
:10121000022E02C0969587950A94E2F78170819517
:101220008527842385278C932F5F3F4F25303105F9
:1012300059F708958091320590910105981301C0E6
:1012400008958F5F8770FACF882341F08095909141
:10125000BD0589238093BD050C941B080895882340
:1012600039F09091BD05892B8093BD050C941B0826
:101270000895877021E030E001C0220F8A95EAF7D7
:1012800080917005822B809370050C941B08282F89
:10129000277081E090E001C0880F2A95EAF78095D9
:1012A000909170058923809370050C941B08209100
:1012B000E3043091E4042817390771F09093E404B3
:1012C0008093E304E0919105F0919205309721F02D
:1012D0000084F185E02D099408952091E104309176
:1012E000E2042817390771F09093E2048093E10437
:1012F000E0919105F0919205309721F00680F781F9
:10130000E02D099408951092700510926F050E94C7
:101310001B0886E0E2EAF5E0DF011D928A95E9F715
:101320001092A80510927A050E94B40790E080E020
:101330000E946D0990E080E00C945709609372055B
:101340007093730580937405909375050C948309CD
:10135000E0919105F0919205309721F00190F08194
:10136000E02D099480E00895882309F459C082385B
:1013700071F40E94A80981FF53C089E30E948D087F
:101380000E941B0889E30E9460080C941B088338A4
:1013900059F40E94A80980FF43C083E50E948D088C
:1013A0000E941B0883E5EFCF843859F40E94A809F6
:1013B00082FF36C087E40E948D080E941B0887E4E4
:1013C000E2CF9CEF980F913AF0F290E2980F9830AC
:1013D00088F4877021E030E0A90102C0440F551F56
:1013E0008A95E2F7CA0180959091BD058923809383
:1013F000BD05CBCF9BE5980F933020F490E080E0C3
:101400000C946D0998E5980F973120F490E080E0F6
:101410000C945709803F20F00E94BE050C94B4073D
:101420000895FC01C09718F5EE0FFF1FEE0FFF1F88
:10143000EB5DFE4F5281338180818370E18170E9E1
:10144000879FC001112481549C4FE80FF92FF11D93
:10145000B4976083FC01E50FF11DB4974083830FBF
:10146000911DFC01B497208381E08093BE03089511
:10147000EF92FF921F93CF93DF937B01182F110FF1
:10148000D0E0C0E08C2F8C5D8093EC05D701AC0FD1
:10149000BD1FEDEEF5E08D91819385E0ED3FF807FE
:1014A000D1F761E170E0812F0E9494076096C03906
:1014B000D10541F7DF91CF911F91FF90EF900895F3
:1014C000ECEEF5E06083418362E070E0880F0C94FD
:1014D00094078091BE03882351F06FEB73E084E79B
:1014E0000E94380A6FE474E087E70E94380A10927D
:1014F000BE0308950C94110A0F931F93DC0130E092
:10150000F901EE0FFF1FEF51FD4F9081905797FDAE
:101510009195220F331FF901EE51FD4F00810052CA
:10152000110B40039001419F300D112448E350E01E
:10153000491B510997FD53956403C001659F900DA8
:101540001124280F391FC901880F991F820F931F7B
:1015500097FF02C081589F4F880F892F881F990BD2
:1015600090910906890F8C931F910F9108950F9305
:101570001F93DC0130E0F901EE0FFF1FEE51FD4F2C
:1015800000810052110B4003C001419F900D1124B6
:10159000220F331FF901EF51FD4F20812057330BEC
:1015A0006203A001639F500D1124840F951F97FDC6
:1015B000CF9626E0959587952A95E1F790910906B3
:1015C000890F8C931F910F9108950F931F93DC0146
:1015D00030E0F901EE0FFF1FEE51FD4F0081005288
:1015E000110B4003C001419F900D1124220F331FA6
:1015F000F901EF51FD4F20812057330B6203A00109
:10160000639F500D1124840F951F97FF02C08158CE
:101610009F4F880F892F881F990B90910906890F7A
:101620008C931F910F9108950F9343E0249F900195
:10163000112435952795200FFC0120830F910895E3
:10164000DC0170E0FB01EE0FFF1FEE51FD4F8081CA
:10165000805287FD819590910906941B660F771F34
:10166000FB01EF51FD4F2081920F890F8C9308955C
:10167000DC01E62FF0E0EE0FFF1FEE51FD4F9081F1
:10168000941B9C930895DC01E62FF0E0EE0FFF1F02
:10169000EF51FD4F9081941B9C930895FC01408372
:1016A0000895FC01A62FB0E0AA0FBB1FAF51BD4F9C
:1016B0008C91282F34EE239F212D112480910B062D
:1016C000682F70E0822F90E04C96841B910997FF61
:1016D00003C091958195910923E0880F991F2A9560
:1016E000E1F7681B790B77FD60E062830895FC01E8
:1016F000A62FB0E0AA0FBB1FAF51BD4F8C91282F72
:1017000034EE239F212D112480910A06682F70E06A
:10171000822F90E04C96841B910997FF03C091950E
:101720008195910923E0880F991F2A95E1F7681B9D
:10173000790B77FD60E061830895FC019B010097C0
:1017400029F480E077FF2BC080E80895AC0197FF73
:1017500004C044275527481B590BB901640F751F56
:1017600037FD10C0241B350BC901A5E0880F991F58
:10177000AA95E1F70E94D62E80E2861BF7FF0FC0E4
:1017800081950895CB0165E0880F991F6A95E1F76F
:10179000BA01621B730B0E94D62E80E6EECF08952D
:1017A000EF92FF920F93CF937C01CA01C22FC01B0F
:1017B0000E949D0BC81BF701C083CF910F91FF9032
:1017C000EF9008951F93CF93DF93EC01CA01122F7E
:1017D0000E949D0B810F8883DF91CF911F91089507
:1017E000EF92FF920F93CF937C01CA01201BC0910F
:1017F0000B06C20F0E949D0BC81BF701C283CF913D
:101800000F91FF90EF900895EF92FF920F93CF9377
:101810007C01CA01201BC0910A06C20F0E949D0BC9
:10182000C81BF701C183CF910F91FF90EF900895EE
:101830001F93CF93DF93EC01CA0110910B06121B8B
:101840000E949D0B982F990F990F891B810F8A83F6
:10185000DF91CF911F9108951F93CF93DF93EC01F8
:10186000CA0110910A06121B0E949D0B982F990F16
:10187000990F891B810F8983DF91CF911F91089563
:10188000982FE82F96FDE0952E2F2F7096FD2F5F55
:10189000E695E695E695E670F0E0E35EFE4F818121
:1018A000829F802D212D112482958F702295207F7B
:1018B000822B2081820F97FD8195805808959C018D
:1018C0008230910508F408959FEF213E8EE138079C
:1018D00040F4C90145E0969587954A95E1F798E06F
:1018E000980F61E0E62FE90FFF27FF1FAF01559525
:1018F0004795842F449FF001459FF00DF00D112472
:101900002E173F0738F49FEF940F961758F78FEF75
:10191000860F08954F3FE9F361E0640FF6CF1F9300
:10192000CF93DF93EC01FA01122F67FD619548E335
:1019300050E0461B510967FD5395449F9001459F18
:10194000300D300D1124EE9FC001EF9F900D900DD2
:101950001124820F931F0E945F0C982F990F980FEC
:10196000910F9883DF91CF911F9108959C0190E092
:1019700080E0269F812D369F800D911D11240895B2
:10198000AF92BF92CF92DF92EF92FF920F931F938D
:10199000CF93DF93462FD72E282F382FE82FF0E054
:1019A000711110C0E451FD4F6491762F862FDF91A5
:1019B000CF911F910F91FF90EF90DF90CF90BF904C
:1019C000AF900895E72EF12C86E0689F80011124E6
:1019D000CFEFD0E0C801BE010E94C22E842F90E05C
:1019E000880F991FA5E5A69FA001A79F500D112460
:1019F000841B950BB82EBB0CB80ECE018E199F0917
:101A00008E9FA0018F9F500D9E9F500D1124952FEA
:101A1000BD9CD0011124AB2FBB276E01CA1ADB0A73
:101A2000CE9ED001CF9EB00DDE9EB00D11248B2F27
:101A30006E01CB18D1085601AE9C6001AF9CD00C52
:101A4000BE9CD00C1124CD2CDD24CC19DD09CE9FF9
:101A50007001CF9FF00CDE9FF00C112463307105F4
:101A600031F10C3FE3E01E0760F46130710519F1BC
:101A70006230710521F10F3F110548F4852F9F2D2C
:101A800006C064307105F1F066307105B9F3E22FDC
:101A9000F0E0E451FD4F6491E92FF0E0E451FD4F97
:101AA0007491E82FF0E0E451FD4F849180CF252F11
:101AB0009B2F832FECCF2B2F852F932FE8CF8F2DAC
:101AC000252FFBCF822F2F2DE2CFAF92BF92CF9247
:101AD000DF92EF92FF920F931F93CF93DF9300D08B
:101AE00000D00F92CDB7DEB75C01E0901A010AE09A
:101AF000E09E002D11249AE0D92ED00ECD2C80E34B
:101B00008D1510F480E3C82E809109068983809199
:101B10000A068A8380910B068B8360910C0666957A
:101B2000669580910006909101060E94B60C182FD0
:101B300080E4810F0E94400C80588C83812F0E948A
:101B4000400C80588D83E02EF12CEC14A8F081E03D
:101B50009FE29D1508F480E00F900F900F900F907A
:101B60000F90DF91CF911F910F91FF90EF90DF9039
:101B7000CF90BF90AF900895F701EF5BFC4F80814D
:101B800090911B01892391F0012F2E2D4D816C81A5
:101B9000CE010196F501099569817A818B810E94B8
:101BA000C00C472F282FC7010E947A0AFFEFEF1AB7
:101BB000FF0ACBCF6F927F928F929F92AF92BF928C
:101BC000CF92DF92EF92FF920F931F93CF93DF9309
:101BD00000D00F92CDB7DEB74C01E0901A010AE0B9
:101BE000E09E002D11241AE0100F612E113310F029
:101BF00090E3692E80910906898380910A068A8381
:101C000080910B068B8360910C066695809100068F
:101C1000909101060E94B60C782EE02EF12CE6146D
:101C2000B0F081E0103308F080E00F900F900F903B
:101C3000DF91CF911F910F91FF90EF90DF90CF90A8
:101C4000BF90AF909F908F907F906F900895F70115
:101C5000EF5BFC4F808190911B018923A9F19701D3
:101C6000220F331FF901EF51FD4F8081482F40575C
:101C7000550B6A012E513D4FF9018081282F2052CA
:101C8000330B5901449F9001459F300D300D1124B5
:101C9000AA9CC001AB9C900D900D1124820F931F44
:101CA0000E945F0C282F072DA501B601CE010196D9
:101CB000F401099569817A818B810E94C00C472FBC
:101CC000282FC7010E947A0AFFEFEF1AFF0AA7CF59
:101CD000BF92CF92DF92EF92FF920F931F93CF9319
:101CE000DF9300D00F92CDB7DEB77C0100911A01CF
:101CF0008AE0089F002D11242AE0D22ED00EBD2CA0
:101D000080E38D1510F490E3B92E80910906898344
:101D100080910A068A8380910B068B8360910C0662
:101D2000669580910006909101060E94B60CC82E1F
:101D300010E00B1590F081E0FFE2FD1508F480E063
:101D40000F900F900F90DF91CF911F910F91FF9007
:101D5000EF90DF90CF90BF900895F801EF5BFC4FBC
:101D6000808190911B018923F1F09801220F331F8C
:101D7000F901EE51FD4F40814052550B2F513D4F1F
:101D8000F90160816057770B2C2DCE010196F70188
:101D9000099569817A818B810E94C00C472F282F79
:101DA000C8010E947A0A0F5F1F4FC3CFBF92CF9224
:101DB000DF92EF92FF920F931F93CF93DF9300D0A8
:101DC0000F92CDB7DEB76C0100911A018AE0089F2F
:101DD000002D11249AE0F92EF00EBF2C80E38F1510
:101DE00010F480E3B82E80910906898380910A0659
:101DF0008A8380910B068B8360910C0666956695AD
:101E000080910006909101060E94B60CE82E10E029
:101E10000B1590F081E0FFE2FF1508F480E00F90D1
:101E20000F900F90DF91CF911F910F91FF90EF9046
:101E3000DF90CF90BF900895F801EF5BFC4F808159
:101E400090911B01892381F04E2D602FCE010196C8
:101E5000F601099569817A818B810E94C00C472F18
:101E6000282FC8010E947A0A0F5F1F4FD1CF90918F
:101E70008F0592FF06C0282F2871283069F4877FCC
:101E8000846093FF06C0282F2871283161F4877E73
:101E9000846194FD877E0895282F2471243089F76A
:101EA0008B7F8860EECF282F2471243191F78B7EB1
:101EB0008861EFCF0F931F93CF93DF93972F70E03D
:101EC00026E0929F600D711D1124FB0134E5839F74
:101ED000E00DF11D1124EE0FFF1FE451FC4F0591A1
:101EE0001491E801003E110509F47CC0B8F50133F6
:101EF000110509F4AEC090F40932110509F4A2C02D
:101F00000A32110509F4ACC001301105A1F10450E9
:101F10001109013A110508F074C02DC009331105EB
:101F200009F459C00238110509F455C005331105EB
:101F300009F481C0083A110508F099C0053A110565
:101F400018F3C1E8D0E4053A1105A9F0C2E8D0E4DD
:101F5000063A110581F0C3E8D0E40DC0063E110534
:101F600009F459C070F4023E110509F442C0033E61
:101F7000110509F449C0CE01DF91CF911F910F9156
:101F80000895073E110509F44FC0011541E51407F6
:101F900008F09BC0011580E5180708F47AC0C80155
:101FA00074E0969587957A95E1F78370202F2695B2
:101FB0002695237090E2299F90011124382B802FC1
:101FC0008370C1E0D0E002C0CC0FDD1F8A95E2F73C
:101FD000C22BD32BA3C080918F05837061F2C0EE1A
:101FE000D0E0C9CF80918F0580FFC5CFC9E3D0E095
:101FF000C2CF80918F0582FFBECFC3EED0E084FFB9
:10200000BACFD0E0C0E0B7CF80918F0582FD8BC101
:1020100084FFB1CFF6CF80918F0583FFACCFC7EEA1
:10202000D0E084FDEECFA7CF80918F0583FFF0CF66
:10203000C6EED0E0A0CF80918F0585FF9CCFC9E28E
:10204000D0E099CF80918F0585FF95CFC5E3D0E093
:1020500092CF80918F0586FF8ECFCAE2D0E08BCFE2
:1020600080918F0586FF87CFC1E3D0E084CF0F3BFF
:10207000110508F49AC0005C1109F801003211053D
:1020800008F0BFCFEE0FFF1FE451FD4FC591D49173
:1020900072CF011590E3190780F4011520E21207B1
:1020A00008F010C10F3F110511F008F064CFD065A2
:1020B000003F110508F05FCFA4CF011530E41307EE
:1020C00008F403C1DF70D06A56CF011546E5140746
:1020D00060F5011585E5180708F017C1011594E5AD
:1020E0001907F0F4011523E5120708F0FAC00115ED
:1020F00032E5130708F4F0C0C80183709927C1E0E6
:10210000D0E002C0CC0FDD1F8A95E2F70695069558
:1021100040E2049F80011124C02BD12BDC682BCF1F
:10212000D02FCC27C46FD06A26CF01158CE51807B5
:1021300048F501159BE5190708F0F2C0011529E5DE
:10214000120750F4011538E5130708F45ACFD02FC1
:10215000CC27C06FD06A0FCFC80199558F3F91052A
:1021600011F008F04ECF802F8F700E94370F34E0AF
:10217000169507953A95E1F70F70C82FCF70C06E8E
:10218000D02FA1CFC80190568115904208F039CFC9
:102190008D2F8F710E94370F90E0982F8827882706
:1021A0009F719C01202BE901B9C0C2EED4E4083A2A
:1021B000110509F4E0CEC9EED4E4093A110509F499
:1021C000DACECAEED4E40A3A110509F4D4CEC5EB4E
:1021D000D4E40B3A110509F4CECEC6EBD4E40C3AA4
:1021E000110509F4C8CEC3EBD4E40B3B110509F487
:1021F000C2CEC4EBD4E40C3B110509F4BCCEC7EB52
:10220000D4E40D3A110509F4B6CECCECD4E4003B8D
:10221000110509F4B0CECDECD4E40E3A110509F461
:10222000AACEC3E8D5E40F3A110509F4A4CECAE852
:10223000D5E4013B110509F49ECEC2E9D5E4023B89
:10224000110509F498CEC4E9D5E4033B110509F45E
:1022500092CEC1E2D6E4043B110509F48CCEC3E270
:10226000D6E4053B110509F486CEC4E2D6E4063B6C
:10227000110509F480CEC5E2D6E4073B110509F447
:102280007ACEC6E2D6E4083B110509F474CEC7E263
:10229000D6E4093B110509F46ECECFE6D4E40D3B3C
:1022A000110509F468CEC0E7D4E40E3B110509F42A
:1022B00062CEC0E0D4E40A3B110509F05CCECAE26C
:1022C000D6E459CEF801FF70DDCEDD2713FF02C042
:1022D000D86C51CED06C4FCED02FCC27C16FD06AE6
:1022E0004ACEC80183709927C1E0D0E002C0CC0F6C
:1022F000DD1F8A95E2F70695069520E2029F800190
:102300001124C02BD12BDA6836CE802F0E94370FD4
:10231000C82FD0E0DC2FCC27CC27DF71D0622BCEAA
:10232000DD27D06628CEC2EED0E025CEBF92CF9278
:10233000DF92EF92FF920F931F93CF93DF938C0165
:10234000C0906A05D0906B05E0906C05F0906D052B
:102350008091720590917305A0917405B0917505F7
:10236000C82AD92AEA2AFB2ACFE1D0E0BC2ED7011D
:10237000C6010C2E04C0B695A795979587950A942B
:10238000D2F780FD0EC0219788F7B12C8B2DDF91FD
:10239000CF911F910F91FF90EF90DF90CF90BF9062
:1023A0000895B8018C2F0E945A0F019761F3EECF68
:1023B000CF93DF93D82FC92F0E9496116D2F7C2FBA
:1023C000DF91CF910C945A0F0E94D811282F892F9A
:1023D0008F70392F32953F70903C80F43A30B0F4D2
:1023E000343020F4323090F480E008953630E1F754
:1023F00081E0203E88F0213FB9F70EC03C3011F05B
:102400003F3091F7869586958695089581E0203F27
:1024100039F018F4203E40F70895243F29F7FCCF07
:1024200008950F931F93CF93DF9320E9289FE00136
:10243000299FD00D1124C455DF4F10E000E0FE01AC
:1024400064913196749131968491962F972B982BA5
:1024500089F420E040E060E0C8010E947A0A0F5F42
:102460001F4F23960033110551F7DF91CF911F9134
:102470000F9108950E94C00C472F282FEDCF279869
:102480002F98089526982E98089525982D980895A8
:1024900056985E980895279A2F9A0895269A2E9A0C
:1024A0000895259A2D9A0895FF920F931F93CF9325
:1024B000DF93F62E072F182FD92F0E94CA07C82F97
:1024C0000E9448120E9445120E9442120E943F122E
:1024D000C150C73040F4EC2FF0E0ED5DFE4C0C94A1
:1024E000EA2E0E945112F0926A0500936B05109338
:1024F0006C05D0936D05DF91CF911F910F91FF90E7
:102500000C9483090E9451120E944E12ECCF0E943B
:1025100051120E944B12E7CF0E9451120E944E129C
:10252000F8CF0F931F93CF93DF9300D000D0CDB798
:10253000DEB741E050E060E070E004C0440F551F9A
:10254000661F771F8A95D2F74095509560957095D4
:1025500080916A0590916B05A0916C05B0916D0515
:102560008A019B01082319232A233B2309831A8309
:102570002B833C83C901B8010F900F900F900F90EF
:10258000DF91CF911F910F910C94541290916E0591
:102590008095892380936E05282F277071F4282F4A
:1025A000082E000C330B9217130639F0859585958C
:1025B00085950E94911210926E0508950F931F93B6
:1025C000CF93DF9300D000D0CDB7DEB741E050E02D
:1025D00060E070E004C0440F551F661F771F8A95A6
:1025E000D2F780916A0590916B05A0916C05B0912E
:1025F0006D058A019B01082B192B2A2B3B2B098384
:102600001A832B833C83C901B8010F900F900F9060
:102610000F90DF91CF911F910F910C945412CF9393
:10262000C82F873050F580910D0190910E01892BB4
:1026300011F580E40E94430790930E0180930D01F1
:10264000892BB1F482E10E941C0790930E018093C4
:102650000D01892B69F481E090E001C0880FCA95D3
:10266000EAF780950E941C0790930E0180930D015C
:1026700084E98093BC00CF9108958B30C1F048F479
:10268000893079F08A3081F0883041F0209A28989A
:10269000F2CF8C3079F4539A5B98EDCF219A299838
:1026A000EACF229A2A98E7CF239A2B98E4CF529A1E
:1026B0005A98E1CF3E9A4698DECF84B1807F84B9A4
:1026C00085B1807F85B98AB1837F8AB98BB1837FD9
:1026D0008BB93E9846980895CF93DF93873008F0E2
:1026E00049C080910D0190910E01892B09F04BC0DA
:1026F00080E40E94430790930E0180930D01892B83
:1027000039F080E094E99093BC00DF91CF91089577
:1027100083E10E941C0790930E0180930D01892B89
:1027200081F781E40E94430790930E0180930D018D
:10273000892B39F784E88093BC000E941007EC01D4
:102740008091BC0087FF08C08091BB0080951092EB
:102750000E0110920D01D6CF0E9410078C1B9D0B0D
:102760008436910568F38EEF9FEF90930E0180936E
:102770000D01C7CF9FB18FB1869586958C739370ED
:10278000892B8095C2CF80E0C0CF80B38C7080BB96
:1027900081B3836F81BB0895CF93DF93EC0180EE0B
:1027A000FE01099581EEFE01DF91CF9109940F930F
:1027B0001F93CF93DF9300D00F92CDB7DEB78C017C
:1027C0000E94AF05823011F0843021F584E08983C6
:1027D0000A831B8382E08093E9008FEF9091E800E9
:1027E000815095FD06C095ED9A95F1F70000811195
:1027F000F5CF8091E80085FF0DC050E040E063E038
:1028000070E0CE0101960E9479048091E8008E77F5
:102810008093E8000F900F900F90DF91CF911F9160
:102820000F910895CF93DF9300D00F92CDB7DEB70D
:102830009C018091E205843031F583E08983205842
:1028400031093B832A8382E08093E9008FEF9091E6
:10285000E800815095FD06C095ED9A95F1F70000CE
:102860008111F5CF8091E80085FF0DC050E040E078
:1028700063E070E0CE0101960E9479048091E80047
:102880008E778093E8000F900F900F90DF91CF919B
:102890000895CF93DF93D82FC92F0E94AF058230C0
:1028A00011F0843001F582E08093E9008FEF909180
:1028B000E800815095FD06C095ED9A95F1F700006E
:1028C0008111F5CF8091E80085FF0DC050E040E018
:1028D00066E070E08D2F9C2F0E9479048091E800C3
:1028E0008E778093E800DF91CF910895CF93DF93A7
:1028F000D82FC92F0E94AF05823011F08430C9F55E
:10290000809119018823C1F180918F0587FF34C020
:1029100060E282E08093E9008FEF9091E8008150BF
:1029200095FD06C095ED9A95F1F700008111F5CF60
:102930008091E80085FF1DC08091190170E050E092
:1029400040E0811104C050E040E068E070E08D2F6D
:102950009C2F0E9479048091E8008E778093E80094
:1029600080E2ED2FFC2FA0ECB5E001900D928A954E
:10297000E1F7DF91CF91089568E081E0CBCF882324
:1029800009F408C18238B9F40E94A80981FD02C186
:1029900089E30E948D080E941B082FEF81EE94E0CE
:1029A000215080409040E1F700C0000089E30E9480
:1029B00060080C941B088338A1F40E94A80980FDCC
:1029C000E9C083E50E948D080E941B082FEF81EE6D
:1029D00094E0215080409040E1F700C0000083E582
:1029E000E6CF8438A1F40E94A80982FDD3C087E411
:1029F0000E948D080E941B082FEF81EE94E0215069
:102A000080409040E1F700C0000087E4D0CF9CEF09
:102A1000980F913A18F40E948D08CBCF90E2980F4E
:102A2000983068F4877021E030E001C0220F8A9569
:102A3000EAF78091BD05822B8093BD05BACF9BE557
:102A4000980F933070F4853A31F0863A39F083E884
:102A500090E00C946D0981E890E0FBCF82E890E073
:102A6000F8CF98E5980F973108F08EC0883A09F4AE
:102A700046C0893A09F446C08A3A09F446C08B3AFE
:102A800009F446C08C3A09F446C08B3B09F446C0B1
:102A90008C3B09F446C08D3A09F446C0803B09F4EA
:102AA00046C08E3A09F446C08F3A09F446C0813BCD
:102AB00009F446C0823B09F446C0833B09F446C092
:102AC000843B09F446C0853B09F446C0863B09F4C3
:102AD00046C0873B09F446C0883B09F446C0893BA1
:102AE00009F446C08D3B09F446C08E3B09F446C04C
:102AF0008A3B09F446C090E080E00C94570982EECE
:102B000090E0FBCF89EE90E0F8CF8AEE90E0F5CF31
:102B100085EB90E0F2CF86EB90E0EFCF83EB90E097
:102B2000ECCF84EB90E0E9CF87EB90E0E6CF8CEC44
:102B300090E0E3CF8DEC90E0E0CF83E891E0DDCF53
:102B40008AE891E0DACF82E991E0D7CF84E991E099
:102B5000D4CF81E292E0D1CF83E292E0CECF84E283
:102B600092E0CBCF85E292E0C8CF86E292E0C5CF7B
:102B700087E292E0C2CF8FE690E0BFCF80E790E09F
:102B8000BCCF8AE292E0B9CF803F20F00E9483065A
:102B90000C94B4070895CF93C82F0E94BF14C93373
:102BA00049F42FEF83EC99E0215080409040E1F709
:102BB00000C000008C2FCF910C94B409FF920F93AA
:102BC0001F93CF93DF93C62FD42F022FFC01828156
:102BD0008823A9F06093F5040E9410079093E00405
:102BE0008093DF04C77081E001C0880FCA95EAF7BF
:102BF000DF91CF911F910F91FF900C942F091091AD
:102C0000F504161334C08091DF049091E0040E9413
:102C1000EB06883C910558F5C0E2CD0F1D17A9F0D1
:102C20001770FF24F3948F2D01C0880F1A95EAF7CF
:102C30000E942409C83048F48D2F877001C0FF0C12
:102C40008A95EAF78F2D0E942F09802F0E94CB15BD
:102C5000C830A0F4D77081E001C0880FDA95EAF798
:102C6000DF91CF911F910F91FF900C942409C770B1
:102C700081E001C0880FCA95EAF7F2CFDF91CF91CA
:102C80001F910F91FF900895CF93DF93C82F4BE0D2
:102C90006DEF0E94600A40E06AE08C2F0E94600A9B
:102CA0008FE39CE90197F1F700C0000040E060E08D
:102CB0008C2F0E94600A40E061E08C2F0E94600A25
:102CC00040E066E08C2F0E94600A40E06DEF8C2FA0
:102CD0000E94600AD0E040E06D2F8C2F0E94600AB5
:102CE000DF5FD231C1F740E06D2F8C2F0E94600A68
:102CF000DF5FD432C1F740E06D2F8C2F0E94600A55
:102D0000DF5FD43BC1F74BE06DEF8C2F0E94600A70
:102D100041E06AE08C2F0E94600A40E06DEF8C2F4A
:102D2000DF91CF910C94600A7F928F929F92AF9225
:102D3000BF92CF92DF92EF92FF920F931F93CF93A8
:102D4000DF931092B9008CE08093B80084E70E9472
:102D5000441687E70E94441665E2E62E61E0F62EEF
:102D6000D12CC12C72E1772EE8E08E2E912CAA2472
:102D7000A394B12CF701418150E0CA0184970281EC
:102D80000452110BC381C452DD0BF601EE0FFF1F7D
:102D9000EE0FFF1FEB5DFE4F2081237030E0FC0142
:102DA00097FD379643E0F595E7954A95E1F7729ED2
:102DB000A001739E500D112447565C4FE40FF52F70
:102DC000F11DB4010E94D62EA50101C0440F8A95C1
:102DD000EAF78081842B8083F80117FD379693E012
:102DE000F595E7959A95E1F7729EC001739E900D57
:102DF000112487569C4FE80FF92FF11DC801B4012B
:102E00000E94D62EA50101C0440F8A95EAF7808161
:102E1000842B8083FE01D7FD379683E0F595E795F7
:102E20008A95E1F7729EC001739E900D112487561A
:102E30009C4FE80FF92FF11DCE01B4010E94D62E50
:102E4000950101C0220F8A95EAF78081822B808349
:102E5000FFEFCF1ADF0A84E0E80EF11CE0E3CE16A4
:102E6000D10409F087CF81E08093BD0309E913E025
:102E7000C0E0F80141918F016C2F84E70E94600A45
:102E8000F80141896C2F87E70E94600ACF5FC23149
:102E900081F7DF91CF911F910F91FF90EF90DF901D
:102EA000CF90BF90AF909F908F907F90089580E2D9
:102EB00090E090930E0180930D0180919803811111
:102EC00011C01092B9008CE08093B80081E080932B
:102ED00098032FEF83ED90E3215080409040E1F77D
:102EE00000C0000080E40E94430790930E0180938D
:102EF0000D01892B09F040C080E00E941C079093CF
:102F00000E0180930D01892BB9F580E00E941C070A
:102F100090930E0180930D01892B71F58FE30E9430
:102F20001C0790930E0180930D01892B29F584E9EC
:102F30008093BC0080E40E94430790930E0180932D
:102F40000D01892BC9F48CE00E941C0790930E019F
:102F500080930D01892B81F480E00E941C079093DF
:102F60000E0180930D01892B39F48FE30E941C0719
:102F700090930E0180930D0184E98093BC008091B1
:102F80000D0108950E9448120E9445120E944212AB
:102F90000E943F128FEF90E0909389008093880009
:102FA00090938B0080938A0090938D0080938C0087
:102FB0000E9451122FEF80E792E021508040904014
:102FC000E1F700C000000E944E122FEF80E792E070
:102FD000215080409040E1F700C000000E944B1259
:102FE0002FEF80E792E0215080409040E1F700C051
:102FF00000000E9445122FEF80E792E021508040B0
:103000009040E1F700C000000E9442122FEF80E7DD
:1030100092E0215080409040E1F700C000000E9403
:103020003F120E9448120E9445120E9442120C94C4
:103030003F1290E080E00E9484309C0181E02D3EB0
:103040003E4F09F080E00895AB01BC0180E190E0C3
:103050000C949C30CF93DF9300D000D0CDB7DEB777
:10306000E8E0F6E081836283438380819181A281DD
:10307000B38189839A83AB83BC83BC01CD010F905C
:103080000F900F900F90DF91CF910C942418CF9355
:10309000DF9300D000D0CDB7DEB7E8E0F6E0982FA0
:1030A000990F990F80818370892B808310920C0176
:1030B00080819181A281B38189839A83AB83BC8310
:1030C000BC01CD010F900F900F900F90DF91CF9129
:1030D0000C942418CF93DF9300D000D0CDB7DEB787
:1030E00080910806845080930806982F9C7F21F4D5
:1030F000837088658093080610920C018091080601
:1031000090910906A0910A06B0910B0689839A83D3
:10311000AB83BC83BC01CD010F900F900F900F903B
:10312000DF91CF910C942418CF93DF9300D000D07F
:10313000CDB7DEB780910806982F969596959F5F3C
:103140009F7383709731E8F4990F990F892B8093BF
:10315000080610920C018091080690910906A09132
:103160000A06B0910B0689839A83AB83BC83BC01AA
:10317000CD010F900F900F900F90DF91CF910C9495
:1031800024188460E4CFCF93DF9300D000D0CDB774
:10319000DEB7E8E0F6E08DE2808311828FEF828374
:1031A00083838FE7848380819181A281B381898326
:1031B0009A83AB83BC83BC01CD010F900F900F901D
:1031C0000F90DF91CF910C94241860917D058CE0D5
:1031D00090E00C948A306DEE7EEF90E080E00E94EB
:1031E000A83060E082E090E00E948A3060E083E0F6
:1031F00090E00E948A30109272051092730510922E
:1032000074051092750560E084E090E00E948A30B9
:1032100060E085E090E00E948A3060E086E090E027
:103220000E948A306FEF87E090E00E948A3040E091
:1032300050E0BA0188E090E00E949C3060E08DE0B0
:1032400090E00E948A3040E050E0BA0188E190E0CE
:103250000E949C3060E087E190E00E948A3040E06C
:1032600050E0BA0180E190E00E949C3040E050E0E4
:10327000BA018FE090E00E949C3040E050E0BA013B
:1032800083E190E00C949C3080911901E4E7F3E035
:10329000882359F080918F0587FF07C08EE1DF01F9
:1032A0001D928A95E9F70C94830986E0F8CF1F9365
:1032B000CF93DF93CDB7DEB7AA970FB6F894DEBFF2
:1032C0000FBECDBF84EE95E0FC0101962091F10088
:1032D000208325E08C3E9207B9F78091E50589307F
:1032E00009F458C0C8F4823009F4B3C0833009F43B
:1032F00082C0813081F18091E80083FF87C2809194
:10330000E4059091E5059A3008F080C2E92FF0E0DD
:10331000E65DFE4C0C94EA2E8A3009F489C08B30AD
:1033200051F78091E405813231F78091E805909161
:10333000E905892B01F78091E800877F8093E800F9
:103340000E94A3048091E605809319011092BD05A7
:103350000E944419D0CF8091E405813A61F68091B2
:10336000E800877F8093E8008091E8059091E90567
:10337000892B61F460E280EC95E070E00E945505D5
:103380008091E8008B778093E800B5CF60E090E013
:1033900080E0F3CF8091E405813209F0ACCF8091D9
:1033A000E8059091E905029708F0A5CF8091E80023
:1033B000877F8093E8008091E80082FF17C090919A
:1033C000F3008091F200029729F48091F1008B7F45
:1033D000813021F48091F1008093BF058091E80055
:1033E0008B778093E8000E94A30485CF8091E2054B
:1033F0008111E1CF80CF8091E405813A09F07BCF44
:103400008091E8059091E905892B09F074CF8091AE
:10341000E800877F8093E8008091E80080FFFCCF80
:10342000809119018093F1008091E8008E77D9CFC7
:103430008091E405813209F05ECF8091E800877FBA
:103440008093E8000E94A3048091E7058093BE0565
:1034500052CF8091E405813A09F04DCF8091E80088
:10346000877F8093E8008091E80080FFFCCF809107
:10347000BE05D8CF803899F0823809F0C7C1809155
:10348000E8058F70873008F0C1C18093E900809112
:10349000EB0085FB882780F91092E90006C0809137
:1034A000E0059091E105911182609091E800977F8D
:1034B0009093E8008093F1001092F1008091E80071
:1034C0008E77A0C1882309F48EC1823009F09EC195
:1034D0008091E605811191C18091E8058F702FEFF1
:1034E000280F263008F092C18093E9002091EB006C
:1034F00020FF83C1933031F48091EB008062809390
:10350000EB007BC19091EB0090619093EB0021E088
:1035100030E001C0220F8A95EAF72093EA0010926A
:10352000EA008091EB008860EACF81116FC11091B1
:10353000E6051F778091E3008078812B8093E3007C
:103540008091E800877F8093E8000E94A304809127
:10355000E80080FFFCCF8091E30080688093E30067
:1035600082E0111183E08093E20550C180588230DF
:1035700008F04CC14091E6055091E7054C3D83E0D1
:103580005807A1F583E08A838AE289834FB7F894CC
:10359000DE01139620E03EE051E2E32FF0E050938D
:1035A0005700E49120FF03C0E295EF703F5FEF709A
:1035B0008E2F90E0EA30C0F0C7968D939D932F5FD9
:1035C000243159F74FBF8091E800877F8093E8004E
:1035D0006AE270E0CE0101960E9455058091E800F4
:1035E0008B778093E80012C1C096E7CF2091E80561
:1035F0003091E905852F99278330910509F160F411
:103600008130910509F47EC0029709F0FFC08BE379
:1036100090E0ECE8F7E03EC08132910509F466C025
:10362000829709F0F3C02115310509F475C02130E6
:10363000310509F0EBC080EC90E0ECE8F6E02AC040
:10364000CA019927423009F449C08330910568F4D2
:103650000097B1F0019709F0D9C0E7EFF7E0E491E6
:103660008E2F90E0E7EFF7E012C0039709F0CEC08D
:10367000E9EDF7E0E4918E2F90E0E9EDF7E007C087
:10368000EFE0F8E0E4918E2F90E0EFE0F8E00097B3
:1036900009F4BCC02091E800277F2093E800209126
:1036A000EA053091EB058217930708F49C0140E08E
:1036B00021153105B1F5411134C08091E80082FD3A
:1036C0008DCF8091E205882309F488CF853009F4F5
:1036D00085CF8091E80083FFF0CF80CFEFEDF7E05A
:1036E000E4918E2F90E0EFEDF7E0D1CF2115310579
:1036F00071F02130310509F089C089E090E0E7EBF5
:10370000F7E0C8CF82E190E0E7ECF7E0C3CF89E0D3
:1037100090E0EEE9F7E0BECF80E490E0ECE4F7E083
:10372000B9CF8091E205882309F458CF853009F498
:1037300055CF8091E80083FD51CF8091E80082FD54
:10374000BCCF8091E80080FFB3CF9091F3008091CF
:10375000F2002115310519F08830910550F041E053
:10376000089709F040E08091E8008E778093E800A8
:103770009FCF44914093F100319621503109019639
:10378000E8CF803809F042C08091E800877F8093BD
:10379000E8008091E3058093F10090CE811136C05E
:1037A0001091E605123090F58091E800877F8093B4
:1037B000E8001093E3050E94A304112311F084E0B4
:1037C00005C08091E30087FDFACF81E08093E20598
:1037D00042E061EC81E00E94C20442E261EC82E0DE
:1037E0000E94C20413C08091E605813079F481E023
:1037F000933009F080E08093E1051092E900809118
:10380000E800877F8093E8000E94A3048091E8008D
:1038100083FF0AC08091E800877F8093E800809151
:10382000EB0080628093EB00AA960FB6F894DEBF9F
:103830000FBECDBFDF91CF911F9108954F925F9240
:103840006F927F929F92AF92BF92CF92DF92EF9250
:10385000FF920F931F93CF93DF93CDB7DEB72997D6
:103860000FB6F894DEBF0FBECDBF6C01DC0113961E
:103870008D919C911497892B41F01C911196FC908D
:10388000812F8F218F3F09F0BBC729960FB6F8947F
:10389000DEBF0FBECDBFDF91CF911F910F91FF9083
:1038A000EF90DF90CF90BF90AF909F907F906F9000
:1038B0005F904F9008950E949611082F682F89817C
:1038C0009A810E94EB08E12FF0E0B6E0FB9EE00D4C
:1038D000F11D112414E5019FE00DF11D1124EE0FDF
:1038E000FF1FE451FC4F059114919801275F3C455F
:1038F000D60112969C912031310508F5992329F2C1
:103900004FEF6FEFC90154E0880F991F5A95E1F707
:1039100029960FB6F894DEBF0FBECDBFDF91CF91D1
:103920001F910F91FF90EF90DF90CF90BF90AF90DD
:103930009F907F906F905F904F900C942A18053F56
:10394000BCE51B0709F48EC0C8F5023CFCE51F0767
:1039500009F479C0043F2CE5120709F459C09923F2
:1039600091F0033E5CE5150709F498C008F084C0A7
:10397000013E9CE5190709F48CC081E0023EACE5EC
:103980001A0709F483C017FF4CC1D60112968C9117
:10399000882309F4DFC08091BD058093F404109260
:1039A000BD0580917D05823009F4BFC008F07AC062
:1039B0008111ACC082EE0E94BF1477C0063F3CE587
:1039C000130761F007304DE5140749F6992309F410
:1039D0005CCF4FEF60E090E080E09ACF992309F44C
:1039E00054CF29960FB6F894DEBF0FBECDBFDF913E
:1039F000CF911F910F91FF90EF90DF90CF90BF90EC
:103A0000AF909F907F906F905F904F900C94EB18C9
:103A1000992309F43ACF81E029960FB6F894DEBFD6
:103A20000FBECDBFDF91CF911F910F91FF90EF900F
:103A3000DF90CF90BF90AF909F907F906F905F90FE
:103A40004F900C944718992309F41FCF60910A06F0
:103A50008091090690E020910B0640E0211158CF9B
:103A60004FEF56CF992309F410CF8091F30491E0E2
:103A700089278093F30409CF043EBCE51B0781F03E
:103A800084E0053EECE51E0709F07DCF80937D05BF
:103A900002C010927D050E94E51875CF82E0F6CF36
:103AA00083E0F4CF843009F447C0EFE3FCE93197B9
:103AB000F1F700C000005801E894B7F84CE0E42E9C
:103AC000F12C95010E2C02C0369527950A94E2F749
:103AD0002F7087E290E029F0822F90E02A3088F55D
:103AE0004D960E94CB15F4E0EF1AF1082CEFE21688
:103AF0002FEFF20631F780917D05823019F018F52D
:103B0000811189C082EE0E94B40920C089E399E046
:103B10000E94CC1388E10E94BF1488E10E94B4097E
:103B200087E499E00E94CC13C0CF82EE0E94BF14BC
:103B300087E50E94CB15B9CF86EE0E94CB1588E1B0
:103B4000F8CF0697CECF843009F469C08091F40491
:103B50008093BD05D60112968C9181111092F504C7
:103B60000F3DFCE51F07C0F4023C2CE5120708F0EE
:103B700011C605313CE5130708F017C602304CE5C5
:103B8000140708F040C201155CE5150709F498C058
:103B900001301C4509F4D6C0D601ED90FC90882375
:103BA00009F4C7C2C7010E949611182F682FC701D8
:103BB0000E94EB08B701812F0E945A0F8C01B82E8A
:103BC000F601E580E2943FE0E322F280F1101092EA
:103BD000700580916E05877079F0FF2069F080E2B2
:103BE000800F883048F082E00E94C61280916E05F6
:103BF0008770992493948111912CA12EA2942FE087
:103C0000A222FBE0FA1508F4CEC2EA2DF0E0EC5C4B
:103C1000FE4C0C94EA2E8CE20E94CB1597CF88E2E2
:103C2000FBCF003F3CE5130709F442C050F5083DC7
:103C30005CE51507C9F128E241E0093D8CE518076C
:103C4000A9F126E241EE61EE073D9CE5190709F076
:103C500081CFC60129960FB6F894DEBF0FBECDBF47
:103C6000DF91CF911F910F91FF90EF90DF90CF9058
:103C7000BF90AF909F907F906F905F904F900C940B
:103C8000DE15023FACE51A07B9F027E245EE66EE15
:103C9000033FBCE51B07E9F227E245EE64EE013F76
:103CA000ECE51E07B1F256CF27E245EE65EED1CF27
:103CB00026E241EE60EECDCF26E241EE62EEC9CFC4
:103CC000882309F4E2CD1092BD050E944419BFEF8C
:103CD000E4E3FCE0B150E040F040E1F700C0000058
:103CE000F89481E08093E00080E28093D800109205
:103CF000C9008FE19EE40197F1F700C000001DBAF2
:103D0000109268001CBC10BE1FBA10927A0010926C
:103D10006E0010926F00109271001092720010925B
:103D2000C9001092BC0014B817B81AB81DB810BA60
:103D30001092BC0015B818B81BB81EB811BA0C9474
:103D4000003FA3CD882309F4A0CD9091AC05892F25
:103D50008E7F90FF81608093AC0597CD882309F416
:103D600094CD3FCE882309F490CD8091080691E050
:103D700089278093080610920C0100910806109183
:103D8000090620910A0630910B060E831F832887AF
:103D90003987C901B80129960FB6F894DEBF0FBE66
:103DA000CDBFDF91CF911F910F91FF90EF90DF90EA
:103DB000CF90BF90AF909F907F906F905F904F900B
:103DC0000C942418882309F460CD8091BD0582727B
:103DD000F1F029960FB6F894DEBF0FBECDBFDF918C
:103DE000CF911F910F91FF90EF90DF90CF90BF90F8
:103DF000AF909F907F906F905F904F900C946A1857
:103E0000882309F442CD8091BD05827211F3299671
:103E10000FB6F894DEBF0FBECDBFDF91CF911F91DB
:103E20000F91FF90EF90DF90CF90BF90AF909F9059
:103E30007F906F905F904F900C949418882309F4B2
:103E400024CD80910906885F809309062091080699
:103E50003091090640910A0650910B062E833F834C
:103E600048875987CA01B90196CF882309F40DCD37
:103E700080910906885080930906809108069091E8
:103E80000906A0910A06B0910B068E839F83A8872E
:103E9000B987BC01CD017FCF882309F4F6CC2091EE
:103EA0000A0630E1230F08F42FEF20930A0665CFAE
:103EB000882309F4EACC20910A0630E1231B08F498
:103EC00020E020930A06C2CF882309F4DECC20919B
:103ED0000B0630E1230F08F42FEF20930B06CDCF14
:103EE000882309F4D2CC20910B0630E1231B08F47F
:103EF00020E020930B0641CF882309F4C6CC209103
:103F00000C0630E1230F08F42FEF20930C069ECF10
:103F1000882309F4BACC20910C0630E1231B08F465
:103F200020E020930C06A9CF882309F4AECC73CDF2
:103F3000882309F4AACC8091080686958695825C30
:103F40008F73833008F463CF82E066CD882309F451
:103F50009CCC8091080686958695865C8F7382300E
:103F600008F455CF86E058CD882309F48ECC809193
:103F7000080686958695895C8F73853008F447CF4F
:103F800089E04ACD882309F480CC80910806869583
:103F900086958F5C8F73853008F439CF8FE03CCDE8
:103FA000882309F472CC8091080686958695855DF4
:103FB0008F73823008F42BCF85E12ECD882309F44E
:103FC00064CC88E129CD882309F45FCC8091080670
:103FD00086958695895D8F73893008F418CF89E1BD
:103FE0001BCD882309F451CC83E216CD882309F434
:103FF0004CCC1092BB0549CC882309F446CC82E016
:104000008093BB0542CC882309F4C6CD0E941918C1
:10401000811102C00E94EB1884E090E00E9476308B
:1040200090E09093900580938F05F801E350FC4554
:1040300080918F058160E231F10538F4E05CFE4C3F
:104040000C94EA2E80918F05826080938F05609199
:104050008F0584E090E00E948A301092BD05299679
:104060000FB6F894DEBF0FBECDBFDF91CF911F9189
:104070000F91FF90EF90DF90CF90BF90AF909F9007
:104080007F906F905F904F900C94441980918F05B2
:104090008460DBCF80918F058860D7CF80918F05BA
:1040A0008061D3CF80918F058062CFCF80918F05C3
:1040B0008064CBCF80918F058068C7CF80918F05BA
:1040C0008C60C3CF80918F058E7FBFCF80918F058D
:1040D0008D7FBBCF80918F058B7FB7CF80918F0570
:1040E000877FB3CF80918F058F7EAFCF80918F0573
:1040F0008F7DABCF80918F058F7BA7CF80918F0570
:104100008F77A3CF80918F05837F9FCF90918F056D
:10411000892F97FB87F9805898CF85E358C3809102
:10412000F604811104C089E20E94600852C385E34D
:10413000FBCFC7010E94C108182F3CCD212F2F7043
:10414000E22E107F19F0E29490EFE922FF20C9F0EF
:10415000EE2069F080E2800F883010F0B1100BC0C3
:104160008091BD05E82AE092BD050E941B08802FC2
:104170000E94BF1418C080917005E82AE092700573
:10418000F4CF802F0E94B409EE2069F0E094005E25
:10419000083010F0B1103EC08091BD05E822E092D9
:1041A000BD050E941B08B8E0AB1629F086E08A0D19
:1041B0008F70823010F40E94A809992009F465CB11
:1041C00080916E0580FD61CBF60112828595859503
:1041D00085950E94DE12C6010E941E1C80916E050C
:1041E00085958595859529960FB6F894DEBF0FBE07
:1041F000CDBFDF91CF911F910F91FF90EF90DF9096
:10420000CF90BF90AF909F907F906F905F904F90B6
:104210000C94911280917005E822E0927005C1CF54
:10422000312F3F70732E107F103219F0729480EF8F
:104230007822BB2041F041E0B41631F1FF2079F142
:10424000EE2041F194CFFF2091F090917105892FDC
:104250008729E11003C00E942F09A5CF51E0E51284
:10426000FACF981709F49FCF809371059CCFE11086
:1042700006C00E941508872D0E94240994CF81E072
:10428000E81609F490CFF5CFFF2031F091E09E15AC
:1042900008F489CF872DDFCFE11085CFECCFEE205A
:1042A00051F3802F0E94B4097ECF812F8695869589
:1042B000837061F0813009F076CFC8019370F110FE
:1042C00002C090E080E00E9457096DCFC801937052
:1042D000F11002C090E080E00E946D0964CFFF20E1
:1042E00009F1053F99F0063FB9F0043F49F4809188
:1042F000F7049091F80481609093F8048093F70498
:10430000802F0E9483060E94B4074DCF8091F7044E
:104310009091F8048260F0CF8091F7049091F804B6
:104320008460EACF053F89F0063FA9F0043F49F4D5
:104330008091F7049091F8048E7F9093F804809315
:10434000F704802F0E94BE05DECF8091F704909184
:10435000F8048D7FF2CF8091F7049091F8048B7F61
:10436000ECCF812F837009F084C0F1101CCF802F17
:10437000829586958770880F880F402F4F70442E46
:10438000512C712C612C082E04C0440C551C661C49
:10439000771C0A94D2F740E050E0BA0104FF0FC046
:1043A0004FE050E060E070E004C0440F551F661F0E
:1043B000771F8A95D2F74095509560957095812F1B
:1043C00086958695837000917205109173052091F2
:1043D000740530917505823041F1833089F1813067
:1043E00089F04429552966297729DB01CA018023F0
:1043F0009123A223B3238E839F83A887B987BC010F
:10440000CD0110C0402A512A622A732A93018201E9
:10441000042B152B262B372B0E831F8328873987D8
:10442000C901B8010E949E09BECE442955296629BA
:104430007729DB01CA0180279127A227B327DBCF89
:10444000DB01CA0180239123A223B323BC01CD0148
:104450000E949E098091720590917305A091740548
:10446000B091750593018201082B192B2A2B3B2B48
:10447000D3CF8695FF2011F0812F8170882309F416
:1044800092CE802F829586958770880F880F402F57
:104490004F70442E512C712C612C082E04C0440CFA
:1044A000551C661C771C0A94D2F740E050E0BA0114
:1044B00004FF0FC04FE050E060E070E004C0440F24
:1044C000551F661F771F8A95D2F7409550956095C6
:1044D0007095812F86958695837000916A0510915D
:1044E0006B0520916C0530916D05823041F1833070
:1044F00089F1813089F04429552966297729DB0122
:10450000CA0180239123A223B3238E839F83A8878C
:10451000B987BC01CD0110C0402A512A622A732AF2
:1045200093018201042B152B262B372B0E831F831F
:1045300028873987C901B8010E94541234CE442912
:10454000552966297729DB01CA0180279127A227EF
:10455000B327DBCFDB01CA0180239123A223B3233E
:10456000BC01CD010E94541280916A0590916B05A7
:10457000A0916C05B0916D0593018201082B192B58
:104580002A2B3B2BD3CF802F22EFB21609F464C025
:104590002B1598F030EFB316A1F141EFB41609F4E2
:1045A00054C090E2900F9031F8F0FF2009F481C0E0
:1045B000E110DDCD812F8F714CC053EFB51609F49A
:1045C00052C094EFB912F1CFFF2009F467C01F71F8
:1045D000812F0E94DE1238E0139FC00111248360F6
:1045E00080936E05812F35C00F70812F8F71FF2052
:1045F00021F00E94DE12802F2ECE0E949112802F79
:104600003BCEFF20E9F0E110CECD1F7181E090E0BC
:10461000A0E0B0E004C0880F991FAA1FBB1F1A9525
:10462000D2F740916A0550916B0560916C057091CD
:104630006D058C019D01042715272627372776CF86
:1046400021E02E1508F4AFCDE0CF812F8F71FF2030
:1046500039F00E94DE12A7CD812F8F71FF20C9F3A0
:104660000E949112A0CD60E070E0CB01FF2009F420
:1046700063CF1F7181E090E0A0E0B0E09C01AD014C
:1046800004C0220F331F441F551F1A95D2F72E83E3
:104690003F8348875987CA01B9014ECF81E00E9404
:1046A000C61241E04E1508F07ECD82E00E94C6128F
:1046B0007ACDEE2069F0893309F0F3CD5FEF83EC1A
:1046C00099E0515080409040E1F700C00000E9CDF2
:1046D000812F8F71C5CFA3EFBA16D1F1AB1520F1A1
:1046E000B1EFBB1609F43EC0E2EFBE1699F1F0EF50
:1046F000BF1621F18091F904EE2009F43FC0882310
:1047000041F08091FA0491E089278093FA04109295
:10471000F904802FF1102CCD0E94B40986E0D60157
:104720001D928A95E9F73FCD14EFB116B1F025EF50
:10473000B212E0CFF11037CD81E007C0FF2009F4BD
:1047400032CD8091FA0491E089278093FA042BCD31
:1047500081E0F826F092FA0426CDF11024CD1092D3
:10476000FA0421CDFF2039F08091F904882349F320
:104770001092F90418CDEE2021F315CD882309F409
:1047800012CDF11010CD8091FA0491E08927809329
:10479000FA04EECFF801E25CFC45ED31F10508F0DA
:1047A000FBC9EE5AFE4C0C94EA2E06311C4509F06A
:1047B000F3C9882309F4B3CC8091BD058A7A91E0CE
:1047C00009F490E09093F6048111A7CC89E20E944D
:1047D0008D0829960FB6F894DEBF0FBECDBFDF91CE
:1047E000CF911F910F91FF90EF90DF90CF90BF90EE
:1047F000AF909F907F906F905F904F900C941B08AC
:1048000085E0F601DE01119601900D928A95E1F79F
:10481000F601228189819A8121114DC80E94C10827
:10482000082F51C81F93CF93DF9380910005807F9D
:10483000C1F48091FD048823A1F080913205C091DC
:1048400001056091FB047091FC044091FE045091BD
:10485000FF04D62FD723DA01A095B09516E0C81330
:1048600004C0DF91CF911F91089590E0411551054B
:1048700011F0DF3F31F401968770F1CF2A0F3B1F13
:1048800017C0189FF001199FF00D1124EE5FFA4F29
:1048900021812713F0CF20812613EDCF2281211112
:1048A000EACF238134812417350740F3241B350BCD
:1048B000283C310500F7209100052F7020612093DE
:1048C000000526E0289FF001299FF00D1124E95FE3
:1048D000FA4F80818F70806180838BEF94E00E941B
:1048E0001E1CDF91CF911F910C941A099F92AF92D9
:1048F000BF92CF92DF92EF92FF920F931F93CF93CD
:10490000DF93CDB7DEB72B970FB6F894DEBF0FBE9F
:10491000CDBF8C0185E0F801DE01179601900D9264
:104920008A95E1F7D8012C9111963C911197129636
:10493000EC9012978091FE049091FF04009709F487
:104940004EC14091FB045091FC04652F64236F3FDE
:1049500009F445C11396CD90DC909090FD04992008
:1049600009F4ECC0C816D906E8F1F601E81BF90B0A
:10497000CF01FF24F394883C910508F0F12C8BEFD4
:10498000A82E84E0B82E80910005982F907FFF20FC
:1049900009F4B5C091117EC0FE2C531328C04213F8
:1049A00026C0E11024C08F70806180930005C5018E
:1049B0000E941E1C80910005D80115968C938F2DA6
:1049C0002B960FB6F894DEBF0FBECDBFDF91CF910F
:1049D0001F910F91FF90EF90DF90CF90BF90AF901D
:1049E0009F900895809590958C0D9D1DC2CFCD28E8
:1049F00029F0822F83238F3F09F01BC180E0B82F5D
:104A0000B170DB2EE09132054091010556E080FD4A
:104A10001CC0EE20A1F2809100058160809300050A
:104A2000F12CCDCF8E2F90E05E9FF0011124EE5F30
:104A3000FA4F6181361306C06081261303C062817C
:104A40006E11E7CFFC013196E770E413EBCF2F83B3
:104A500038878F8198850E94D811292F22952F7031
:104A6000903260F0225F2F70223078F49F7051F006
:104A7000F8019581907F31F4D12C0AC09F7011F01C
:104A80008823D1F3805E8830B8F3C8010E941E1CD1
:104A9000FD2C95CF531306C0421304C0D801EE205D
:104AA00009F47EC02F8338878F8198850E94E41196
:104AB000882309F1EE20F9F080910005803270F032
:104AC0002091FB043091FC043A8329831B82DD8210
:104AD000CC828E83CE0101960E941E1C86E0F801D6
:104AE000ABEFB4E001900D928A95E1F70E94122499
:104AF000FF24F39464CFC8010E941E1CF9CF9111CA
:104B00000AC08BEF94E00E941E1C86E0F501119212
:104B10008A95E9F754CF5313C5CF4213C3CFE110A1
:104B2000C1CFD80115968C93C8010E941E1C86E047
:104B3000F50111928A95E9F7F92C41CFC816D906EB
:104B400078F0C81AD90AF8ECCF16D10480F0F12C0D
:104B500086E0EBEFF4E0DF011D928A95E9F72FCFB5
:104B6000809590958C0D9D1D883C910580F7FE2CBD
:104B7000EE2009F2531322C0421320C08091000599
:104B800080FD13C0982F907F81F0D80115968C93EB
:104B90001597903F39F0982F907F905F8F70892BF9
:104BA00015968C93C8010E941E1C86E0F801ABEF9D
:104BB000B4E001900D928A95E1F701CF2F833887F9
:104BC0008F8198850E94E411811188CF8091000522
:104BD000816080930005C8010E941E1CF0CEEE206B
:104BE00009F489CF2F8338878F8198850E94E4113B
:104BF000F82E882309F47FCF86E0F801ABEFB4E00C
:104C000001900D928A95E1F78091FB049091FC044C
:104C10000E94D81192959F70963041F48091FA04C9
:104C200091E089278093FA049093F9040E9412245A
:104C3000C6CE81E08E25E3CE0F931F93CF93DF93F3
:104C4000CDB7DEB767970FB6F894DEBF0FBECDBF06
:104C50004B8B5C8B6D8B7E8B8F8B0E891F89011527
:104C6000110509F486C0842F85238F3F09F05DC0AC
:104C70005FEF4FEF7EC0809528232C937AC086E0AB
:104C8000FE013796DE01119601900D928A95E1F7AB
:104C90008A859B85892B09F482C088859F81892319
:104CA0008F3F09F47CC02091010530E0C9010196D5
:104CB00087709927409132054817190681F41092A0
:104CC000BD050E944419109201051092320586E03C
:104CD000EBEFF4E0DF011D928A95E9F760C096E002
:104CE000929FD001939FB00D1124AE5FBA4FFE0189
:104CF000319601900D929A95E1F7809301050E94FB
:104D00001A094DC0819FC00111248E5F9A4F0E94E5
:104D10007624882309F44AC08091320590E00196F8
:104D200087709927809332053BC081E090E0042E84
:104D300001C0880F0A94EAF7A52FB0E0AB51BB4F32
:104D40002C913091FA04611102C0322F38233323A1
:104D500009F491CFE42FF0E036E0539FE00DF11D10
:104D60001124EE0FFF1FEB51FE4F40815181822B2A
:104D70008C931A8A4D875E876F87198B088B86E024
:104D8000FE013D96DE01179601900D928A95E1F79E
:104D9000CE0107960E947624882309F470CF16E08E
:104DA00080913205909101058913ACCF67960FB6BB
:104DB000F894DEBF0FBECDBFDF91CF911F910F9151
:104DC00008951F93CF93DF93EC01FC01EF5BFC4F41
:104DD0008081682399F00E943C2F182F0E943C2F5D
:104DE000782F612F80910B060E94C00C472F282F2F
:104DF000CE01DF91CF911F910C947A0ADF91CF9170
:104E00001F910895DF92EF92FF920F931F93CF931C
:104E1000DF93EC01FC01EF5BFC4F8081682379F1AB
:104E2000D0900A0600910B0610910906E12EF12C94
:104E30000E943C2F282FC7018C549F4F68E671E0D9
:104E40000E94D62E8E199F0997FD039695958795FA
:104E5000959587952370612F289F600D11247D2DD6
:104E6000802F0E94C00C472F282FCE01DF91CF91B9
:104E70001F910F91FF90EF90DF900C947A0ADF91D1
:104E8000CF911F910F91FF90EF90DF9008958F9237
:104E90009F92AF92BF92CF92DF92EF92FF920F93C9
:104EA0001F93CF93DF9300D000D00F92CDB7DEB722
:104EB00080910D0190910E01892B91F080919703C3
:104EC0008F5F8093970381110BC00E94571790E06A
:104ED00090930E0180930D01892B11F40E94C2174B
:104EE00001E815E01982B12CF7E0EF2EC980EC0C37
:104EF0008C2D0E940F138E2D0E940F1389810E940A
:104F00006C13D8019D918D01F12C891729F0FD01B9
:104F100031978083FF24F3948E2D0E946C13F80147
:104F20009681891709F4DDC0868381E08F29B82A2C
:104F30000E945D13F981FF5FF983F730A9F60E94A3
:104F400010076AEF70E00E94C22E982EA090920384
:104F5000AA2009F44BC3A0917B05B0917C058D017B
:104F6000025F1F4F40E07BEF872EEAEFEE2EF12C21
:104F70005D915B3F91F0652F70E0292D392F8517EA
:104F800008F4B1C0261B370B253031050CF4B1C035
:104F90009D0121503109F9018082A017B10741F725
:104FA00040939203B11002C0411127C09091920327
:104FB000E0917B05F0917C0530E020E041914B3F92
:104FC000A9F489010C561A4FB9016F577A4FDB01CA
:104FD0004C91D8015C91541749F07F01B1E0EB1A74
:104FE000F108D7018C93D8014C9391E02F5F3F4F8C
:104FF0002E30310519F7909392034091930350910D
:10500000940360919503709196032FB7F894809163
:10501000760590917705A0917805B09179052FBF1D
:1050200084179507A607B70708F465C0841B950B7E
:10503000A60BB70B2FB7F894C0907605D0907705E4
:10504000E0907805F09079052FBFC0929303D0923D
:105050009403E0929503F0929603409104065091D8
:10506000050660910606709107064F3FEFEF5E0759
:105070006E077E07C1F0AA27BB278C019D01009512
:105080001095209530950417150726073707B8F5B2
:105090008FEF9FEFDC018093040690930506A093A9
:1050A0000606B093070680910806182F137019F0B2
:1050B000182F1695169590910C01923009F460C244
:1050C00018F5911157C010921A01C0920006D092A3
:1050D0000106E0920206F092030681E080930C0143
:1050E00016C080E023CF6701C61AD70A2C0D3D1DDC
:1050F0004BCF4A2D52CF0197A109B10997CF840F09
:10510000951FA61FB71FC7CF933009F441C28091E6
:10511000F30481111CC020916A0530916B05409108
:105120006C0550916D0529833A834B835C83CA01DA
:10513000B9010E94CA07823009F452C2833009F4CF
:1051400052C2813021F481E090E00E94111281E08E
:105150000F900F900F900F900F90DF91CF911F91B4
:105160000F91FF90EF90DF90CF90BF90AF909F9006
:105170008F90089590910B01191317C0837020919F
:105180000A0130E0F1E0F9838217130609F419826D
:1051900039813170398330931C01173160F4E12F6C
:1051A000F0E0E159FE4C0C94EA2E21E02983F0CF87
:1051B000C980C11002C0198208C1D0901A018AE0CA
:1051C000D89E802D11248983082F065FF02E01338D
:1051D00010F060E3F62ED980CD2CD12CDA82C98272
:1051E00039813F1530F041E04983003308F4EDC0C8
:1051F000E2CF20E040E060E089819A810E947A0A53
:1052000029813A812F5F3F4F3A832983E9CF50911B
:105210001A018AE0589F802D11248983082F065F88
:10522000C02E013310F050E3C52E60910906709135
:105230000A0680910B060E94C00CD62EF72EE82E8F
:105240007981672F70E07A83698399819C1518F0C2
:10525000A1E0A983CACFE981FA81EF5BFC4F80818D
:1052600090911B01892339F02E2D4F2D6D2D8981B1
:105270009A810E947A0A89819A8101969A83898308
:10528000E4CFB0911A018AE0B89F802D1124898360
:10529000082F065FE02E013310F040E3E42ED0909B
:1052A0000A06C0900B0620910C0630E4F32E3F2D29
:1052B000329F312D1124F32E5981452F50E05A830E
:1052C000498379817E1518F081E089838ECFE98149
:1052D000FA81EF5BFC4F808190911B018923C1F023
:1052E000E981FA81EE0FFF1FEE51FD4F808182951B
:1052F0008F70609109068F9D600D11247D2D8C2D7E
:105300000E94C00C472F282F89819A810E947A0A17
:1053100069817A816F5F7F4F7A836983D2CF909161
:105320001A018AE0989F802D11248983082F065F37
:10533000C02E013310F080E3C82E60910C066695F4
:105340006695669580910006909101060E94B60CC4
:10535000D0900B06DD820E94400C805887FD81951D
:10536000880F282F3D81239F212D1124609109064C
:1053700070910A06822F0E94C00CF62EE72ED82EBE
:105380005981452F50E05A83498379817C1508F073
:105390009BCFE981FA81EF5BFC4F808190911B01EB
:1053A000892339F02D2D4E2D6F2D89819A810E94F0
:1053B0007A0A69817A816F5F7F4F7A836983E5CF4B
:1053C00087E79BE00E94D60E898380911A018F5F48
:1053D00080931A01C980C1109ACE82E080930C019B
:1053E00080911C01811193CE111191CE83E076CE74
:1053F00081E59BE0E7CF8CE29CE00E94680EE4CF61
:1054000088E19CE0FACF84E09CE00E94DA0DDCCFDA
:1054100080EF9BE0FACF8EE49BE0D4CF83E49BE067
:10542000D1CF88E39BE0CECF80E29BE0CBCF84E17D
:105430009BE0EBCF8FE89CE0E0CF82EE9BE0DDCFFE
:1054400080ED9BE0E2CF85EE9AE00E94650DBCCF37
:1054500087EB9AE0FACF8CE79AE0F7CFC980C110CA
:105460001EC060910C0620E1620F08F46FEF80917E
:105470000006909101060E94B60C6AE070E00E945E
:10548000C22E892B09F097CE0E943C2F60E370E07A
:105490000E94D62E60911B010E94022796CFD090C9
:1054A0001A018AE0D89E802D11248983082F065F77
:1054B000802F013308F080E3D980CD2CD12CDA8203
:1054C000C982E82EF12CC980DA80CE14DF041CF0EA
:1054D00021E029838ACE60911B0189819A810E94F3
:1054E000022729813A812F5F3F4F3A832983EBCFEF
:1054F000C980C1101EC060910C0620E1620F08F443
:105500006FEF80910006909101060E94B60C65E055
:1055100070E00E94C22E892B09F04DCE0E943C2FD4
:1055200060E370E00E94D62E60911B010E94E1268C
:105530004CCFD0901A018AE0D89E802D1124898307
:10554000082F065F802F013308F080E3D980CD2C2F
:10555000D12CDA82C982E82EF12CC980DA80CE14EF
:10556000DF040CF0B5CF60911B0189819A810E9404
:10557000E12629813A812F5F3F4F3A832983EDCF7E
:1055800010930B01837080930A010E94690A2ECF49
:105590004091000650910106609102067091030649
:1055A0002FB7F8948091760590917705A0917805B2
:1055B000B09179052FBF84179507A607B70760F04C
:1055C000841B950BA60BB70B4097A105B10508F4FA
:1055D0009ECD10920C019BCD0197A109B109F0CF8E
:1055E00082E090E0B2CD83E090E0AFCDB110DECCB0
:1055F00004CD1F920F920FB60F9211242F933F9359
:105600004F935F936F937F938F939F93AF93BF93CA
:10561000CF93DF93EF93FF93D091E900DF708091F8
:10562000EC00C82FC17080FDC0E81092E9008091A5
:10563000F000877F8093F00078940E9457191092B1
:10564000E9008091F00088608093F000CD2BCF704E
:10565000C093E900FF91EF91DF91CF91BF91AF919E
:105660009F918F917F916F915F914F913F912F917A
:105670000F900FBE0F901F9018951F920F920FB6AC
:105680000F9211242F933F934F935F936F937F93C8
:105690008F939F93AF93BF93EF93FF938091E1001C
:1056A00082FF09C08091E20082FF05C08091E10085
:1056B0008B7F8093E1008091DA0080FF24C080918D
:1056C000D80080FF20C08091DA008E7F8093DA00BE
:1056D0008091D90080FF9FC080E189BD82E189BDB2
:1056E00009B400FEFDCF81E08093E2058091BC0506
:1056F000811109C00E9429040E94F4048091E200F3
:1057000084608093E2008091E10080FF17C0809167
:10571000E20080FF13C08091E2008E7F8093E20060
:105720008091E20080618093E2008091D8008062E5
:105730008093D80019BC85E08093E2058091E10058
:1057400084FF2DC08091E20084FF29C080E189BDE3
:1057500082E189BD09B400FEFDCF8091D8008F7D24
:105760008093D8008091E1008F7E8093E10080914A
:10577000E2008F7E8093E2008091E200816080935E
:10578000E2008091E305882309F44BC084E0809314
:10579000E2051092BD050E9444190E94A80980915B
:1057A000E10083FF27C08091E20083FF23C0809146
:1057B000E100877F8093E10082E08093E205109210
:1057C000E3058091E1008E7F8093E1008091E2000B
:1057D0008E7F8093E2008091E20080618093E200FE
:1057E00042E060E080E00E94C2048091F0008860A6
:1057F0008093F000FF91EF91BF91AF919F918F91B6
:105800007F916F915F914F913F912F910F900FBEBC
:105810000F901F90189519BC1092E2051092BC05CC
:1058200072CF8091E30087FD02C081E0B0CF83E0BA
:10583000AECFCDB7DEB729970FB6F894DEBF0FBE57
:10584000CDBF84B7877F84BF0FB6F894A8958091A9
:105850006000886180936000109260000FBE80E855
:10586000809361001092610085B7806885BF85B71D
:10587000806885BF0E9429040E94F4048091E200A0
:1058800084608093E20078948091E2058823A1F0FF
:105890001091E9001F709091EC00892F817090FDAC
:1058A00080E8182B1092E9008091E80083FD0E94A7
:1058B00057191F701093E90082E084BD93E095BDF5
:1058C0009AEF97BD80936E000E94571790E09093D7
:1058D0000E0180930D010E945D130E94C513A1E883
:1058E000B5E0E4E9F5E011921D9225E0E23AF20715
:1058F000D1F78EE090E00E944C2F80937B0590932F
:105900007C05FC010E962BEF2193E817F907E1F7D0
:105910000E941918811102C00E94EB180E9494166F
:105920000E941918811104C00E94EB180E94C3182C
:1059300080E190E00E947E30609308067093090633
:1059400080930A0690930B068FE780930C066C7F7A
:1059500071F40E94C31880E190E00E947E30609351
:1059600008067093090680930A0690930B068CE054
:1059700090E00E94763090E0B0E0A0E080937D055A
:1059800090937E05A0937F05B093800589EA80936C
:10599000800089E08093810024982C983F988AB1F8
:1059A0008F7C8AB96E98479A8BB180638BB9769A4F
:1059B0000E94C2170E941918811102C00E94EB18A0
:1059C00082E090E00E9476308093AC0584E090E025
:1059D0000E94763090E09093900580938F0583E04D
:1059E00090E00E947630282F30E050E040E0CA017D
:1059F000B9010E949E0980910806837011F41092EB
:105A00000C01809108068C7F81608093080680914C
:105A1000080690910906A0910A06B0910B068E83A4
:105A20009F83A887B987BC01CD010E9424188FE00D
:105A300091E09093920580939105BB24B394AA249E
:105A4000AA94EE24E394F12C90E1592E22E1622EE7
:105A500038E1C32ED12C40E4742E8091E2058530CC
:105A600009F468C00E944727EDEAF5E0A4E9B5E033
:105A700010E000E0702F6D912191261709F4A7C066
:105A800090E080E0262730E0A901082E02C055955D
:105A900047950A94E2F740FF95C089837A8397017E
:105AA00002C0220F331F8A95E2F74901862F90E04A
:105AB0008223992121E0892B09F420E02B830E9485
:105AC00010078160782F9D838C8349815A816B8177
:105AD0008D810E941C26F801E355FA4F80818826AB
