:100000000C9469040C9486040C9486040C94860465
:100010000C9486040C9486040C9486040C94860438
:100020000C9486040C9486040C9461330C943D3437
:100030000C9447180C9486040C9486040C94860443
:100040000C9486040C9486040C9486040C94860408
:100050000C9486040C9468300C9486040C948604EA
:100060000C9486040C9486040C9486040C948604E8
:100070000C9486040C9486040C9486040C948604D8
:100080000C9486040C9486040C9486040C948604C8
:100090000C9486040C9486040C9486040C948604B8
:1000A0000C9486040C9486040C94860405010902C1
:1000B000A10185020901A100050919012905150001
:1000C00025019505750181029501750381010501E1
:1000D000093009311581257F950275088106093897
:1000E0001581257F950175088106050C0A380215D2
:1000F00081257F950175088106C0C005010980A191
:1001000001850319012AB700150126B7009501756D
:10011000108100C0050C0901A101850419012AA064
:1001200002150126A002950175108100C005010984
:1001300006A1018505050719E029E71500250195A8
:1001400008750181020507190029EF1500250195A1
:10015000F0750181020508190129059505750191C0
:1001600002950175039101C005010906A10105076A
:1001700019E029E71500250195087501810295010F
:10018000750881010507190029FF150026FF009554
:100190000675088100050819012905950575019165
:1001A00002950175039101C009023B00020100A004
:1001B000FA090400000103010100092111010001F5
:1001C0002240000705810308000A09040100010319
:1001D00000000009211101000122BC000705820373
:1001E00020000A1201100100000008EDFE071301B3
:1001F00000010203010403300000001603450072F1
:100200000067006F0044006F007800200045005A2E
:1002100000000016034500720067006F0044006F85
:10022000007800200045005A000000040309047211
:100230006F6F7401012B31323334353601012800E0
:100240006A756469736F6E40676D61696C2E636F68
:100250006D00000101010101010101010202020220
:100260000202020202030303030303030304040460
:100270000404040405050505050606060606070729
:1002800007070708080808090909090A0A0A0B0BE1
:100290000B0C0C0C0D0D0D0E0E0E0F0F0F10101180
:1002A0001111121213131414151516161717181806
:1002B00019191A1A1B1B1C1D1D1E1E1F202021226E
:1002C00022232424252626272829292A2B2C2D2DB4
:1002D0002E2F30313232333435363738393A3B3CD1
:1002E0003D3E3F404142434445464748494A4C4DC4
:1002F0004E4F50515354555658595A5B5D5E5F618D
:100300006264656668696B6C6D6F7072737577781F
:100310007A7B7D7E8082838587888A8C8E8F91937D
:100320009596989A9C9EA0A2A3A5A7A9ABADAFB1A4
:10033000B3B5B7BABCBEC0C2C4C6C9CBCDCFD1D489
:10034000D6D8DBDDDFE2E4E7E9EBEEF0F3F5F8FA2F
:10035000FDFF0000000000000000000000000000A1
:100360000000000000007E0F00D4FFFFFFC7000068
:10037000007800000000000000002A2B2800000088
:100380000000000000000000000000000029000044
:1003900000002C1E3420212224342627252E362D21
:1003A0003738271E1F202122232425263333362EBB
:1003B00037381F0405060708090A0B0C0D0E0F102D
:1003C0001112131415161718191A1B1C1D2F313072
:1003D000232D350405060708090A0B0C0D0E0F1016
:1003E0001112131415161718191A1B1C1D2F313052
:1003F000354C29002B003900E100E00000001E0010
:10040000340004003300E30003581F0036001200DC
:100410001400E2002A002000370008000D00351605
:100420002C002100130018000E0014550158220062
:100430001C000C001B00000049014C004B00000098
:100440004E000000490235002F000000300000007F
:100450002F002300090007000500000030002400E1
:100460000A000B001000500002582500060017007B
:100470001A0052002C00260015001100190051002E
:10048000280027000F0016001D004F0003582E0003
:1004900031002D00E50038000000C45CC65CC85C7B
:1004A000CA5C01000000C35CC55CC75CC95C01009C
:1004B00001000B5D0F5D135D175D010001000C5D18
:1004C000105D145D185D1B5D01000D5D115D155D16
:1004D000195D010001000E5D125D165D1A5D0000E0
:1004E0000100C25C095D00000A5D0000010001001E
:1004F00001000000010000000100010001000100F6
:1005000001000000010001000100010001000100E4
:1005100001000100010001000100010001000100D3
:1005200001000100010001000100010001000100C3
:10053000010001000100005C010001000100010058
:1005400000000100010001000100010000000100A5
:10055000140004001D000100010001001A00160033
:100560001B00010001000100080007000600010057
:10057000010001001500090019000100010001003F
:1005800017000A0005000000010001000100000042
:100590000100000001000100010000000100000056
:1005A000010001001C000B0011000000010001000F
:1005B00018000D0010000100010001000C000E00E9
:1005C000360001000100010012000F003700010099
:1005D000010001001300330034000100010001009C
:1005E000010001000100010000003D0401000100C4
:1005F0000100010000003A000100010001000100BB
:1006000001003B00010001000100010001003C006D
:10061000010001001C5D010001003D0046002405B1
:100620000100010001003F00010001000100000085
:10063000060149000100000001000000190101004D
:100640004B0000004E0000004A003F000100010086
:10065000500000004D0040004904520051004A0083
:1006600001004100010001004F004B000100420069
:100670001707110701004E00010043000100170594
:1006800001004D000100440045006800DE5CE4000C
:10069000000000000000000000000000000000005A
:1006A000000000000000000000000000000000004A
:1006B000000000000000000000000000000000003A
:1006C000000000000000000000000000000000002A
:1006D000000000000000000000000000000000001A
:1006E000000000000000000000000000000000000A
:1006F00000000000000000000000000000000000FA
:1007000000000000000000000000000000000000E9
:1007100000000000000000000000000000000000D9
:1007200000000000000000000000000000000000C9
:1007300000000000000000000000000000000000B9
:1007400000000000000000000000000000000000A9
:100750000000000000000000000000000000000099
:100760000000000000000000000030FFFF20FFFF3D
:1007700010FFFF00FFFF00000070FFFF60FFFF5051
:10078000FFFF40FFFF000000B0FFFFA0FFFF90FF52
:10079000FF80FFFF000000F0FFFFE0FFFFD0FFFF42
:1007A000C0FFFF0000000000000000FF000000008C
:1007B0000000000000000000000000000000000039
:1007C0000056FFFF56FFFF56FFFF56FFFF56FFFF85
:1007D00056FFFF56FFFF56FFFF56FFFF56FFFF561F
:1007E000FFFF56FFFF56FFFF56FFFF56FFFF0000BB
:1007F00000000000000000000000000000000000F9
:1008000000000000000000000056FFFF56FFFF56EA
:10081000FFFF56FFFF56FFFF56FFFF56FFFF56FF35
:10082000FF56FFFF56FFFF56FFFF56FFFF56FFFF25
:1008300056FFFF56FFFF0000000000000000000010
:100840000000ACFFFFACFFFFACFFFFACFFFFACFF55
:10085000FF000000F0FFFF000000F0FFFF000000BD
:1008600000000056FFFF000000F0FFFFF0FFFF5602
:10087000FFFF56FFFF56FFFF0000000000000000D2
:1008800000000000000000000000ACFFFFACFFFF14
:10089000ACFFFFACFFFFACFFFF000000ACFFFF00B0
:1008A0000000000000000000000000F0FFFF00005A
:1008B00000000000000000000000000000ACFFFF8E
:1008C0000000000000000000000000000000000028
:1008D000000011241FBECFEFDAE0DEBFCDBF26E05F
:1008E000A2EAB3E001C01D92A23CB207E1F713E017
:1008F000A0E0B1E0EAE2F1E702C005900D92A23A71
:10090000B107D9F70E948C300C9422380C94000067
:1009100080B38C7080BB81B3836F81BB089584B139
:10092000807F84B985B1807F85B98AB1837F8AB998
:100930008BB1837F8BB93E9846980895259A2D9A5E
:100940000895269A2E9A0895279A2F9A08955698D0
:100950005E98089525982D98089526982E980895C4
:1009600027982F9808959091BE0692FF06C0282FD1
:1009700028712830F9F4877F846093FF06C0282F00
:1009800028712831F1F4877E84612091BF0620FF11
:1009900006C0382F38713830D9F4877F816021FF45
:1009A00006C0282F28712831D1F4877E816194FDFB
:1009B000877E0895282F24712430F9F68B7F886074
:1009C000DCCF282F2471243101F78B7E8861DDCFA5
:1009D000382F3171313019F78E7F8860E0CF282FA2
:1009E0002171213121F78E7E8861E1CFCF93DF9392
:1009F000972F70E026E0929F600D711D1124FB017E
:100A000034E5839FE00DF11D1124EE0FFF1FEE5022
:100A1000FC4FC591D491CE01C03ED10509F46DC003
:100A200060F5C133D10509F4B2C088F4C932D105EB
:100A300009F4A6C0CA32D10509F4B0C0C130D1054D
:100A400049F12497C13AD10508F063C023C0C933E6
:100A5000D10509F44BC0C238D10509F447C0C533EC
:100A6000D10509F486C0C83AD10508F09EC0C53A40
:100A7000D10520F3849790640DC0C43ED10509F4DC
:100A80005BC058F4C23ED10509F446C0C33ED1054F
:100A900009F447C0DF91CF910895C63ED10509F40E
:100AA00056C0C73ED10509F459C0C11542E5D40767
:100AB00008F0AEC0C11521E5D20708F014C1C83E48
:100AC000D10540F3C11530E5D30708F086C0C11544
:100AD00040E4D40708F004C1CF3FD10511F008F07D
:100AE00076C09065C03FD105A8F613C02091BE0620
:100AF000237081F280EE90E0CDCF2091BE0620FDE4
:100B000009C13091BF0630FFC5CF83EE90E024FFCE
:100B1000C1CF90E080E0BECF2091BE0622FDF5CF90
:100B2000B9CF2091BE0622FDF8C03091BF0630FD3E
:100B3000E1CF24FFAFCFEDCF2091BF0621FFAACF99
:100B40008091BE0684FDE5CF87EE90E0A3CF209193
:100B5000BE0623FF9FCF24FDDCCFF6CF2091BE063B
:100B600023FDDEC03091BF0631FFE3CF84EE90E07D
:100B700091CF2091BE0625FF8DCF89E290E08ACFEC
:100B80002091BE0625FF86CF85E390E083CF20919C
:100B9000BE0626FF7FCF8AE290E07CCF2091BE0682
:100BA00026FF78CF81E390E075CF9E01285A310966
:100BB0002731310508F0ADCF885AE82FF0E0EE0F6D
:100BC000FF1FEC58FC4F80819181946463CFDA95CC
:100BD000C115DF4108F45ECF9CCF9E01B4E036958D
:100BE0002795BA95E1F7237086958695837030E254
:100BF000839FC0011124922BC37021E030E002C01A
:100C0000220F331FCA95E2F7822B932B9C6842CFA9
:100C1000C11549E5D407B8F5C11528E5D20708F094
:100C200070C0C11535E5D307F0F4C11544E5D4070C
:100C300008F062C09C2F96959695AE01437055279B
:100C400021E030E002C0220F331F4A95E2F740E274
:100C5000C115D34508F44CC0949FC0011124822BC8
:100C6000932B9A6817CF95558F3F910511F008F097
:100C700050CF8C2F0E94B30490E0982F88278827AC
:100C80009F71906207CFC1158CE5D807C0F4C115DC
:100C90009BE5D907D8F5CE0199558F3F910511F005
:100CA00008F037CF8C2F8F700E94B30434E0D695B4
:100CB000C7953A95E1F7CF709C2F9069EBCECE01A6
:100CC00090568115904208F024CF8D2F8F710E948D
:100CD000B30490E0982F882788279F718C2BD1CF61
:100CE0009F70906AD7CE9C2F8827816F906AD2CE52
:100CF000949FC001112488CF9C2F8827846F906A0D
:100D0000C9CE9C2F8827806F906AC4CECE019927C8
:100D10009066C0CE89E390E0BDCE82EE90E0BACE80
:100D200086EE90E0B7CEAF92BF92CF92DF92EF9275
:100D3000FF920F931F93CF93DF93362F472FE82F08
:100D4000F0E0EE5AFD4F71110EC06491762F862FA0
:100D5000DF91CF911F910F91FF90EF90DF90CF9097
:100D6000BF90AF900895C72FD0E0249186E0689F90
:100D7000700111240FEF10E0C701B8010E94673520
:100D8000832F90E0880F991F35E5369FF001379F3C
:100D9000F00D11248E1B9F0B982F990F980FF801BF
:100DA000EC1BFD0B2E9FD0012F9FB00D1124EB2FBC
:100DB000949FA0011124452F55276801C41AD50A14
:100DC000A601249F6001259FD00C11248D2D580170
:100DD000A91AB108AC9EA001AD9E500DBC9E500D4D
:100DE0001124452F5527041B150B209FA001219F7F
:100DF000500D112463307105D9F09CEFE91693E092
:100E0000F90668F461307105B9F062307105C1F01E
:100E10009FEFE916F10448F48B2FE52F06C06430EC
:100E2000710589F066307105B9F36E2F722F90CF7E
:100E3000ED2D822F2B2FF9CFE22F2D2D8B2FF5CFDC
:100E4000852FE22FF7CF822F252FEFCF9C0190E047
:100E500080E0269F812D369F800D911D11240895DD
:100E60009C018230910508F408959FEF213E8EE1A8
:100E7000380740F4C90145E0969587954A95E1F712
:100E800098E0980F61E0E62FE90FFF27FF1FAF0101
:100E900055954795842F449FF001459FF00DF00D27
:100EA00011242E173F0738F49FEF940F961758F729
:100EB0008FEF860F08954F3FE9F361E0640FF6CF9F
:100EC000982FE82F96FDE0952E2F2F7096FD2F5F1F
:100ED000E695E695E695E670F0E0E459FC4F8181F1
:100EE000829F802D212D112482958F702295207F45
:100EF000822B2081820F97FD819580580895FC01F7
:100F00009B01009729F480E077FF2BC080E80895CB
:100F1000AC0197FF04C044275527481B590BB90162
:100F2000640F751F37FD10C0241B350BC901A5E0E8
:100F3000880F991FAA95E1F70E947B3580E2861BF6
:100F4000F7FF0FC081950895CB0165E0880F991FC9
:100F50006A95E1F7BA01621B730B0E947B3580E64C
:100F6000EECF08951F93172F922FE42FF0E0EE0F8E
:100F7000FF1FE452FD4F208134EE239F212D1124C9
:100F8000472F50E030E0245E3F4F291B310937FFE7
:100F900003C031952195310993E0220F331F9A95B3
:100FA000E1F7421B530B57FD40E0742F719F712DE9
:100FB00011241F910895582FA22FE42FF0E0EE0F77
:100FC000FF1FE452FD4F208134EE239F212D112479
:100FD00090E030E0245E3F4F2A1B310937FF03C009
:100FE00031952195310943E0220F331F4A95E1F7EE
:100FF000821B930B97FD80E0282F259F212D112424
:10100000822F08950F931F93CF93DF93D62F172F1F
:10101000C82FBA01C901212F201B022F0E947F0770
:10102000982F990F990F782F791B700F719F712D41
:1010300011246D2F8C2FDF91CF911F910F91089567
:101040000F931F93CF93DF93D62FC72F182FBA017B
:10105000C901212F201B022F0E947F07982F990F73
:10106000990F282F291B200F219F212D11246D2F2F
:101070007C2F822FDF91CF911F910F910895EF92D6
:101080000F931F93CF93DF93D62F172FC82FBA013B
:10109000C9010E19010F0E947F07702F781B719FE5
:1010A000712D11246D2F8C2FDF91CF911F910F91F6
:1010B000EF900895EF920F931F93CF93DF93D62F66
:1010C000C72F182FBA01C9010E19010F0E947F07FF
:1010D000081B019F012D11246D2F7C2F802FDF9184
:1010E000CF911F910F91EF900895622F0895E42FF3
:1010F000F0E0EE0FFF1FE452FD4F6081621B089588
:10110000E42FF0E0EE0FFF1FE352FD4F6081621B02
:101110000895A62F372F50E0FA01EE0FFF1FE3527C
:10112000FD4F9081905297FD9195440F551FFA0104
:10113000E452FD4F6081621B770B690F711D97FDB3
:101140007A956A0F732F0895EF920F93972F23E0EC
:10115000029FB0011124759567956E0D792F0F913F
:10116000EF9008950F93CF93DF93D72FC82FF901F6
:1011700047FD419528E330E0241B310947FD3395B5
:10118000229FA001239F500D500D1124EE9FC001FE
:10119000EF9F900D900D1124840F951F0E94300732
:1011A000982F990F692F680F600F7D2F8C2FDF917B
:1011B000CF910F9108950F93CF93DF93D72FC82F1F
:1011C000BA01C9010E947F07682F600F7D2F8C2F05
:1011D000DF91CF910F910895EF920F93CF93DF930B
:1011E000D72FC82FBA01C9010E190E947F07602F9F
:1011F000681B7D2F8C2FDF91CF910F91EF90089579
:101200000F931F93522F10E0F801EE0FFF1FE352D0
:10121000FD4FA081A052BB0B9D015203F001539FD3
:10122000F00D1124000F111FD801A452BD4F0C91D5
:101230000057110B40039001419F300D11242E0FD8
:101240003F1F37FF02C021583F4F220F232F221F7D
:10125000330B620F1F910F9108950F931F93522F1D
:1012600010E0F801EE0FFF1FE352FD4FA081A052E6
:10127000BB0B9D015203F001539FF00D1124000F91
:10128000111FD801A452BD4F0C910057110B400300
:101290009001419F300D11242E0F3F1F37FF02C0D8
:1012A000215C3F4F96E0359527959A95E1F7620FBF
:1012B0001F910F9108950F931F93522F10E0F80183
:1012C000EE0FFF1FE452FD4F9081905797FD9195CF
:1012D000000F111FF801E352FD4F00810052110B66
:1012E00050039001519F300D112408E310E0091BB9
:1012F000110997FD13954003F001419FF00D112452
:10130000E20FF31F9F01220F331F2E0F3F1F37FFE6
:1013100002C021583F4F220F232F221F330B620F91
:101320001F910F9108954095282F429F412D112420
:10133000842F0895962F62E8641B08F460E0690F1B
:101340000895EF92FF920F93282FC70135E0039F76
:10135000800D911D11248F3F910519F010F08FEF32
:1013600090E08095382F230F08F42FEF822F0F91F4
:10137000FF90EF900895EF92FF920F93E00EF11C13
:10138000F90137FF03C0F195E195F10924E0EE0F73
:10139000FF1F2A95E1F7EF3FF10519F014F0EFEF89
:1013A000F0E09A0157FF03C031952195310994E08F
:1013B000220F331F9A95E1F72E173F070CF4F9011E
:1013C000EE0DFF1DEF3FF10519F010F0EFEFF0E02B
:1013D000E095282F3E2F230F08F42FEF822F0F9137
:1013E000FF90EF900895EF92FF920F93972FFA01DD
:1013F000B9019701093430F4201B31092F3F310521
:1014000019F010F02FEF30E03896719740F0AB01F3
:10141000485F5F4F4131510510F02FEF30E02095CC
:10142000382F320F08F43FEF77FF02C06D5F7F4F18
:1014300075956795759567958091BA06680F792FB0
:10144000832F0F91FF90EF900895EF92FF920F93EB
:10145000282FC701801B91098F3F910519F010F0CB
:101460008FEF90E0382F3095230F08F42FEF680F9F
:10147000822F0F91FF90EF900895EF92FF920F93BC
:10148000282FC701801B91098F3F910519F010F09B
:101490008FEF90E08095382F230F08F42FEF822FE5
:1014A0000F91FF90EF9008950C94950A0F931F935E
:1014B000CF93DF9320E9289FE001299FD00D1124CD
:1014C000CE56D94F10E000E0FE0164913196749140
:1014D00031968491962F972B982B89F420E040E049
:1014E00060E0C8010E94540A0F5F1F4F239600332B
:1014F000110551F7DF91CF911F910F9108950E942F
:101500009306462F672F282FECCF0C94BF0A40E09C
:1015100060E080E00E94850A40E060E080E00E9498
:10152000850A81E08093C0060895FC01C09730F5DC
:10153000EE0FFF1FEE0FFF1FE853FE4F5281338166
:1015400080818370A82FB0E07181E0E98E9FC00197
:101550001124815E9A4FFC01E70FF11DB49760835F
:10156000FC01E50FF11DB4974083830F911DFC0131
:10157000B4972083A15CB94F81E08C930895FF92CA
:101580000F931F93CF93DF93182F062FF42ED0E0E5
:10159000C0E02F2D402F612FCE010E94950A219689
:1015A000C033D105B1F7DF91CF911F910F91FF901B
:1015B0000895FA0181110994FB01FDCFE091050521
:1015C000F0910605309721F00190F081E02D09940B
:1015D00080E008952091030530910405281739070C
:1015E00071F09093040580930305E0910505F09157
:1015F0000605309721F00680F781E02D09940895C3
:1016000020910105309102052817390771F0909358
:10161000020580930105E0910505F09106053097DC
:1016200021F00084F185E02D099408958091CA0489
:101630009091C904981301C008958F5F8770FACF05
:10164000292F220FE22FE90FEE0FE80F8E2F877060
:1016500041E001C0440F8A95EAF7E695E695E695E4
:1016600085E0E89FF0011124E25CFB4F30E020E0D0
:1016700070E05191DF011197CB01022E02C09695C7
:1016800087950A94E2F781708195852784238527C1
:101690008C932F5F3F4F2530310559F70895292F3F
:1016A000220FE22FE90FEE0FE80F9E2F9770E695BD
:1016B000E695E69585E0E89FF0011124E25CFB4F9A
:1016C00050E040E080E0219130E0092E02C03695E4
:1016D00027950A94E2F721703327042E01C0220FC8
:1016E0000A94EAF7822B4F5F5F4F4530510559F757
:1016F0000895BF92CF92DF92EF92FF920F931F93C4
:10170000CF93DF938C01C090B204D090B304E090EB
:10171000B404F090B5048091AE049091AF04A09110
:10172000B004B091B104C82AD92AEA2AFB2ACFE131
:10173000D0E0BC2ED701C6010C2E04C0B695A795EB
:10174000979587950A94D2F780FD0EC0219788F768
:10175000B12C8B2DDF91CF911F910F91FF90EF90C6
:10176000DF90CF90BF900895B8018C2F0E94F604AF
:10177000019761F3EECFFF920F931F93CF93DF9307
:10178000FC01828100811181C081F180882311F1E7
:10179000662301F1C8010E94790BD82F682FC80178
:1017A0000E94200BEC2FF0E086E0F89EE00DF11D8A
:1017B000112484E5D89FE00DF11D1124EE0FFF1FC9
:1017C000EE50FC4F85919491DF91CF911F910F9135
:1017D000FF900895C8010E944F0BD82FE3CFCF93FD
:1017E000DF93D82FC92F0E94790B6D2F7C2FDF91AB
:1017F000CF910C94F6040E94EF0B282F892F8F7045
:10180000392F32953F70903C80F43A30B0F4343048
:1018100020F4323090F480E008953630E1F781E032
:10182000283E88F0213FB9F70EC03C3011F03F3020
:1018300091F7869586958695089581E0203F39F049
:1018400018F4283E40F70895243F29F7FCCF089567
:10185000909119019923C1F09091BE0697FF14C091
:10186000E82FE695E695E695803FF8F4F0E0EA5536
:10187000FC4F877021E030E001C0220F8A95EAF723
:101880008281822B82830895A8EAB3E0EFEF90E093
:101890002D91821751F0EF3F19F4211101C0E92F6A
:1018A0009F5F9630A9F7EF3F09F408950E2E000CC4
:1018B000FF0BEA55FC4FE6CF909119019923E1F017
:1018C0009091BE0697FF18C0E82FE695E695E6953D
:1018D000803FF0F4F0E0EA55FC4F877021E030E003
:1018E000A90102C0440F551F8A95E2F7CA018095ED
:1018F0009281892382830895E8EAF3E09191891324
:1019000003C0DF0111971C9253E0EE3AF507B1F7DF
:1019100008958091AD0481111092AD0408958091D5
:10192000AB049091AC04892B90917504892B809322
:10193000A6039091AD049923A1F0892B8093A6036F
:1019400080911901882341F18091BE0687FF24C050
:101950008EE1E8EAF3E090E0815000F591110E94F9
:10196000890CE0910505F09106053097E1F0809132
:101970001901882359F08091BE0687FF07C0809126
:10198000A6038093A70385E08093A6030280F381DA
:10199000E02D86EA93E0099486E0DBCF21912223B3
:1019A000D9F29F5FD9CF0895882339F09091AB0485
:1019B000892B8093AB040C948F0C0895882341F0FD
:1019C00080959091AB0489238093AB040C948F0C89
:1019D0000895882339F09091AC04892B8093AC044E
:1019E0000C948F0C0895882341F080959091AC045D
:1019F00089238093AC040C948F0C08950F931F934C
:101A0000462F572FBC01CB01AA27BB270097A10562
:101A1000B105E9F1AC01BD0180E1052F162F272F9B
:101A20003327011511052105310519F0885FB9012A
:101A3000A8018A019B01F4E0369527951795079533
:101A4000FA95D1F7011511052105310519F08C5FC3
:101A5000B901A8018A019B01E2E036952795179507
:101A60000795EA95D1F7011511052105310519F002
:101A70008E5FB901A8017695679557954795452BD7
:101A8000462B472B09F08F5F1F910F91089580E03F
:101A9000C4CF9C014FB7F8948091350490913604DF
:101AA000A0913704B09138044FBF821B930B089567
:101AB0008091760480FD16C081FD16C082FD18C09D
:101AC00080917704882391F08C3390F423E2829FF5
:101AD000C00111246CE370E00E947B35862F672BD8
:101AE00049F0089588E0089581E1089585E008951A
:101AF00083E2089581E008958091760480FD16C008
:101B000081FD16C082FD16C0809177048823A1F064
:101B1000883280F428E0829FC001112468E270E0DE
:101B20000E947B35862F672B39F0089582E0089557
:101B300084E0089588E0089581E00895803F31F4BD
:101B40000E94580D819580937B040895813F19F47C
:101B50000E94580DF8CF823F31F40E94580D8195B4
:101B600080937A040895833F19F40E94580DF8CFAA
:101B7000893F29F40E947C0D80937C0408958A3F5C
:101B800021F40E947C0D8195F7CF8B3F31F40E94A8
:101B90007C0D819580937D0408958C3F19F40E94FB
:101BA0007C0DF8CF843F31F480917904816080937B
:101BB00079040895853F21F4809179048260F7CFFC
:101BC000863F21F4809179048460F1CF873F21F42E
:101BD000809179048860EBCF883F21F4809179046B
:101BE0008061E5CF8D3F31F48091760481608093F0
:101BF000760408958E3F21F4809176048260F7CFB9
:101C00008F3FB9F7809176048460F1CF90917A0488
:101C1000803F41F480917B0487FD10927B049923DF
:101C200071F00895813F29F480917B041816ACF37C
:101C3000F6CF823F81F497FFF2CF10927A04809121
:101C40007B0490917C04892B90917D04892B49F72A
:101C5000109277040895833F19F4191674F3DFCFB7
:101C6000893F39F480917C041816CCF610927C04DC
:101C7000D6CF8A3F29F480917C0487FFD0CFF6CF5E
:101C80008B3F39F480917D0487FFC9CF10927D048A
:101C9000C6CF8C3F29F480917D041816BCF3BFCFCA
:101CA000843F31F4809179048E7F80937904B7CF9B
:101CB000853F21F4809179048D7FF7CF863F21F411
:101CC000809179048B7FF1CF873F21F48091790453
:101CD000877FEBCF883F21F4809179048F7EE5CF19
:101CE0008D3F31F4809176048E7F8093760497CF78
:101CF0008E3F21F4809176048D7FF7CF8F3F09F0DE
:101D00008ECF809176048B7FF0CF8091320408953E
:101D100080911104843011F482E0089581E00895E7
:101D2000FC01CB012091DC033091DD03261737073E
:101D300090F0009729F42091E8002E772093E80096
:101D400040E0009751F4411108C08091E80082FF03
:101D500031C080E00895C901F3CF209111042223FE
:101D6000A9F12530A9F12091E80023FD2DC0209193
:101D7000E80022FDEACF2091E80020FFE2CF309179
:101D8000F3002091F200009719F02830310558F047
:101D900041E02830310509F040E02091E8002E773D
:101DA0002093E800CECF41914093F10001972F5F3F
:101DB0003F4FE9CF80911104882341F0853041F0F5
:101DC0008091E80083FFC1CF81E0089582E008950B
:101DD00083E008958091D60387FF13C08091E800C7
:101DE00082FF06C08091E8008B778093E80004C0F2
:101DF000809111048111F2CF0895809111048823FC
:101E0000D9F38091E80080FFF8CF8091E8008E77C9
:101E1000ECCF2091E4003091E50095E6A9012091F6
:101E2000EC00822F817020FF06C08091E80080FFC7
:101E300006C080E008952091E80022FD1AC080913C
:101E40001104882389F0853089F08091EB0085FDAD
:101E50000FC02091E4003091E50042175307F9F2DA
:101E60009150E1F684E0089582E0089583E00895BA
:101E700081E00895E8EDF0E080818E7F808310920C
:101E8000E2001092DA001092E100A0EEB0E08C9136
:101E900081608C9380818F77808319BCA7EDB0E03F
:101EA0008C918E7F8C9380818F7E80831092D5035E
:101EB0000895EF92FF920F931F93CF937C018B01B4
:101EC0000E94090FC82F811117C08091E80085FD7D
:101ED0000BC08091E8008E778093E8000E94090F84
:101EE000882399F3C82F08C0F70181917F0180935F
:101EF000F1000150110949F78C2FCF911F910F91DB
:101F0000FF90EF900895DF92EF92FF920F931F934F
:101F1000CF93DF937C0180910C01C82FCC0FCC0FA5
:101F2000C80F15E01C0FD12E113310F080E3D82E0E
:101F30006091BD066695669580919F049091A0047E
:101F40000E942607082FD0E0CD1560F081E0103305
:101F500008F080E0DF91CF911F910F91FF90EF90FB
:101F6000DF900895FE01E45CFC4F808190910D01AB
:101F7000892391F06091BA067091BB068091BC06EE
:101F8000202F4C2FF70109950E949306462F672FAB
:101F9000282FCE010E94540A2196D6CFAF92BF922D
:101FA000CF92DF92EF92FF920F931F93CF93DF9325
:101FB0005C0180910C01C82FCC0FCC0FC80F15E02D
:101FC0001C0FC12E113310F030E3C32E6091BD06FB
:101FD000669580919F049091A0040E942607D82EB8
:101FE000D0E0CE01880F991F9C0124523D4F79010A
:101FF000CC1578F081E0103308F080E0DF91CF91CC
:102000001F910F91FF90EF90DF90CF90BF90AF9016
:102010000895FE01E45CFC4F808190910D018923BD
:10202000C1F0F70121812052330B40814057550BFD
:102030006091BA067091BB068091BC060D2DF5012A
:1020400009950E949306462F672F282FCE010E94E4
:10205000540AF2E0EF0EF11C2196CACF5F926F9204
:102060007F928F929F92AF92BF92CF92DF92EF9228
:10207000FF920F931F93CF93DF934C0180910C013C
:10208000C82FCC0FCC0FC80F15E01C0F512E1133E9
:1020900010F030E3532E6091BD06669580919F0449
:1020A0009091A0040E942607F82ED0E0CE01880F60
:1020B000991F9C0124523D4F6901C515A0F081E094
:1020C000103308F080E0DF91CF911F910F91FF90C6
:1020D000EF90DF90CF90BF90AF909F908F907F90C8
:1020E0006F905F900895FE01E45CFC4F80819091B9
:1020F0000D01892379F1F6018081282F2057330BB8
:1021000059018181E82FE052FF0B3F01AA9C900109
:10211000AB9C300D300D1124EE9FC001EF9F900D50
:10212000900D1124820F931F0E943007082F609199
:10213000BA067091BB068091BC06EF2C9301A501F5
:10214000F40109950E949306462F672F282FCE0190
:102150000E94540AF2E0CF0ED11C2196AECFBF925E
:10216000CF92DF92EF92FF920F931F93CF93DF9363
:1021700000D000D00F92CDB7DEB76C0180910C017A
:10218000982F990F990F980F9B8325E0F22EF90E47
:10219000BF2CE0E3EF1510F480E3B82E6091BD068C
:1021A0006695669580919F049091A0040E942607F1
:1021B000182F80E4810F0E94600780588983812F47
:1021C0000E94600780588A839B81892F90E09D83BD
:1021D0008C839C819B15A0F081E0EFE2EF1508F461
:1021E00080E00F900F900F900F900F90DF91CF91A4
:1021F0001F910F91FF90EF90DF90CF90BF900895C7
:10220000EC81FD81E45CFC4F808190910D0189237C
:10221000A9F06091BA067091BB068091BC06E12ED0
:102220000C812A814981F60109950E949306462F67
:10223000672F282F8C819D810E94540A8C819D815B
:102240000196C5CFAF92BF92CF92DF92EF92FF92ED
:102250000F931F93CF93DF937C0180910C01C82FC4
:10226000CC0FCC0FC80F25E0D22EDC0ECD2C80E396
:102270008D1510F490E3C92E2091BD0630E050E09A
:1022800040E06FEF7FEF80E090E00E94BF37890170
:10229000D0E0B22EA12E2C2FCC1580F081E0FFE2F1
:1022A000FD1508F480E0DF91CF911F910F91FF9011
:1022B000EF90DF90CF90BF90AF900895FE01E45C67
:1022C000FC4F808190910D018923F9F04091900697
:1022D0004150042E000C550B47FF19C08B2D9A2D31
:1022E0006091BD060E942607AC016091BA0670910C
:1022F000BB068091BC06F70109950E949306462F04
:10230000672F282FCE010E94540A2196C4CFFA01CC
:10231000E057F94F818982130AC0FA01EE0FFF1FBF
:10232000E057F94F818D928D80179107C8F2415087
:102330005109D2CF2F923F924F925F926F927F922C
:102340008F929F92AF92BF92CF92DF92EF92FF92C5
:102350000F931F93CF93DF93CDB7DEB729970FB6B7
:10236000F894DEBF0FBECDBF282E6A837B83809199
:102370000C01282F220F220F280F2E832B5F298379
:102380002C83213310F030E33C83809190068D83C1
:10239000FE81EF2FF0E0F987E887CF01880F991FC2
:1023A0009C0124523D4F6901822D90E0FC01319641
:1023B000FF83EE838C8198859817F0F081E0E981A6
:1023C000E03308F080E029960FB6F894DEBF0FBE28
:1023D000CDBFDF91CF911F910F91FF90EF90DF90D4
:1023E000CF90BF90AF909F908F907F906F905F90B5
:1023F0004F903F902F900895E885F985E45CFC4F5D
:10240000808190910D018923F1F04090BA0650909F
:10241000BB062E813F812057394F3901322C10E005
:10242000FD813F16D0F02091BC06129F112D112482
:10243000B201812F0E949306462F672F282F88858F
:1024400099850E94540A288539852F5F3F4F398727
:10245000288732E0C30ED11CADCFF30181913F013B
:10246000F601A080A81ABB088180F3018781881A31
:102470009908AA9C9001AB9C300D300D1124889CCA
:10248000C001899C900D900D1124820F931F0E9412
:102490003007082FF301EE0FFF1FE059F64060915F
:1024A000BD06858996890E9426077C019401A501B5
:1024B000B201812FEA81FB8109952B01182F3394FA
:1024C000AFCF982F9093E900242F762F50E08917F3
:1024D00031F07091EC002091ED005091F00021FD61
:1024E00006C09F5F973071F78093E900089530919F
:1024F000EB003E7F3093EB003091ED003D7F309359
:10250000ED003091EB0031603093EB007093EC0004
:102510002093ED005093F0002091EE0027FDE1CFD5
:102520000895CF92DF92EF92FF920F931F93CF9374
:10253000DF93C8EDD0E088818F7E8883E7EDF0E0FF
:1025400080818160808384E082BF81E08093D503B5
:1025500088818E7F888302EE10E0F801108210924D
:10256000DA0081EEC82ED12CF601108288818F7797
:10257000888388818068888388818F7D888319BC5F
:10258000109211041092D403109210041092D303ED
:1025900090EEE92EF12CF70180818B7F808388817A
:1025A0008160888342E060E080E00E946112F60171
:1025B00080818E7F8083F80180818160808380812B
:1025C00088608083F70180818E7F8083888180612D
:1025D0008883DF91CF911F910F91FF90EF90DF9053
:1025E000CF900895CF93DF93873058F580911B01EA
:1025F00090911C01C0E0892B71F464E670E081E4E5
:102600000E94873490931C0180931B01892B39F021
:10261000C0E00E9463358C2FDF91CF91089584E64E
:1026200090E00E941235EC0197FF05C090931C01C9
:1026300080931B01EDCFC09510921C0110921B01DD
:10264000E8CFCFB12FB1269526952C73C3702C2BD4
:10265000C22FC095E0CFCF93C82F873070F58091FF
:102660001B0190911C01892B99F564E670E080E4D0
:102670000E94873490931C0180931B01892BD1F415
:1026800064E670E082E10E94E33490931C01809341
:102690001B01892B79F481E090E001C0880FCA9575
:1026A000EAF764E670E080950E94E33490931C01A1
:1026B00080931B01CF910C9463358B30C9F050F49B
:1026C000893081F08A3089F0883049F0209A289842
:1026D000CF9108958C3079F4539A5B98F9CF219A71
:1026E0002998F6CF229A2A98F3CF239A2B98F0CFE5
:1026F000529A5A98EDCF3E9A4698EACF0E94A70484
:102700000E94AA040E94AD040E94B0048FEF90E0E2
:10271000909389008093880090938B0080938A0027
:1027200090938D0080938C000E949E042FEF80E791
:1027300092E0215080409040E1F700C000000E94EC
:10274000A1042FEF80E792E0215080409040E1F714
:1027500000C000000E94A4042FEF80E792E0215007
:1027600080409040E1F700C000000E94AA042FEFD3
:1027700080E792E0215080409040E1F700C00000E7
:102780000E94AD042FEF80E792E0215080409040FE
:10279000E1F700C000000E94B0040E94A7040E945C
:1027A000AA040E94AD040C94B004CF93DF93D82FF9
:1027B000C92F0E94880E823011F08430C9F58091B3
:1027C00019018823C1F18091BE0687FF34C060E201
:1027D00082E08093E9008FEF9091E800815095FDB1
:1027E00006C095ED9A95F1F700008111F5CF809123
:1027F000E80085FF1DC08091190170E050E040E0C5
:10280000811104C050E040E068E070E08D2F9C2F03
:102810000E94590F8091E8008E778093E80080E253
:10282000ED2FFC2FA2E1B4E001900D928A95E1F723
:10283000DF91CF91089568E081E0CBCFCF93DF9314
:10284000D82FC92F0E94880E823011F0843001F5F4
:1028500082E08093E9008FEF9091E800815095FD30
:1028600006C095ED9A95F1F700008111F5CF8091A2
:10287000E80085FF0DC050E040E066E070E08D2F7D
:102880009C2F0E94590F8091E8008E778093E8007A
:10289000DF91CF910895CF93DF9300D00F92CDB702
:1028A000DEB790911104943019F589836A837B8394
:1028B00082E08093E9008FEF9091E800815095FDD0
:1028C00006C095ED9A95F1F700008111F5CF809142
:1028D000E80085FF0DC050E040E063E070E0CE010D
:1028E00001960E94590F8091E8008E778093E8004E
:1028F0000F900F900F90DF91CF910895BC0183E06E
:102900000C944B14CF93DF93D82FC92F0E94880EBD
:10291000823011F0843039F46D2F7C2F84E0DF9108
:10292000CF910C944B14DF91CF91089580E290E009
:1029300090931C0180931B018091C10681110EC0F0
:102940000E94813481E08093C1062FEF83ED90E3F4
:10295000215080409040E1F700C0000064E670E044
:1029600080E40E94873490931C0180931B01892B83
:1029700009F04EC064E670E080E00E94E33490937A
:102980001C0180931B01892B09F042C064E670E0B2
:1029900080E00E94E33490931C0180931B01892BFB
:1029A000B9F564E670E08FE30E94E33490931C0174
:1029B00080931B01892B61F50E94633564E670E00A
:1029C00080E40E94873490931C0180931B01892B23
:1029D000F9F464E670E08CE00E94E33490931C010B
:1029E00080931B01892BA1F464E670E080E00E94D3
:1029F000E33490931C0180931B01892B49F464E616
:102A000070E08FE30E94E33490931C0180931B01DC
:102A10000E94633580911B01089545E050E06CE110
:102A200070E089EB96E00C948B37E9EBF6E081E3FC
:102A3000808380911D0190911E01A0911F018183CF
:102A40009283A3838FE784830C940D158091B9063C
:102A5000982F969596959F5F9F738370943248F454
:102A6000990F990F892B8093B90610921A010C9433
:102A70000D158460F8CF8091B90684508093B90613
:102A8000982F9C7F21F483708C688093B9061092F4
:102A90001A010C940D15E9EBF6E08181885F8183C2
:102AA0000C940D15E9EBF6E08181885081830C943C
:102AB0000D15E9EBF6E0228130E1230F08F42FEF4A
:102AC00022830C940D15E9EBF6E0228130E1231B03
:102AD00008F420E022830C940D15E9EBF6E0238145
:102AE00030E1230F08F42FEF23830C940D15E9EB4D
:102AF000F6E0238130E1231B08F420E023830C94CB
:102B00000D15E9EBF6E0248130E1230F08F42FEFF7
:102B100024830C940D15E9EBF6E0248130E1231BAE
:102B200008F420E024830C940D159091B906969535
:102B30009695981720F0961710F40C942615880F88
:102B4000880F9091B9069370892B8093B9061092E3
:102B50001A010C940D15EBE0F5E06083418324E647
:102B600030E042E050E0BF01880F0C943635CF933F
:102B7000DF93C82F4BE06DEF0E94AB1540E06AE099
:102B80008C2F0E94AB158FE39CE90197F1F700C0F1
:102B9000000040E060E08C2F0E94AB1540E061E057
:102BA0008C2F0E94AB1540E066E08C2F0E94AB1585
:102BB00040E06DEF8C2F0E94AB15D0E040E06D2F10
:102BC0008C2F0E94AB15DF5FD231C1F740E06D2F33
:102BD0008C2F0E94AB15DF5FD432C1F740E06D2F20
:102BE0008C2F0E94AB15DF5FD43BC1F74BE06DEF3C
:102BF0008C2F0E94AB1541E06AE08C2F0E94AB1530
:102C000040E06DEF8C2FDF91CF910C94AB150F93BB
:102C10001F93CF93DF93082FE62FF0E0EF5BF94F80
:102C20008081882379F082E1689FE0011124CD5BE7
:102C3000D94F10E04991612F802F0E94AB151F5F83
:102C40001231C1F7DF91CF911F910F9108956F92CB
:102C50007F928F929F92AF92BF92CF92DF92EF922C
:102C6000FF920F931F93CF93DF930E94813484E7E9
:102C70000E94B71587E70E94B715E8ECEE2EE1E059
:102C8000FE2ED12CC12CF2E17F2EA8E08A2E912CB1
:102C9000AA24A394B12C66246394D70111966C9155
:102CA000119770E0CB01849712960C911297045201
:102CB000110B1396EC91E452FF0BD601AA0FBB1F28
:102CC000AA0FBB1FA853BE4F2C91237030E0AC015C
:102CD00097FF02C0495F5F4F63E0559547956A953E
:102CE000E1F7729EE001739ED00D1124CD5BD94FA8
:102CF000C40FD11DB4010E947B35A50101C0440F52
:102D00008A95EAF78881842B8883C80117FD079686
:102D100053E0959587955A95E1F7729EE001739E71
:102D2000D00D1124CD5BD94FC80FD11DC801B401FE
:102D30000E947B35A50101C0440F8A95EAF788817E
:102D4000842B8883CF01F7FD079643E095958795FF
:102D50004A95E1F7729EE001739ED00D1124CD5B80
:102D6000D94FC80FD11DCF01B4010E947B35A501F9
:102D700001C0440F8A95EAF78881842B88832F5BF2
:102D8000394FF9016082FFEFCF1ADF0A84E0E80EC5
:102D9000F11CA0E3CA16D10409F07FCF60E084E7FC
:102DA0000E94071661E087E7DF91CF911F910F9195
:102DB000FF90EF90DF90CF90BF90AF909F908F905B
:102DC0007F906F900C940716EF92FF921F93CF9312
:102DD000DF937B01182F110FD0E0C0E08C2F8C5DAA
:102DE00080930B05D701AC0FBD1FECE0F5E08D9192
:102DF000819385E0EC31F807D1F724E630E041E13A
:102E000050E06BE075E0812F0E9436356096C03946
:102E1000D10521F7DF91CF911F91FF90EF90089599
:102E200080913F06882329F06FE175E084E70E94D6
:102E3000E41610923F0680914006882329F06FEA3D
:102E400075E087E70E94E4161092400608956091AD
:102E500007058CE090E00C949B376CEE7EEF90E0E1
:102E600080E00E94B93760E082E090E00E949B37EA
:102E700060E083E090E00E949B371092AE041092D5
:102E8000AF041092B0041092B10460E084E090E0CE
:102E90000E949B3760E081E290E00E949B3760E0F7
:102EA00085E090E00E949B3760E086E090E00E9421
:102EB0009B376FEF87E090E00E949B3740E050E047
:102EC000BA0188E090E00E94AD3760E08DE090E0CC
:102ED0000E949B3740E050E0BA0188E190E00E94F8
:102EE000AD3760E087E190E00E949B3740E050E022
:102EF000BA018CE190E00E94AD3760E080E290E0A2
:102F00000E949B3710923A0410923B0410923C04AA
:102F100010923D0484E0806180933A0444E150E0E3
:102F200060E070E08FE090E00E94AD3740E050E05C
:102F3000BA0183E190E00C94AD370E9427161092FD
:102F4000900640E150E06FEF70E089EA96E00E9461
:102F500060371092670640E150E06FEF70E080E864
:102F600096E00E94603790E080E00E9485378C3EBA
:102F70009E4F21F00E942D170E94151545E050E04C
:102F80006CE170E089EB96E00E9467378091B906AA
:102F90008C7F11F40C9415150895CF9384E090E084
:102FA0000E947737C82F81E290E00E947737982FF0
:102FB0008C2FCF910895DF92EF92FF920F931F9382
:102FC000CF93DF93EC01FC01E45CFC4F8081909196
:102FD0000D01892381F1D090BB060091BC061091B0
:102FE000BA06E12EF12C0E941F36282FC7018C54FF
:102FF0009F4F68E671E00E947B358E199F0997FD0F
:10300000039695958795959587952370612F289FB1
:10301000600D11247D2D802F0E949306462F672F6F
:10302000282FCE01DF91CF911F910F91FF90EF904C
:10303000DF900C94540ADF91CF911F910F91FF9074
:10304000EF90DF9008951F93CF93DF93EC01FC0185
:10305000E45CFC4F808190910D018923A1F00E94D6
:103060001F36182F0E941F36782F612F8091BC06C3
:103070000E949306462F672F282FCE01DF91CF9114
:103080001F910C94540ADF91CF911F9108951F92C4
:103090001FB61F9211248F939F93AF93BF9380917C
:1030A0003904811113C08091350490913604A091A8
:1030B0003704B09138044196A11DB11D80933504A9
:1030C00090933604A0933704B0933804BF91AF9126
:1030D0009F918F911F901FBE1F9018952FB7F89446
:1030E0008091350490913604A0913704B091380452
:1030F0002FBF0895E0910505F0910605309749F03E
:1031000082E0809378040480F581E02D88E794E0E4
:1031100009950E946E1890933404809333040895A7
:10312000CF93C82F882309F4AEC08238C1F40E941F
:10313000DE0A81FDA8C089E30E94280C0E948F0C42
:103140002FEF31EE84E0215030408040E1F700C0A5
:10315000000089E30E945C0CCF910C948F0C8338A3
:10316000A1F40E94DE0A80FD8EC083E50E94280C37
:103170000E948F0C9FEF21EE34E0915020403040B0
:10318000E1F700C0000083E5E5CF8438A1F40E9498
:10319000DE0A82FD78C087E40E94280C0E948F0C12
:1031A0008FEF91EE24E0815090402040E1F700C085
:1031B000000087E4CFCF8CEF8C0F813A90F580919F
:1031C0001901882301F18091BE0687FF1CC0EC2FF6
:1031D000E695E695E695F0E0EA55FC4F828190E0B1
:1031E0004C2F477021E030E002C0220F331F4A9578
:1031F000E2F782239323892B81F08C2F0E945C0CB1
:103200000E948F0C0AC0E8EAF3E08EEA93E0219175
:10321000C21799F38E179F07D1F78C2F0E94280CA5
:103220009BCF80E28C0F883068F4C77021E030E0DB
:1032300001C0220FCA95EAF78091AB04822B8093DC
:10324000AB048ACF8BE58C0F833038F42C2F2452BB
:10325000330BC901CF910C94EA0AE8E5EC0FE73192
:1032600050F4F0E0EE0FFF1FEC58FC4F808191818D
:10327000CF910C94000BC03F30F08C2F0E949E0D1C
:10328000CF910C947A18CF910895882309F459C0EE
:10329000823871F40E94DE0A81FF53C089E30E94E4
:1032A000280C0E948F0C89E30E945C0C0C948F0CFC
:1032B000833859F40E94DE0A80FF43C083E50E94F0
:1032C000280C0E948F0C83E5EFCF843859F40E94BC
:1032D000DE0A82FF36C087E40E94280C0E948F0C11
:1032E00087E4E2CF9CEF980F913AF0F290E2980FCA
:1032F000983088F4877021E030E0A90102C0440FC3
:10330000551F8A95E2F7CA0180959091AB048923F5
:103310008093AB04CBCF9BE5980F933020F490E0E3
:1033200080E00C94EA0A98E5980F973120F490E039
:1033300080E00C94000B803F20F00E94060E0C945D
:103340007A180895CF93C82F0E949018C93349F472
:103350002FEF87EE93E0215080409040E1F700C0CE
:1033600000008C2FCF910C944519CF92DF92EF92F1
:10337000FF920F931F93CF93DF93EC018AE0D82E37
:10338000FE018491882309F484C0813009F041C092
:1033900031968491813051F42296FE011491812F4F
:1033A0000E949018812F0E94451907C0823039F47D
:1033B0002296FE0184910E9490182196E1CF8330DD
:1033C00021F42296FE018491EECF843009F05FC093
:1033D0002296FE01249180E090E0FE013196205378
:1033E000330B2A30310550F0009739F3EFE9FFE055
:1033F0003197F1F700C000000197F6CFD89EA001E9
:10340000D99E500D1124C901840F951F2491EF01FD
:10341000E4CFE82FF0E0EE58FC4FC490082F06955B
:103420000695069510E0F801EE59FC4FE490877080
:10343000F12C082E02C0F594E7940A94E2F7F1E02B
:10344000EF22FF240E5A1C4FF801049110E002C035
:10345000159507958A95E2F701701127E114F1049B
:1034600019F081EE0E9490180115110519F086EEF1
:103470000E9490188C2D0E94A219012B19F086EE43
:103480000E94451981EEEF2809F497CF8CCFEF0108
:1034900094CFDF91CF911F910F91FF90EF90DF902C
:1034A000CF9008951092AC04109275040E948F0C76
:1034B00086E0E8E7F4E0DF011D928A95E9F71092D3
:1034C0007704109276040E947A1890E080E00E94BF
:1034D000EA0A90E080E00C94000B1092AB0480911B
:1034E0001901E8EAF3E0882359F08091BE0687FFCE
:1034F00007C08EE1DF011D928A95E9F70C94521AFC
:1035000086E0F8CF1F93CF93DF93CDB7DEB7AA97AE
:103510000FB6F894DEBF0FBECDBF86ED93E0FC0181
:1035200001962091F100208323E08E3D9207B9F7A8
:103530008091D703893009F456C0C8F4823009F469
:10354000B1C0833009F480C0813071F18091E8000E
:1035500083FF84C28091D6039091D7039A3008F0FC
:103560007DC2E92FF0E0EC5DF74C0C948F358A308A
:1035700009F487C08B3051F78091D603813231F73F
:103580008091DA039091DB03892B01F78091E800A9
:10359000877F8093E8000E94EA0E8091D803809391
:1035A00019010E946D1AD2CF8091D603813A71F62B
:1035B0008091E800877F8093E8008091DA03909102
:1035C000DB03892B61F460E282E194E070E00E9409
:1035D000900E8091E8008B778093E800B7CF60E091
:1035E00090E080E0F3CF8091D603813209F0AECF36
:1035F0008091DA039091DB03029708F0A7CF8091C6
:10360000E800877F8093E8008091E80082FF17C080
:103610009091F3008091F200029729F48091F100DB
:103620008B7F813021F48091F1008093320480916E
:10363000E8008B778093E8000E94EA0E87CF8091A4
:1036400011048111E1CF82CF8091D603813A09F034
:103650007DCF8091DA039091DB03892B09F076CF3F
:103660008091E800877F8093E8008091E80080FFE8
:10367000FCCF809119018093F1008091E8008E7752
:10368000D9CF8091D603813209F060CF8091E800D4
:10369000877F8093E8000E94EA0E8091D90380938F
:1036A000D20354CF8091D603813A09F04FCF809155
:1036B000E800877F8093E8008091E80080FFFCCFDE
:1036C0008091D203D8CF803899F0823809F0C6C1F2
:1036D0008091DA038F70873008F0C0C18093E900D1
:1036E0008091EB0085FB882780F91092E90006C0E5
:1036F0008091D30390911004911182609091E80021
:10370000977F9093E8008093F1001092F1008091F0
:10371000E8008E779FC1882309F48DC1823009F0BB
:103720009DC18091D803811190C18091DA038F707F
:103730002FEF280F263008F091C18093E9002091E7
:10374000EB0020FF82C1933031F48091EB00806266
:103750008093EB007AC19091EB0090619093EB0025
:1037600021E030E001C0220F8A95EAF72093EA00B9
:103770001092EA008091EB008860EACF81116EC15F
:103780001091D8031F778091E3008078812B80937C
:10379000E3008091E800877F8093E8000E94EA0EB2
:1037A0008091E80080FFFCCF8091E30080688093E7
:1037B000E30082E0111183E0809311044FC180582F
:1037C000823008F04BC14091D8035091D9034C3D51
:1037D00083E0580799F583E08A838AE289834FB7AB
:1037E000F894DE01139620E03EE051E2E32FF0E092
:1037F00050935700849120FF03C082958F703F5FE4
:103800008F708A30C8F0895C90E08D939D932F5F14
:10381000243161F74FBF8091E800877F8093E800F3
:103820006AE270E0CE0101960E94900E8091E8005D
:103830008B778093E80012C1805DE6CF2091DA0398
:103840003091DB03852F99278330910509F160F4CE
:103850008130910509F47EC0029709F0FFC08BE327
:1038600090E0E8EAF1E03EC08132910509F466C0DB
:10387000829709F0F3C02115310509F475C0213094
:10388000310509F0EBC08CEB90E0ECEAF0E02AC0E7
:10389000CA019927423009F449C08330910568F480
:1038A0000097B1F0019709F0D9C0E3E1F2E0E491AB
:1038B0008E2F90E0E3E1F2E012C0039709F0CEC052
:1038C000E5EFF1E0E4918E2F90E0E5EFF1E007C045
:1038D000EBE2F2E0E4918E2F90E0EBE2F2E0009771
:1038E00009F4BCC02091E800277F2093E8002091D4
:1038F000DC033091DD038217930708F49C0140E05C
:1039000021153105B1F5411134C08091E80082FDE7
:103910008DCF80911104882309F488CF853009F474
:1039200085CF8091E80083FFF0CF80CFEBEFF1E00F
:10393000E4918E2F90E0EBEFF1E0D1CF211531052E
:1039400071F02130310509F089C089E090E0E3EDA4
:10395000F1E0C8CF82E190E0E3EEF1E0C3CF89E08F
:1039600090E0EAEBF1E0BECF80E490E0E8E6F1E041
:10397000B9CF80911104882309F458CF853009F418
:1039800055CF8091E80083FD51CF8091E80082FD02
:10399000BCCF8091E80080FFB3CF9091F30080917D
:1039A000F2002115310519F08830910550F041E001
:1039B000089709F040E08091E8008E778093E80056
:1039C0009FCF44914093F1003196215031090196E7
:1039D000E8CF803809F042C08091E800877F80936B
:1039E000E8008091D4038093F10091CE811136C01C
:1039F0001091D803123090F58091E800877F809372
:103A0000E8001093D4030E94EA0E112311F084E021
:103A100005C08091E30087FDFACF81E08093110417
:103A200042E061EC81E00E94611242E261EC82E0DE
:103A30000E94611213C08091D803813079F481E033
:103A4000933009F080E0809310041092E900809197
:103A5000E800877F8093E8000E94EA0E8091E800EA
:103A600083FF0AC08091E800877F8093E8008091FF
:103A7000EB0080628093EB00AA960FB6F894DEBF4D
:103A80000FBECDBFDF91CF911F9108956093AE041B
:103A90007093AF048093B0049093B1040C94521AC5
:103AA000FF920F931F93CF93DF93F62E072F182FBC
:103AB000D92F0E94FE0CC82F0E94A7040E94AA04BE
:103AC0000E94AD040E94B004C150C73040F4EC2FF6
:103AD000F0E0E25DF74C0C948F350E949E04F0926A
:103AE000B2040093B3041093B404D093B504DF91EF
:103AF000CF911F910F91FF900C94521A0E949E0437
:103B00000E94A104ECCF0E949E040E94A404E7CF6F
:103B10000E949E040E94A104F8CF0F931F93CF939D
:103B2000DF9300D000D0CDB7DEB741E050E060E0D9
:103B300070E004C0440F551F661F771F8A95D2F7A7
:103B40008091B2049091B304A091B404B091B504F3
:103B50008A019B01082B192B2A2B3B2B09831A83E3
:103B60002B833C83C901B8010F900F900F900F90E9
:103B7000DF91CF911F910F910C94501D0F931F93C4
:103B8000CF93DF9300D000D0CDB7DEB741E050E057
:103B900060E070E004C0440F551F661F771F8A95D0
:103BA000D2F740955095609570958091B2049091B0
:103BB000B304A091B404B091B5048A019B01082319
:103BC00019232A233B2309831A832B833C83C901AE
:103BD000B8010F900F900F900F90DF91CF911F9130
:103BE0000F910C94501D9091B60480958923809379
:103BF000B604282F277071F4282F082E000C330BE1
:103C00009217130639F08595859585950E94BE1DFE
:103C10001092B6040895FF920F931F93CF93DF93F2
:103C2000C62FD42F122F8823A9F06093A9040E94D5
:103C30006E189093D1038093D003C77081E001C0C8
:103C4000880FCA95EAF7DF91CF911F910F91FF90EE
:103C50000C94D40C8091A904681334C08091D003D3
:103C60009091D1030E94490D883C910558F500E2DE
:103C70000D0FCD17A9F0C770FF24F3948F2D01C04D
:103C8000880FCA95EAF70E94DE0C083048F48D2FA1
:103C9000877001C0FF0C8A95EAF78F2D0E94D40C23
:103CA000812F0E94A2190830A0F4D77081E001C0D2
:103CB000880FDA95EAF7DF91CF911F910F91FF906E
:103CC0000C94DE0CC77081E001C0880FCA95EAF73A
:103CD000F2CFDF91CF911F910F91FF9008952F9216
:103CE0003F924F925F926F927F928F929F92AF928C
:103CF000BF92CF92DF92EF92FF920F931F93CF93D9
:103D0000DF9300D000D00F92CDB7DEB74C01DC01BD
:103D100013968D919C911497892B49F011968C9153
:103D200011979C9189238F3F11F00C9497280F9045
:103D30000F900F900F900F90DF91CF911F910F91E7
:103D4000FF90EF90DF90CF90BF90AF909F908F90BB
:103D50007F906F905F904F903F902F900895E981F2
:103D6000FA81B5E5FB2781110C94CF28E034F105E9
:103D700008F02EC2A0907E04B0907F04C090800412
:103D8000D0908104E0908204F0908304A091840498
:103D90001091850421E030E040E050E060E070E008
:103DA00080E090E00E2F0E949535A222B322C4221B
:103DB000D522E622F722082F0A2319230E94AE35C6
:103DC00009F4B5CF10E04EC280919E0491E089279E
:103DD00080939E04ACCF21E030E040E050E060E012
:103DE00070E080E090E08F01005C11090E94953541
:103DF000E0909604E22AF0909704F32A0091980448
:103E0000042B10919904152B20919A04262B3091A4
:103E10009B04372BB0919C04B82BA0919D04A92B37
:103E2000E0929604F09297040093980410939904FA
:103E300020939A0430939B04B0939C04A0939D0418
:103E40000C94BA2821E030E040E050E060E070E0FF
:103E500080E090E00E949535E0908604E22AF090A0
:103E60008704F32A00918804042B10918904152BF0
:103E7000A0918A04A62BAD83B0918B04B72BB98394
:103E8000B0918C04B82BA0918D04A92BE0928604EC
:103E9000F092870400938804109389040D810093A5
:103EA0008A04198110938B04B0938C04A0938D0421
:103EB0000C94BA2821E030E040E050E060E070E08F
:103EC00080E090E08F01005811090E949535E09044
:103ED0008E04E22AF0908F04F32A00919004042BC0
:103EE00010919104152B20919204262B309193046C
:103EF000372BB0919404B82BA0919504A92BE09294
:103F00008E04F0928F0400939004109391042093F8
:103F1000920430939304B0939404A09395040C946A
:103F2000BA28E034F10508F06BC020907E04309090
:103F30007F044090800450908104609082047090CF
:103F40008304B0918404A091850421E030E040E036
:103F500050E060E070E080E090E00E2F0E94953528
:103F6000A22EA220B32EB320C42EC420D52ED5203D
:103F7000E62EE620F72EF720082F0B23192F1A2301
:103F80000E94AE3511F00C9494288F01E03CF105AD
:103F900008F090C0E038F10508F0E4C000541109C1
:103FA0000034110508F4B3C021E030E040E050E0F7
:103FB00060E070E080E090E00E2F0E949535209543
:103FC00030954095509560957095809590952221FB
:103FD000332144215521662177218B23A923209366
:103FE0007E0430937F044093800450938104609357
:103FF00082047093830480938404A093850497CEF5
:10400000E038F105E0F42090860430908704409079
:1040100088045090890460908A0470908B04B09159
:104020008C04A0918D0421E030E040E050E060E09D
:1040300070E080E090E08F01005411098FCFE03CE8
:10404000F105E0F420908E0430908F0440909004AD
:10405000509091046090920470909304B0919404F5
:10406000A091950421E030E040E050E060E070E095
:1040700080E090E08F010058110970CF20909604E5
:1040800030909704409098045090990460909A045E
:1040900070909B04B0919C04A0919D0421E030E0BD
:1040A00040E050E060E070E080E090E08F01005C74
:1040B000110954CF005C110921E030E040E050E0EC
:1040C00060E070E080E090E00E94953520953095AA
:1040D000409550956095709580959095222133215B
:1040E00044215521662177218B23A923209396040F
:1040F00030939704409398045093990460939A04E2
:1041000070939B0480939C04A0939D0410CE21E0A7
:1041100030E040E050E060E070E080E090E00E943D
:104120009535209530954095509560957095809582
:1041300090952221332144215521662177218B231B
:10414000A9232093860430938704409388045093D6
:10415000890460938A0470938B0480938C04A093E9
:104160008D04E5CD0058110921E030E040E050E039
:1041700060E070E080E090E00E94953520953095F9
:1041800040955095609570958095909522213321AA
:1041900044215521662177218B23A92320938E0466
:1041A00030938F0440939004509391046093920451
:1041B0007093930480939404A0939504B8CD49819F
:1041C0005A814F3F510511F008F0FCCDFA01CECDD8
:1041D000E038F10598F4A0908604B0908704C09070
:1041E0008804D0908904E0908A04F0908B04A09118
:1041F0008C0410918D04E054F109CCCDE03CF10524
:1042000098F4A0908E04B0908F04C0909004D09049
:104210009104E0909204F0909304A0919404109182
:104220009504E058F109B6CDA0909604B09097049B
:10423000C0909804D0909904E0909A04F0909B0468
:10424000A0919C0410919D04E05CF109A3CD11E0C4
:104250001092A3041092A4041092A5041092A60434
:10426000FA83E98300916706E12EF12CC701800FE4
:10427000911D099794F188E090E06C01CE18DF0859
:1042800061E0610F70E06959794FA60188E696E018
:104290000E94573769E0610F70E06959794FA601B4
:1042A00080E796E00E945737A601440F551FB701DB
:1042B000660F771F6058794F80E896E00E94573765
:1042C00061E1610F70E06959794FA60188E796E0D6
:1042D0000E9457370150009367068091670690E06F
:1042E000272D30E0A901440F551F44525D4F220F86
:1042F000331FB90163527D4F21E0280F9117A0F1C0
:104300008093670689819A818B509D458031910504
:1043100008F03FC0F4012281222309F408CD24E0F3
:10432000880F991F2A95E1F78093BA068FEF809343
:10433000BB068093BC060F900F900F900F900F90CC
:10434000DF91CF911F910F91FF90EF90DF90CF9071
:10435000BF90AF909F908F907F906F905F904F90A5
:104360003F902F900C940D1590E0FC01E959F94F06
:10437000DA013C913183DB013C913187718A880FEE
:10438000991FFC01E959F94F128E118E822F91E08D
:10439000B3CF09811A810B312DE5120709F457C0FB
:1043A00008F042C009304DE5140709F45CC00A303A
:1043B0005DE5150709F461C0023C1C4509F4B7CC62
:1043C000F4018281882399F009811A81043E2CE549
:1043D000120709F490C008F07BC0023E4CE51407B8
:1043E00009F484C081E0033E1C4509F47CC0D4017B
:1043F00012968C91E981FA81F7FF26C1882309F48E
:10440000D3C08091AB048093A8041092AB04809138
:104410000705823009F4B0C008F071C081119FC057
:1044200082EE0E9490186EC0D40112968C91E981A0
:10443000FA81EC310DE5F00769F1ED31FD4509F048
:10444000BFCF882309F473CC8FE292E028C0D40157
:1044500012968C91882309F46ACC1092BA061092B5
:10446000BB068FEF66CFF4018281882309F45FCC0D
:104470008091B9068370846032C2D40112968C9107
:10448000882309F454CC8091A70491E08927809374
:10449000A7044DCC882309F44ACC80E492E00F9025
:1044A0000F900F900F900F90DF91CF911F910F9170
:1044B000FF90EF90DF90CF90BF90AF909F908F9044
:1044C0007F906F905F904F903F902F900C94B51914
:1044D00069817A81653E8CE5780779F084E0663EF3
:1044E0007C4509F084CF8093070502C01092070530
:1044F0000E9427177CCF82E0F6CF83E0F4CF843090
:1045000009F441C08FE39CE90197F1F700C0000076
:1045100009811A811F779CE0E92EF12CC8010E2C2D
:1045200002C0969587950A94E2F78F70A1F18A30C0
:1045300078F5835E0E94A21994E0E91AF108ACEFC5
:10454000EA16AFEFFA0651F780910705823019F0AD
:1045500020F5811173C082EE0E94451921C083E0CD
:104560000E94E90C88E10E94901888E10E94451998
:1045700083E00E94F30CC6CF82EE0E94901887E57C
:104580000E94A219BFCF86EE0E94A21988E1F8CF3F
:104590008650990BCFCF87E2CDCF843009F452C03B
:1045A0008091A8048093AB04F4019281992309F4CB
:1045B00044C61092A90409811A8106312CE512071C
:1045C00008F096C002301C4508F476C10E94CD1751
:1045D0009093BF068093BE0649815A8146316CE5AF
:1045E000560708F0C7C042305C4508F0B5C060917E
:1045F000BE061091BF06198384E090E00E949B37AD
:10460000698181E290E00E949B370F900F900F909C
:104610000F900F90DF91CF911F910F91FF90EF902E
:10462000DF90CF90BF90AF909F908F907F906F90D2
:104630005F904F903F902F900C946D1A8CE20E94E7
:10464000A219AECF88E2FBCFE981FA81E43F0CE505
:10465000F00709F441C050F5E83D2CE5F207C1F13F
:1046600028E241E0E93D3CE5F307A1F1E73DFC45E7
:1046700009F09ACF26E241EE61EE0F900F900F9075
:104680000F900F90DF91CF911F910F91FF90EF90BE
:10469000DF90CF90BF90AF909F908F907F906F9062
:1046A0005F904F903F902F900C940B1E69817A8100
:1046B000663F9CE57907A1F0673FACE57A07A1F07A
:1046C000653F7C4509F070CF27E245EE64EED5CF1B
:1046D00027E245EE65EED1CF26E241EE60EECDCF8A
:1046E00026E241EE62EEC9CF27E245EE66EEC5CF87
:1046F00029813A812B5F3C452930310508F466CF8A
:10470000E981FA81E631FC4509F0D6C08091AB041D
:104710008A7A91E009F490E09093AA048111C8C0CC
:1047200089E20E94280C0F900F900F900F900F902D
:10473000DF91CF911F910F91FF90EF90DF90CF907D
:10474000BF90AF909F908F907F906F905F904F90B1
:104750003F902F900C948F0CE981FA81E350FC4537
:104760008091BE068160E331F105D0F4EB5CF74C3B
:104770000C948F3509811A810B5F1C451A830983BC
:104780000930110508F033CF89819A81885B974CF5
:104790009A838983FC010C948F358091BE068260D8
:1047A0008093BE0624CF8091BE068460F9CF8091AD
:1047B000BE068860F5CF8091BF0681608093BF06FA
:1047C00016CF8091BF068260F9CF8091BE068061CE
:1047D000E7CF8091BE068062E3CF8091BE06806401
:1047E000DFCF0E946D1A8091BE068068D9CF80917C
:1047F000BE068C60D5CF8091BF068360DFCF8091ED
:10480000BE068E7FCDCF8091BE068D7FC9CF8091B1
:10481000BE068B7FC5CF8091BE06877FC1CF8091BA
:10482000BF068E7FCBCF8091BF068D7FC7CF809193
:10483000BE068F7EB5CF8091BE068F7DB1CF8091B1
:10484000BE068F7BADCF0E946D1A8091BE068F771A
:10485000A7CF8091BE06837FA3CF8091BF068C7FB8
:10486000ADCF8091BE0682FB992790F921E0922777
:1048700090FB82F990FB83F993CF8091BF06982F2C
:10488000909591708E7F892B90FB81F997CF0E9434
:104890006D1A9091BE06892F97FB87F9805880CFBB
:1048A00061E08EE090E00E949B37A1CE60E0F9CFFE
:1048B00085E337CF85E3CCC48091AB048272E98174
:1048C000FA81E25CFC45E431F10508F08BC0EF5A57
:1048D000F74C0C948F358091B90691E0892780932D
:1048E000B90610921A0127CD4BE355E166E275E156
:1048F0000F900F900F900F900F90DF91CF911F911D
:104900000F91FF90EF90DF90CF90BF90AF909F906E
:104910008F907F906F905F904F903F902F900C946E
:10492000D90A46E255E16BE375E1E2CF42E555E194
:104930006BE475E1DDCF4BE455E162E575E1D8CF7D
:1049400043E655E169E575E1D3CF49E555E163E615
:1049500075E1CECF47E755E16DE675E1C9CF4DE68C
:1049600055E167E775E1C4CF4BE855E161E875E1D2
:10497000BFCF41E855E16BE875E1BACF65E082E071
:104980000F900F900F900F900F90DF91CF911F918C
:104990000F91FF90EF90DF90CF90BF90AF909F90DE
:1049A0008F907F906F905F904F903F902F900C94DE
:1049B000951568E086E0E4CF6EE089E0E1CF64E140
:1049C0008FE0DECF67E185E1DBCF8091B9068370B0
:1049D000806685CF62E289E1D3CF8091B90683708A
:1049E0008C687DCF992359F029813A8121154CE5B6
:1049F000340709F444C02F3D3C4509F47DC0F4015F
:104A000000811181992309F490C0C8010E94790B9B
:104A10008983682FC8010E94200BB80189810E94F8
:104A2000F6048D839983D40115960C911597029500
:104A30000F7012961C9111111092AC048091B60463
:104A4000877079F0112369F08D81805E883048F09D
:104A500082E00E94F31D8091B6048770DD24D39418
:104A60008111D12C898182958F70E82EF12C8C30A8
:104A700008F097C0F701EB59F74C0C948F350E9462
:104A80006D1A6FEF74E38CE0615070408040E1F785
:104A900000C00000F89481E08093E00080E2809301
:104AA000D8001092C900AFE1BEE41197F1F700C041
:104AB00000001DBA109268001CBC10BE1FBA1092F4
:104AC0007A0010926E0010926F0010927100109296
:104AD00072001092C9001092BC0014B817B81AB82E
:104AE0001DB810BA1092BC0015B818B81BB81EB883
:104AF00011BA0C94003F1BC90F900F900F900F90AC
:104B00000F90DF91CF911F910F91FF90EF90DF9069
:104B1000CF90BF90AF909F908F907F906F905F905D
:104B20004F903F902F900C942D17C8010E944F0B6F
:104B3000898373CF09810F70B981B07F11F002951D
:104B4000007F1123D1F0002371F08D81805E8830C9
:104B500018F01D8111110BC08091AB04082B00933C
:104B6000AB040E948F0C8D810E9490181AC0809116
:104B7000AC04082B0093AC04F4CF8D810E9445193E
:104B8000002379F000958D81805E883018F01D81BA
:104B9000111143C08091AB0408230093AB040E9421
:104BA0008F0CB8E0EB1AF108E4E0EE16F10410F413
:104BB0000E94DE0ADD20B1F08091B60480FD12C0B3
:104BC000D40112961C928595859585950E948D1D20
:104BD000C4010E946F1E8091B604859585958595C8
:104BE0000E94BE1D60E0C4010F900F900F900F90C7
:104BF0000F90DF91CF911F910F91FF90EF90DF9079
:104C0000CF90BF90AF909F908F907F906F905F906C
:104C10004F903F902F900C94BB0B8091AC040823D5
:104C20000093AC04BCCF29812F70C22E3981307F14
:104C3000303219F0C29480EFC8224D81442339F0FC
:104C4000413021F1112361F1002329F18CCF11238F
:104C500089F09091AD04892F8C29011103C00E9425
:104C6000D40C9FCF0130D9F7891709F49ACF8093DC
:104C7000AD0497CF011106C00E94890C8C2D0E94B3
:104C8000DE0C8FCF013009F48CCFF6CF112329F041
:104C9000023008F086CF8C2DE2CF011182CFEECF0B
:104CA000002361F30D81093349F41FEF27EE33E050
:104CB000115020403040E1F700C000008D810E947B
:104CC00045196FCF898186958695837069F081300B
:104CD00009F067CF8D8199819370111102C090E026
:104CE00080E00E94000B5DCF8D819981937011113E
:104CF00002C090E080E00E94EA0A53CF112311F134
:104D00000D81053F99F0063FB9F0043F49F48091C9
:104D1000B8049091B90481609093B9048093B80469
:104D20008D810E949E0D0E947A183BCF8091B8041D
:104D30009091B9048260F0CF8091B8049091B90449
:104D40008460EACF1D81153F89F0163FA9F0143F1A
:104D500049F48091B8049091B9048E7F9093B9047E
:104D60008093B8048D810E94060EDDCF8091B80437
:104D70009091B9048D7FF2CF8091B8049091B904DD
:104D80008B7FECCF8981837009F073C0111109CF3B
:104D90005D81529556955770550F550F0D810F70C7
:104DA00010E030E020E0052E04C0000F111F221F8C
:104DB000331F0A94D2F74D8180E090E0DC0144FF7C
:104DC0000FC08FE090E0A0E0B0E004C0880F991F12
:104DD000AA1FBB1F5A95D2F780959095A095B095C4
:104DE0005981569556955370523081F1533009F1DF
:104DF0004090AE045090AF046090B0047090B10445
:104E0000513099F0802B912BA22BB32B8C019D015B
:104E1000042115212621372109831A832B833C8302
:104E2000C901B8010E94461DBCCE042915292629B6
:104E30003729B901A801482B592B6A2B7B2B4983B1
:104E40005A836B837C83CB01BA01ECCF802B912BEF
:104E5000A22BB32B4091AE045091AF046091B004EB
:104E60007091B1048C019D0104271527262737274F
:104E7000D3CF112309F44EC0098100FF92CE5D818A
:104E8000529556955770550F550F0D810F7010E0C4
:104E900030E020E0052E04C0000F111F221F331F39
:104EA0000A94D2F74D8180E090E0DC0144FF0FC00E
:104EB0008FE090E0A0E0B0E004C0880F991FAA1F27
:104EC000BB1F5A95D2F780959095A095B0955981C2
:104ED0005695569553705230A1F1533019F14090C8
:104EE000B2045090B3046090B4047090B504513093
:104EF000A9F0802B912BA22BB32B8C019D010421B7
:104F000015212621372109831A832B833C83C9016C
:104F1000B80114C0198111FF44CEB1CF042915295D
:104F200026293729B901A801482B592B6A2B7B2B3D
:104F300049835A836B837C83CB01BA010E94501D45
:104F400030CE802B912BA22BB32B4091B2045091E9
:104F5000B3046091B4047091B5048C019D010427E1
:104F6000152726273727CFCF09810F7009831123F3
:104F700029F0802F0E948D1D8D8171CE8D810E9420
:104F8000DE0C89810E94BE1D0CCE2D81223F09F4CA
:104F900042C060F4203F09F1213FA9F1112309F437
:104FA00065C00111E0CD89818F7132C03D81333FF1
:104FB000B9F1343F99F7112309F44EC009810F71FB
:104FC0000983802F0E948D1D18E0019FC0011124CC
:104FD00083608093B60489811BC0112381F0011185
:104FE000E0CD09810F7181E090E0A0E0B0E004C065
:104FF000880F991FAA1FBB1F0A95D2F7A6CF0230B0
:1050000008F0CFCDEECF89818F71112309F4BACF8B
:105010000E948D1DC6CD89818F711123C9F3B2CF36
:1050200060E070E0CB01112309F488CF19811F7172
:1050300081E090E0A0E0B0E09C01AD0104C0220F4F
:10504000331F441F551F1A95D2F729833A834B8388
:105050005C83CA01B90172CF81E00E94F31D023066
:1050600008F49FCD82E00E94F31D9BCD01111ACE62
:1050700089818F7187CF4D81433FA1F100F5413F79
:10508000D9F1423F89F1403F19F18091B7040023E3
:1050900009F43EC0882341F08091C80491E089273B
:1050A0008093C8041092B7048D8111115DCD0E94C8
:1050B000451986E0D4011D928A95E9F772CD5D818C
:1050C000543FA9F0553F09F711116BCD81E007C09E
:1050D000112309F466CD8091C80491E0892780935B
:1050E000C8045FCD81E018271093C8045ACD111170
:1050F00058CD1092C80455CD112339F08091B704D2
:10510000882349F31092B7044CCD002321F349CDF5
:10511000882309F446CD111144CD8091C80491E053
:1051200089278093C804EECFE981FA8123C061E02A
:10513000C4010E94BB0B89839A83D40112968C917F
:1051400029813A81215035452F3F310510F40C94C7
:10515000AF1E882309F433C8E981FA81EF3FF105D6
:10516000E1F0D8F0EE3D0CE5F00711F40C94E41EEC
:1051700010929E04D40111962C9111978C9106E007
:10518000209FD0011124A857BD4FA80FB11D7C90BE
:105190001FEF71125CC810E05BC8E981FA81809151
:1051A0009E04882311F40C94911F10929E04E03CFD
:1051B000F10510F00C94EB1EE038F10510F00C94A2
:1051C0005A1F8F01005411090034110510F40C947A
:1051D000221F21E030E040E050E060E070E080E03D
:1051E00090E00E2F0E949535E0907E04E22AF09028
:1051F0007F04F32A00918004042B10918104152B65
:1052000040918204462B50918304572BB091840423
:10521000B82BA0918504A92BE0927E04F0927F0424
:10522000009380041093810440938204509383047C
:10523000B0938404A09385049DCF29813A812631BF
:105240003C4509F0DCCB8091AA04811133CB89E283
:105250000E945C0C68CA1F93CF93DF938091000576
:10526000807FA9F48091FD04882389F08091CA048D
:10527000C091C9047091FB046091FC04A091FE04EC
:10528000B091FF04D62FD72316E0C81304C0DF91D6
:10529000CF911F91089590E0109711F0DF3F19F41E
:1052A00001968770F2CF189F9001199F300D11243D
:1052B000F901E553FB4F41816413F2CF408147135D
:1052C000EFCF42814111ECCF438154814A1B5B0BEC
:1052D000483C510528F7809100058F7080618093CC
:1052E0000005F901E053FB4F80818F70806180835E
:1052F0008BEF94E00E946F1EDF91CF911F910C9471
:10530000160BAF92BF92CF92DF92EF92FF920F9364
:105310001F93CF93DF93CDB7DEB72B970FB6F894DB
:10532000DEBF0FBECDBF8C0185E0F801DE01179610
:1053300001900D928A95E1F7F80180819181E280D8
:105340002BEFA22E24E0B22E6091FE047091FF0498
:105350006115710549F03091FB044091FC04232F45
:1053600024232F3F09F032C1EE2009F43FC18F837F
:1053700098878F8198850E94FB0BF82E882309F46B
:1053800035C186E0F801ABEFB4E001900D928A954B
:10539000E1F78091FB049091FC040E94EF0B929541
:1053A0009F70963041F48091C80491E089278093E2
:1053B000C8049093B7040E942B291DC020910005BA
:1053C000522F507F683C710508F0A5C05111C3C031
:1053D000FE2C491322C0381320C0E1101EC02F70CC
:1053E0002061209300058BEF94E00E946F1E809156
:1053F0000005F80185838F2D2B960FB6F894DEBF3C
:105400000FBECDBFDF91CF911F910F91FF90EF9015
:10541000DF90CF90BF90AF900895CD2829F0282F2E
:1054200029232F3F09F094C020E0F22FF170DF2EE6
:10543000E091CA044091C90456E020FD1CC0EE2052
:10544000D1F280910005816080930005F12CD3CFCB
:105450002E2F30E05E9FF0011124E553FB4F618158
:10546000691306C06081681303C062816E11E7CFC3
:10547000F9013196E770E413EBCF8F8398878F8122
:1054800098850E94EF0B292F22952F70903260F0A3
:10549000225F2F70223078F49F7051F0F8019581CF
:1054A000907F31F4D12C0AC09F7011F08823D1F382
:1054B000805E8830B8F3C8010E946F1EFD2C9BCF20
:1054C0008F8398878F8198850E94FB0B882309F42E
:1054D0008DC0EE2009F48AC080910005803270F002
:1054E0002091FB043091FC043A8329831B82DD82E6
:1054F000CC828E83CE0101960E946F1E86E0F80159
:10550000ABEFB4E001900D928A95E1F70E942B2950
:10551000FF24F39470CF511132C08BEF94E00E94BE
:105520006F1E86E0F50111928A95E9F78FCF8F8380
:1055300098878F8198850E94FB0B8111DFCF809126
:105540000005816080930005C8010E946F1E53CF43
:1055500021E02E256ACF4913B3CF3813B1CFE11024
:10556000AFCFF8012583C8010E946F1E86E0F801C5
:10557000ABEFB4E001900D928A95E1F73CCF49136F
:105580009FCF38139DCFE1109BCFF8012583C80131
:105590000E946F1E86E0F50111928A95E9F72BCFE4
:1055A0004913C5CF3813C3CF8091000580FDDECFEE
:1055B000982F907FD9F2F8018583903FA1F2982F20
:1055C000907F905F8F70892B8583CDCFC380D480EF
:1055D000F090FD04F601E61BF70BBF01F110EECED3
:1055E000683C7105B8F6FE2CE110DACFC8010E94C4
:1055F0006F1E8ECFEF92FF920F931F93CF93DF9387
:10560000CDB7DEB767970FB6F894DEBF0FBECDBF3C
:105610004B8B5C8B362F6D8B7E8B8F8B0E891F890E
:1056200001151105E1F0842F85238F3F09F096C005
:105630005FEF4FEF14C0E091C804EE23C9F196E08C
:10564000969FF001979FF00D1124EE0DFF1DEE0FB8
:10565000FF1FE05EFE4F40815181822B8C931A8A9E
:105660004D875E873F87198B088B86E0FE013D964C
:10567000DE01179601900D928A95E1F7CE0107960B
:105680000E9481298823C1F016E08091CA0490917C
:10569000C904891350C067960FB6F894DEBF0FBED9
:1056A000CDBFDF91CF911F910F91FF90EF900895A3
:1056B000809528232C93D3CF86E0FE013796DE0118
:1056C000119601900D928A95E1F78A859B85892B29
:1056D000D9F288859F8189238F3FB1F22091C90437
:1056E00030E0C9010196877099274091CA04481794
:1056F000190671F40E946D1A1092C9041092CA041E
:1057000086E0EBEFF4E0DF011D928A95E9F7BCCF6C
:1057100096E0929FD001939FB00D1124A553BB4FEB
:10572000FE01319601900D929A95E1F78093C9049C
:105730000E94160BA9CF819FC001112485539B4F56
:105740000E948129882309F4A6CF8091CA0490E0A1
:105750000196877099278093CA0497CFE42EF12C85
:1057600081E090E0042E01C0880F0A94EAF7652FCB
:1057700070E0DB01A654BB4F2C9131115CCFE22FBE
:10578000E8235BCF8F929F92AF92BF92CF92DF922E
:10579000EF92FF920F931F93CF93DF9300D000D02F
:1057A0000F92CDB7DEB780911B0190911C01892B20
:1057B000A1F08091CF038F5F8093CF0381110DC043
:1057C0000E94961490E090931C0180931B01892BFA
:1057D00021F40E947E130E949D17E0EE8E2EE3E0DE
:1057E0009E2E740110E000E077E0C72EC00E802FDF
:1057F0000E942B138C2D0E942B13802F0E94F212DB
:10580000D7019D917D01D12C891729F0FD01319798
:105810008083DD24D3948C2D0E94F212F7019681AF
:10582000891709F47CC0868381E08D29182B0E949A
:105830008F040F5F0730C1F60E946E189C014091E3
:10584000CB035091CC039093CC038093CB038091F6
:10585000CA0390E0841B950B820F931F6BEF70E0DF
:105860000E946735E82E392F082F8093CA03F090E5
:10587000CE03FF2009F49AC3E091DE03F091DF0329
:10588000AF01425F5F4F20E06BEFB62E6BEF70E031
:10589000A191AB3FA1F0CA2ED12C8E2D932F0A17C8
:1058A00008F43FC08C199D09092E000CAA0BBB0BF4
:1058B0004E97A105B105D8F1DF011197BC92E4170D
:1058C000F50731F72093CE03111102C0211170C3E7
:1058D0001092CD03A091DE03B091DF039091CE032F
:1058E0006EEE73E080E0FB013191BF01F401219184
:1058F0004F01321751F03C913B3FD9F40C93AB016F
:1059000041505109FA01208391E01196F3E06C3F78
:105910007F0749F79093CE038093CD034DC380E07A
:1059200084CFDB01AC19BD098A0F9B1FBDCF2F2D82
:10593000C6CF81E0EACF840F951FA61FB71F86C38D
:10594000818D928DA817B90720F441505F5F329680
:105950008EC3820F931F928F818FF8CF833009F40B
:1059600000C301118CC08091A704811188C080916F
:10597000B2049091B304A091B404B091B5048983AA
:105980009A83AB83BC83BC01CD010E94FE0C8230A4
:1059900009F406C3833009F406C3813009F06FC0EF
:1059A00081E090E00F900F900F900F900F90DF919B
:1059B000CF911F910F91FF90EF90DF90CF90BF900C
:1059C000AF909F908F900C94560A80910B01181302
:1059D00017C09091B906937020910A0130E081E0E0
:1059E0009217130609F480E08170898380930E0179
:1059F000143258F4E12FF0E0EF58F74C0C948F3547
:105A000081E0F2CFF981F11102C019821DC08091AD
:105A10000C01282F220F220F280F298355E0F52E85
:105A2000F20EEF2C30E33F1510F440E3E42E9981A1
:105A3000892F90E09A838983B981BE1590F1E1E0C6
:105A4000E983FFE2FF1508F380910C018F5F8093DB
:105A50000C01B981B1110CC082E080931A018091D0
:105A60000E01811105C0111103C083E080931A015A
:105A7000011105C08091C006882309F474CF0F90EE
:105A80000F900F900F900F90DF91CF911F910F917A
:105A9000FF90EF90DF90CF90BF90AF909F908F904E
:105AA000089520E040E060E089819A810E94540AD4
:105AB000A981BA811196BA83A983BECF80910C01C6
:105AC000282F220F220F280F298335E0F32EF20E04
:105AD000BF2C30E33F1510F420E3B22E6091BA06DC
