:100000000C9469040C9486040C9486040C94860465
:100010000C9486040C9486040C9486040C94860438
:100020000C9486040C9486040C94721C0C942E1C64
:100030000C9449340C9486040C9486040C94860425
:100040000C9486040C9486040C9486040C94860408
:100050000C9486040C942E180C9486040C9486043C
:100060000C9486040C9486040C9486040C948604E8
:100070000C9486040C9486040C9486040C948604D8
:100080000C9486040C9486040C9486040C948604C8
:100090000C9486040C9486040C9486040C948604B8
:1000A0000C9486040C9486040C94860400000000D2
:1000B0000000000000000000000000000000000040
:1000C0000000000000000000000000000000000030
:1000D0000000000000000000000000000000000020
:1000E0000000000000000000000000000000000010
:1000F0000000000000000000000000000000000000
:1001000000000000000000000000000000000000EF
:1001100000000000000000000000000000000000DF
:1001200000000000000000000000000000000000CF
:1001300000000000000000000000000000000000BF
:1001400000000000000000000000000000000000AF
:10015000000000000000000000000000000000009F
:10016000000000000000000000000000000000008F
:10017000000000000000000000000000000000007F
:100180000000000030FFFF20FFFF10FFFF00FFFF17
:1001900000000070FFFF60FFFF50FFFF40FFFF0007
:1001A0000000B0FFFFA0FFFF90FFFF80FFFF0000F7
:1001B00000F0FFFFE0FFFFD0FFFFC0FFFF000000E7
:1001C0000000000000FF0000000000000000000030
:1001D000000000000000000000000056FFFF56FF76
:1001E000FF56FFFF56FFFF56FFFF56FFFF56FFFF6C
:1001F00056FFFF56FFFF56FFFF56FFFF56FFFF5605
:10020000FFFF56FFFF56FFFF000000000000000048
:1002100000000000000000000000000000000000DE
:1002200000000056FFFF56FFFF56FFFF56FFFF5628
:10023000FFFF56FFFF56FFFF56FFFF56FFFF56FF1B
:10024000FF56FFFF56FFFF56FFFF56FFFF56FFFF0B
:10025000000000000000000000000000ACFFFFAC48
:10026000FFFFACFFFFACFFFFACFFFF000000000092
:1002700000000000ACFFFF00000000000056FFFF80
:1002800000000000000000000056FFFF56FFFF5670
:10029000FFFF000000000000000000000000000060
:1002A00000000000ACFFFFACFFFFACFFFFACFFFFA6
:1002B000ACFFFF000000ACFFFF00000000000000EA
:1002C000000000000000000000000000000000002E
:1002D00000000000000000ACFFFF00000000000074
:1002E000000000000000000000000000000000000E
:1002F00000000000000000000000000000000000FE
:100300007E0F00D4FFFFFFC7000000780000000050
:10031000000000002A2B2800000000000000000060
:100320000000000000000029000000002C1E342006
:10033000212224342627252E362D3738271E1F202C
:100340002122232425263333362E37381F04050671
:100350000708090A0B0C0D0E0F10111213141516B5
:100360001718191A1B1C1D2F3130232D35040506B3
:100370000708090A0B0C0D0E0F1011121314151695
:100380001718191A1B1C1D2F3130354C00010101A3
:100390000101010101010202020202020202020342
:1003A0000303030303030304040404040404050512
:1003B00005050506060606060707070707080808D5
:1003C00008090909090A0A0A0B0B0B0C0C0C0D0D84
:1003D0000D0E0E0E0F0F0F1010111111121213131C
:1003E0001414151516161717181819191A1A1B1B95
:1003F0001C1D1D1E1E1F20202122222324242526F1
:1004000026272829292A2B2C2D2D2E2F3031323228
:10041000333435363738393A3B3C3D3E3F40414234
:10042000434445464748494A4C4D4E4F505153541A
:10043000555658595A5B5D5E5F61626465666869CE
:100440006B6C6D6F7072737577787A7B7D7E80824E
:10045000838587888A8C8E8F91939596989A9C9E97
:10046000A0A2A3A5A7A9ABADAFB1B3B5B7BABCBEA7
:10047000C0C2C4C6C9CBCDCFD1D4D6D8DBDDDFE274
:10048000E4E7E9EBEEF0F3F5F8FAFDFF726F6F7455
:1004900001012B313233343536010128006A75648D
:1004A00069736F6E40676D61696C2E636F6D0029B3
:1004B000002B003900E100E00000001E00340004C1
:1004C000003300E30003581F00360012001400E25E
:1004D000002A002000370008000D0035162C0021EE
:1004E00000130018000E001455015822001C000CC7
:1004F000001B00000049014C004B0000004E0000B2
:1005000000490235002F000000300000002F0023BA
:10051000000900070005000000300024000A000B5D
:10052000001000500002582500060017001A005263
:10053000002C00260015001100190051002800278A
:10054000000F0016001D004F0003582E0031002D33
:1005500000E50038000000C45CC65CC85CCA5C01F1
:10056000000000C35CC55CC75CC95C010001000BF6
:100570005D0F5D135D175D010001000C5D105D14E2
:100580005D185D1B5D01000D5D115D155D195D015F
:100590000001000E5D125D165D1A5D00000100C2D3
:1005A0005C095D00000A5D0000010001000100001F
:1005B0000001000000010001000100010001000035
:1005C0000001000100010001000100010001000123
:1005D0000001000100010001000100010001000113
:1005E0000001000100010001000100010001000103
:1005F000000100005C010001000100010000000199
:1006000000010001000100010000000100140004CD
:10061000001D000100010001001A0016001B00016E
:1006200000010001000800070006000100010001B0
:100630000015000900190001000100010017000A5F
:1006400000050000000100010001000000010000A1
:100650000001000100010000000100000001000194
:10066000001C000B00110000000100010018000D2B
:100670000010000100010001000C000E0036000116
:10068000000100010012000F00370001000100010D
:1006900000130033003400010001000100010001DB
:1006A000000100010000003D040100010001000103
:1006B0000000003A00010001000100010001003BC0
:1006C00000010001000100010001003C00010001E7
:1006D000001C5D010001003D004600010001000119
:1006E0000001003F00010001000100000006014977
:1006F000000100000001000000190101004B000092
:10070000004E0000004A003F0001004A0050000077
:10071000004D0040000100520051004A000100411C
:100720000001004D004F004B00010042001D5D0123
:100730000001004E00010043000100010001004DD6
:10074000000100440045006800DE5CE40000000594
:10075000010902A10185020901A100050919012968
:100760000515002501950575018102950175038127
:10077000010501093009311581257F950275088130
:100780000609381581257F950175088106050C0A33
:1007900038021581257F950175088106C0C00501C5
:1007A0000980A101850319012AB700150126B700A8
:1007B000950175108100C0050C0901A1018504197E
:1007C000012AA002150126A002950175108100C022
:1007D00005010906A1018505050719E029E71500AE
:1007E00025019508750181020507190029EF1500FB
:1007F000250195F075018102050819012905950566
:1008000075019102950175039101C005010906A1C9
:1008100001050719E029E7150025019508750181F3
:10082000029501750881010507190029FF150026A9
:10083000FF00950675088100050819012905950531
:1008400075019102950175039101C009023B0002F7
:100850000100A0FA090400000103010100092111AF
:100860000100012240000705810308000A09040174
:1008700000010300000009211101000122BC000752
:1008800005820320000A1201100100000008EDFE9D
:1008900007130100010203010403300000001603E6
:1008A0004500720067006F0044006F007800200070
:1008B00045005A00000016034500720067006F00F3
:1008C00044006F007800200045005A000000040337
:1008D000090411241FBECFEFDAE0DEBFCDBF26E052
:1008E000A2EAB3E001C01D92A23CB207E1F713E017
:1008F000A0E0B1E0E6ECF0E702C005900D92A23A6C
:10090000B107D9F70E9480310C94F0370C940000A5
:10091000E8EDF0E080818E7F80831092E2001092FB
:10092000DA001092E100A0EEB0E08C9181608C932F
:1009300080818F77808319BCA7EDB0E08C918E7F8A
:100940008C9380818F7E8083109258060895209129
:10095000E4003091E50095E6A9012091EC00822F9A
:10096000817020FF06C08091E80080FF06C080E013
:1009700008952091E80022FD1AC080917E06882308
:1009800089F0853089F08091EB0085FD0FC02091C2
:10099000E4003091E50042175307F9F29150E1F677
:1009A00084E0089582E0089583E0089581E0089549
:1009B000EF92FF920F931F93CF937C018B010E94C4
:1009C000A704C82F811117C08091E80085FD0BC0D6
:1009D0008091E8008E778093E8000E94A704882326
:1009E00099F3C82F08C0F70181917F018093F1002E
:1009F0000150110949F78C2FCF911F910F91FF9052
:100A0000EF9008958091800687FF13C08091E800E1
:100A100082FF06C08091E8008B778093E80004C0D5
:100A200080917E068111F2CF089580917E06882301
:100A3000D9F38091E80080FFF8CF8091E8008E77AD
:100A4000ECCF982F9093E900242F762F50E0891750
:100A500031F07091EC002091ED005091F00021FDFB
:100A600007C09F5F973071F78093E90081E0089598
:100A70003091EB003E7F3093EB003091ED003D7FF5
:100A80003093ED003091EB0031603093EB007093C8
:100A9000EC002093ED005093F0002091EE0027FD34
:100AA000E0CF80E00895CF92DF92EF92FF920F9314
:100AB0001F93CF93DF93C8EDD0E088818F7E88832A
:100AC000E7EDF0E080818160808384E082BF81E097
:100AD0008093580688818E7F888302EE10E0F801AB
:100AE00010821092DA0081EEC82ED12CF60110820D
:100AF00088818F77888388818068888388818F7DCB
:100B0000888319BC10927E0610927F0610927D0693
:100B100010927C0690EEE92EF12CF70180818B7FFC
:100B2000808388818160888342E060E080E00E9469
:100B30002105F60180818E7F8083F80180818160AC
:100B40008083808188608083F70180818E7F8083AD
:100B5000888180618883DF91CF911F910F91FF90F1
:100B6000EF90DF90CF900895FC01CB012091860695
:100B7000309187062617370790F0009729F42091C7
:100B8000E8002E772093E80040E0009751F44111EF
:100B900008C08091E80082FF31C080E00895C9015B
:100BA000F3CF20917E062223A9F12530A9F12091CF
:100BB000E80023FD2DC02091E80022FDEACF20911E
:100BC000E80020FFE2CF3091F3002091F20000977F
:100BD00019F02830310558F041E02830310509F08E
:100BE00040E02091E8002E772093E800CECF41919D
:100BF0004093F10001972F5F3F4FE9CF80917E0630
:100C0000882341F0853041F08091E80083FFC1CF17
:100C100081E0089582E0089583E0089580917E0642
:100C2000843011F482E0089581E0089580915B069C
:100C3000089590914406803F41F48091450687FDD8
:100C400010924506992371F00895813F29F480910F
:100C500045061816ACF3F6CF823F81F497FFF2CF2A
:100C6000109244068091450690914606892B9091FA
:100C70004706892B49F710923F060895833F19F4E0
:100C8000191674F3DFCF893F39F4809146061816A0
:100C9000CCF610924606D6CF8A3F29F480914606BC
:100CA00087FFD0CFF6CF8B3F39F48091470687FF7F
:100CB000C9CF10924706C6CF8C3F29F480914706D2
:100CC0001816BCF3BFCF843F31F4809143068E7F6A
:100CD00080934306B7CF853F21F4809143068D7FF3
:100CE000F7CF863F21F4809143068B7FF1CF873F7A
:100CF00021F480914306877FEBCF883F21F48091D8
:100D000043068F7EE5CF8D3F31F480910F068E7FB5
:100D100080930F0697CF8E3F21F480910F068D7F31
:100D2000F7CF8F3F09F08ECF80910F068B7FF0CFEA
:100D300080910F0680FD16C081FD16C082FD16C091
:100D400080913F068823A1F0883280F428E0829FBA
:100D5000C001112468E270E00E946A35862F672B7B
:100D600039F0089582E0089584E0089588E00895B8
:100D700081E0089580910F0680FD16C081FD16C0A8
:100D800082FD18C080913F06882391F08C3390F447
:100D900023E2829FC00111246CE370E00E946A3557
:100DA000862F672B49F0089588E0089581E1089522
:100DB00085E0089583E2089581E00895803F31F44D
:100DC0000E94BA068195809345060895813F19F4E3
:100DD0000E94BA06F8CF823F31F40E94BA0681958C
:100DE000809344060895833F19F40E94BA06F8CF11
:100DF000893F29F40E9498068093460608958A3F09
:100E000021F40E9498068195F7CF8B3F31F40E9420
:100E1000980681958093470608958C3F19F40E94A7
:100E20009806F8CF843F31F4809143068160809327
:100E300043060895853F21F4809143068260F7CFF1
:100E4000863F21F4809143068460F1CF873F21F4EF
:100E5000809143068860EBCF883F21F48091430660
:100E60008061E5CF8D3F31F480910F0681608093E2
:100E70000F0608958E3F21F480910F068260F7CF10
:100E80008F3FB9F780910F068460F1CF9C014FB777
:100E9000F89480910B0690910C06A0910D06B091EC
:100EA0000E064FBF821B930B08950F931F93462F7F
:100EB000572FBC01CB01AA27BB270097A105B1057D
:100EC000E9F1AC01BD0180E1052F162F272F332753
:100ED000011511052105310519F0885FB901A80137
:100EE0008A019B01F4E03695279517950795FA95A9
:100EF000D1F7011511052105310519F08C5FB901F4
:100F0000A8018A019B01E2E0369527951795079580
:100F1000EA95D1F7011511052105310519F08E5F0C
:100F2000B901A8017695679557954795452B462BAE
:100F3000472B09F08F5F1F910F91089580E0C4CF78
:100F4000809106068111109206060895809105068B
:100F500090910406892B90910306892B8093A2031C
:100F6000909106069923A1F0892B8093A20380918A
:100F70001901882341F18091280687FF24C08EE162
:100F8000E4EAF3E090E0815000F591110E94A0079F
:100F9000E0912A06F0912B063097E1F0809119013B
:100FA000882359F08091280687FF07C08091A2030B
:100FB0008093A30385E08093A2030280F381E02D58
:100FC00082EA93E0099486E0DBCF21912223D9F2D3
:100FD0009F5FD9CF0895909119019923E1F09091E5
:100FE000280697FF18C0E82FE695E695E695803F1E
:100FF000F0F4F0E0EE55FC4F877021E030E0A901FD
:1010000002C0440F551F8A95E2F7CA01809592816C
:10101000892382830895E4EAF3E09191891303C060
:10102000DF0111971C9253E0EA3AF507B1F70895F2
:10103000909119019923C1F09091280697FF14C04F
:10104000E82FE695E695E695803FF8F4F0E0EE555A
:10105000FC4F877021E030E001C0220F8A95EAF74B
:101060008281822B82830895A4EAB3E0EFEF90E0BF
:101070002D91821751F0EF3F19F4211101C0E92F92
:101080009F5F9630A9F7EF3F09F408950E2E000CEC
:10109000FF0BEE55FC4FE6CF292F220FE22FE90F71
:1010A000EE0FE80F9E2F9770E695E695E69585E0A2
:1010B000E89FF0011124E953FA4F50E040E080E04E
:1010C000219130E0092E02C0369527950A94E2F767
:1010D00021703327042E01C0220F0A94EAF7822BD5
:1010E0004F5F5F4F4530510559F70895292F220F63
:1010F000E22FE90FEE0FE80F8E2F877041E001C05D
:10110000440F8A95EAF7E695E695E69585E0E89F2F
:10111000F0011124E953FA4F30E020E070E05191E2
:10112000DF011197CB01022E02C0969587950A9494
:10113000E2F7817081958527842385278C932F5F23
:101140003F4F2530310559F708958091C60590919C
:101150009505981301C008958F5F8770FACF882393
:1011600041F08095909104068923809304060C94A5
:10117000A6070895882339F090910406892B80935F
:1011800004060C94A6070895882341F08095909159
:1011900005068923809305060C94A60708958823E5
:1011A00039F090910506892B809305060C94A607CB
:1011B000089520912D0530912E052817390771F0DB
:1011C00090932E0580932D05E0912A06F0912B0631
:1011D000309721F00084F185E02D09940895209145
:1011E0002B0530912C052817390771F090932C05A9
:1011F00080932B05E0912A06F0912B06309721F081
:101200000680F781E02D09940895E0912A06F09177
:101210002B06309721F00190F081E02D099480E0B9
:101220000895FA0181110994FB01FDCFFC01C097DB
:1012300030F5EE0FFF1FEE0FFF1FE85DFE4F5281EE
:10124000338180818370A82FB0E0E18170E9879FAE
:10125000C00111248D519C4FE80FF92FF11DB49757
:101260006083FC01E50FF11DB4974083830F911D4E
:10127000FC01B4972083AF51BC4F81E08C9308955B
:10128000FF920F931F93CF93DF93182F062FF42E07
:10129000D0E0C0E02F2D402F612FCE010E94160913
:1012A0002196C033D105B1F7DF91CF911F910F91F6
:1012B000FF9008950C9440090C941609EF92FF9248
:1012C0000F93282FC701801B91098F3F910519F0BB
:1012D00010F08FEF90E08095382F230F08F42FEF58
:1012E000822F0F91FF90EF900895EF92FF920F934E
:1012F000282FC701801B91098F3F910519F010F02D
:101300008FEF90E0382F3095230F08F42FEF680F00
:10131000822F0F91FF90EF900895EF92FF920F931D
:10132000972FFA01B9019701093430F4201B3109D4
:101330002F3F310519F010F02FEF30E038967197FC
:1013400040F0AB01485F5F4F4131510510F02FEF86
:1013500030E02095382F320F08F43FEF77FF02C0BE
:101360006D5F7F4F7595679575956795809191062F
:10137000680F792F832F0F91FF90EF900895EF92D0
:10138000FF920F931F93E00EF11C890137FF03C0FA
:1013900011950195110924E0000F111F2A95E1F71D
:1013A0000F3F110519F014F00FEF10E09A0157FFED
:1013B00003C031952195310994E0220F331F9A958E
:1013C000E1F7201731070CF489010E0D1F1D0F3FA7
:1013D000110519F010F00FEF10E00095282F200FE5
:1013E00008F42FEF822F1F910F91FF90EF90089537
:1013F000EF92FF920F93282FC70135E0039F800DD6
:10140000911D11248F3F910519F010F08FEF90E09E
:101410008095382F230F08F42FEF822F0F91FF9024
:10142000EF90089522E8241B08F420E0620F08954D
:101430004095282F429F412D1124842F08950F930A
:101440001F93522F10E0F801EE0FFF1FEE5EFC4FCE
:101450009081905797FD9195000F111FF801ED5E57
:10146000FC4F00810052110B50039001519F300D31
:10147000112408E310E0091B110997FD139540039F
:10148000F001419FF00D1124E20FF31F9F01220F85
:10149000331F2E0F3F1F37FF02C021583F4F220F2F
:1014A000232F221F330B620F1F910F9108950F936B
:1014B0001F93522F10E0F801EE0FFF1FED5EFC4F5F
:1014C000A081A052BB0B9D015203F001539FF00D70
:1014D0001124000F111FD801AE5EBC4F0C910057B4
:1014E000110B40039001419F300D11242E0F3F1F1F
:1014F00037FF02C0215C3F4F96E0359527959A95BE
:10150000E1F7620F1F910F9108950F931F93522FD0
:1015100010E0F801EE0FFF1FED5EFC4FA081A0521E
:10152000BB0B9D015203F001539FF00D1124000FDE
:10153000111FD801AE5EBC4F0C910057110B400338
:101540009001419F300D11242E0F3F1F37FF02C025
:1015500021583F4F220F232F221F330B620F1F9161
:101560000F910895EF920F93972F23E0029FB00100
:101570001124759567956E0D792F0F91EF90089551
:10158000322F50E0FA01EE0FFF1FED5EFC4F90810D
:10159000905297FD9195440F551FFA01EE5EFC4F56
:1015A0002081231B330B290F311D97FD3A95620FC4
:1015B0000895E42FF0E0EE0FFF1FED5EFC4F608119
:1015C000621B0895E42FF0E0EE0FFF1FEE5EFC4F6C
:1015D0006081621B0895622F0895582FA22FE42F77
:1015E000F0E0EE0FFF1FEE5EFC4F208134EE239FF4
:1015F000212D112490E030E0245E3F4F2A1B310959
:1016000037FF03C031952195310943E0220F331F85
:101610004A95E1F7821B930B97FD80E0282F259FC9
:10162000212D1124822F08951F93172F922FE42F1D
:10163000F0E0EE0FFF1FEE5EFC4F208134EE239FA3
:10164000212D1124472F50E030E0245E3F4F291B0D
:10165000310937FF03C031952195310993E0220FFD
:10166000331F9A95E1F7421B530B57FD40E0742F4F
:10167000719F712D11241F910895FC019B0100970A
:1016800029F480E077FF2BC080E80895AC0197FF34
:1016900004C044275527481B590BB901640F751F17
:1016A00037FD10C0241B350BC901A5E0880F991F19
:1016B000AA95E1F70E946A3580E2861BF7FF0FC00A
:1016C00081950895CB0165E0880F991F6A95E1F730
:1016D000BA01621B730B0E946A3580E6EECF089553
:1016E000EF920F93CF93DF93D72FC82FBA01C90181
:1016F0000E190E943D0B602F681B7D2F8C2FDF91F0
:10170000CF910F91EF9008950F93CF93DF93D72F41
:10171000C82FBA01C9010E943D0B682F600F7D2FB1
:101720008C2FDF91CF910F910895EF920F931F931C
:10173000CF93DF93D62FC72F182FBA01C9010E19E7
:10174000010F0E943D0B081B019F012D11246D2FDD
:101750007C2F802FDF91CF911F910F91EF900895F3
:10176000EF920F931F93CF93DF93D62F172FC82F8E
:10177000BA01C9010E19010F0E943D0B702F781B91
:10178000719F712D11246D2F8C2FDF91CF911F919F
:101790000F91EF9008950F931F93CF93DF93D62F60
:1017A000C72F182FBA01C901212F201B022F0E9419
:1017B0003D0B982F990F990F282F291B200F219F40
:1017C000212D11246D2F7C2F822FDF91CF911F911E
:1017D0000F9108950F931F93CF93DF93D62F172F59
:1017E000C82FBA01C901212F201B022F0E943D0BD7
:1017F000982F990F990F782F791B700F719F712D6A
:1018000011246D2F8C2FDF91CF911F910F9108958F
:10181000982FE82F96FDE0952E2F2F7096FD2F5FC5
:10182000E695E695E695E670F0E0E05EFE4F818194
:10183000829F802D212D112482958F702295207FEB
:10184000822B2081820F97FD8195805808959C01FD
:101850008230910508F408959FEF213E8EE138070C
:1018600040F4C90145E0969587954A95E1F798E0DF
:10187000980F61E0E62FE90FFF27FF1FAF01559595
:101880004795842F449FF001459FF00DF00D1124E2
:101890002E173F0738F49FEF940F961758F78FEFE6
:1018A000860F08954F3FE9F361E0640FF6CF0F9381
:1018B000CF93DF93D72FC82FF90147FD419528E338
:1018C00030E0241B310947FD3395229FA001239F5F
:1018D000500D500D1124EE9FC001EF9F900D900D03
:1018E0001124840F951F0E94270C982F990F692FA0
:1018F000680F600F7D2F8C2FDF91CF910F9108958E
:101900009C0190E080E0269F812D369F800D911DE7
:1019100011240895AF92BF92CF92DF92EF92FF927F
:101920000F931F93CF93DF93362F472FE82FF0E0CD
:10193000E457FC4F71110EC06491762F862FDF9112
:10194000CF911F910F91FF90EF90DF90CF90BF90BC
:10195000AF900895C72FD0E0249186E0689F700172
:1019600011240FEF10E0C701B8010E945635832FF4
:1019700090E0880F991F35E5369FF001379FF00DF5
:1019800011248E1B9F0B982F990F980FF801EC1BB9
:10199000FD0B2E9FD0012F9FB00D1124EB2F949F94
:1019A000A0011124452F55276801C41AD50AA601A4
:1019B000249F6001259FD00C11248D2D5801A91A58
:1019C000B108AC9EA001AD9E500DBC9E500D1124DF
:1019D000452F5527041B150B209FA001219F500D5B
:1019E000112463307105D9F09CEFE91693E0F906F4
:1019F00068F461307105B9F062307105C1F09FEF94
:101A0000E916F10448F48B2FE52F06C06430710508
:101A100089F066307105B9F36E2F722F90CFED2DDE
:101A2000822F2B2FF9CFE22F2D2D8B2FF5CF852F46
:101A3000E22FF7CF822F252FEFCF2F923F924F9299
:101A40005F926F927F928F929F92AF92BF92CF924E
:101A5000DF92EF92FF920F931F93CF93DF93CDB757
:101A6000DEB729970FB6F894DEBF0FBECDBF282E84
:101A70006A837B8380911A01282F220F220F280F5F
:101A80002E832B5F29832C83213310F030E33C839A
:101A9000809195068D83FE81EF2FF0E0F987E8872E
:101AA000CF01880F991F9C012E5E3C4F6901822D4A
:101AB00090E0FC013196FF83EE838C819885981726
:101AC000F0F081E0E981E03308F080E029960FB67C
:101AD000F894DEBF0FBECDBFDF91CF911F910F9164
:101AE000FF90EF90DF90CF90BF90AF909F908F903E
:101AF0007F906F905F904F903F902F900895E88572
:101B0000F985EE58FC4F808190911B018923F1F0FB
:101B100040909106509092062E813F812B56394F6E
:101B20003901322C10E0FD813F16D0F02091930650
:101B3000129F112D1124B201812F0E948A0C462F71
:101B4000672F282F888599850E945C09288539850B
:101B50002F5F3F4F3987288732E0C30ED11CADCFAE
:101B6000F30181913F01F601A080A81ABB08818092
:101B7000F3018781881A9908AA9C9001AB9C300DCB
:101B8000300D1124889CC001899C900D900D11246A
:101B9000820F931F0E94270C082FF301EE0FFF1FE7
:101BA000E559F64060919406858996890E94800CDB
:101BB0007C019401A501B201812FEA81FB81099585
:101BC0002B01182F3394AFCFCF92DF92EF92FF9279
:101BD0000F931F93CF93DF936C0180911A01C82F4D
:101BE000CC0FCC0FC80F25E0F22EFC0EEF2C80E3BB
:101BF0008F1510F490E3E92E2091940630E050E028
:101C000040E06FEF7FEF80E090E00E948D37890128
:101C1000D0E02C2FCE1570F081E0FFE2FF1508F424
:101C200080E0DF91CF911F910F91FF90EF90DF90B7
:101C3000CF900895FE01EE58FC4F808190911B01DA
:101C40008923F1F0409195064150042E000C550B6C
:101C500047FF18C0C801609194060E94800CAC0137
:101C6000609191067091920680919306F601099514
:101C70000E948A0C462F672F282FCE010E945C09F4
:101C80002196C7CFFA01EB56F94F818982130AC01A
:101C9000FA01EE0FFF1FEB56F94F818D928D8017E1
:101CA0009107C8F241505109D3CFBF92CF92DF9232
:101CB000EF92FF920F931F93CF93DF9300D000D04A
:101CC0000F92CDB7DEB76C0180911A01982F990F52
:101CD000990F980F9B8325E0F22EF90EBF2CE0E3BD
:101CE000EF1510F480E3B82E609194066695669522
:101CF00080918806909189060E94800C182F80E4BC
:101D0000810F0E94080C80588983812F0E94080C43
:101D100080588A839B81892F90E09D838C839C814E
:101D20009B15A0F081E0EFE2EF1508F480E00F9042
:101D30000F900F900F900F90DF91CF911F910F9107
:101D4000FF90EF90DF90CF90BF900895EC81FD81E0
:101D5000EE58FC4F808190911B018923A9F060917E
:101D600091067091920680919306E12E0C812A8152
:101D70004981F60109950E948A0C462F672F282F6A
:101D80008C819D810E945C098C819D810196C5CFCB
:101D90007F928F929F92AF92BF92CF92DF92EF92FB
:101DA000FF920F931F93CF93DF934C0180911A0101
:101DB000C82FCC0FCC0FC80F15E01C0F712E11339C
:101DC00010F090E3792E60919406669580918806D4
:101DD000909189060E94800CF82ED0E0C71590F0F3
:101DE00081E0103308F080E0DF91CF911F910F91D7
:101DF000FF90EF90DF90CF90BF90AF909F908F902B
:101E00007F900895FE01EE58FC4F808190911B0158
:101E10008923B9F19E01220F331FF901EE5EFC4FB9
:101E20008081482F4057550B6A012D5E3C4FF901C8
:101E30008081282F2052330B5901449F9001459FE8
:101E4000300D300D1124AA9CC001AB9C900D900D5B
:101E50001124820F931F0E94270C082F6091910676
:101E60007091920680919306EF2C9501A601F401E2
:101E700009950E948A0C462F672F282FCE010E94B9
:101E80005C092196ABCFCF92DF92EF92FF920F9336
:101E90001F93CF93DF937C0180911A01C82FCC0F41
:101EA000CC0FC80F15E01C0FC12E113310F090E3BA
:101EB000C92E609194066695809188069091890656
:101EC0000E94800CD82ED0E0CC1568F081E0103351
:101ED00008F080E0DF91CF911F910F91FF90EF907C
:101EE000DF90CF900895FE01EE58FC4F80819091D5
:101EF0001B01892301F1AE01440F551FFA01ED5E6C
:101F0000FC4F20812052330B4E5E5C4FFA01408122
:101F10004057550B609191067091920680919306FF
:101F20000D2DF70109950E948A0C462F672F282F47
:101F3000CE010E945C092196C7CFDF92EF92FF92FB
:101F40000F931F93CF93DF937C0180911A01C82FC9
:101F5000CC0FCC0FC80F15E01C0FD12E113310F091
:101F600080E3D82E609194066695669580918806E8
:101F7000909189060E94800C082FD0E0CD1560F06A
:101F800081E0103308F080E0DF91CF911F910F9135
:101F9000FF90EF90DF900895FE01EE58FC4F808196
:101FA00090911B01892391F06091910670919206A6
:101FB00080919306202F4C2FF70109950E948A0CDF
:101FC000462F672F282FCE010E945C092196D6CF7D
:101FD0009091280692FF06C0282F28712830F9F426
:101FE000877F846093FF06C0282F28712831F1F481
:101FF000877E84612091290620FF06C0382F387122
:102000003830D9F4877F816021FF06C0282F2871DE
:102010002831D1F4877E816194FD877E0895282F31
:1020200024712430F9F68B7F8860DCCF282F24714F
:10203000243101F78B7E8861DDCF382F317131304B
:1020400019F78E7F8860E0CF282F2171213121F789
:102050008E7E8861E1CFCF93DF93972F70E026E0EB
:10206000929F600D711D1124FB0134E5839FE00DEB
:10207000F11D1124EE0FFF1FE155FB4FC591D491C7
:10208000CE01C03ED10509F46DC060F5C133D10564
:1020900009F4B2C088F4C932D10509F4A6C0CA3225
:1020A000D10509F4B0C0C130D10549F12497C13A36
:1020B000D10508F063C023C0C933D10509F44BC072
:1020C000C238D10509F447C0C533D10509F486C02B
:1020D000C83AD10508F09EC0C53AD10520F38497CF
:1020E00090640DC0C43ED10509F45BC058F4C23EF3
:1020F000D10509F446C0C33ED10509F447C0DF91BC
:10210000CF910895C63ED10509F456C0C73ED1050A
:1021100009F459C0C11542E5D40708F0AEC0C11595
:1021200021E5D20708F014C1C83ED10540F3C1151E
:1021300030E5D30708F086C0C11540E4D40708F0A5
:1021400004C1CF3FD10511F008F076C09065C03FC3
:10215000D105A8F613C020912806237081F280EEE5
:1021600090E0CDCF2091280620FD09C130912906AD
:1021700030FFC5CF83EE90E024FFC1CF90E080E038
:10218000BECF2091280622FDF5CFB9CF2091280699
:1021900022FDF8C03091290630FDE1CF24FFAFCFFA
:1021A000EDCF2091290621FFAACF8091280684FD3A
:1021B000E5CF87EE90E0A3CF2091280623FF9FCFA5
:1021C00024FDDCCFF6CF2091280623FDDEC0309120
:1021D000290631FFE3CF84EE90E091CF20912806CD
:1021E00025FF8DCF89E290E08ACF2091280625FF38
:1021F00086CF85E390E083CF2091280626FF7FCF0E
:102200008AE290E07CCF2091280626FF78CF81E3F8
:1022100090E075CF9E01285A31092731310508F029
:10222000ADCF885AE82FF0E0EE0FFF1FE057FD4FCB
:1022300080819181946463CFDA95C115DF4108F400
:102240005ECF9CCF9E01B4E036952795BA95E1F715
:10225000237086958695837030E2839FC001112498
:10226000922BC37021E030E002C0220F331FCA95C9
:10227000E2F7822B932B9C6842CFC11549E5D40726
:10228000B8F5C11528E5D20708F070C0C11535E5CD
:10229000D307F0F4C11544E5D40708F062C09C2FC1
:1022A00096959695AE014370552721E030E002C027
:1022B000220F331F4A95E2F740E2C115D34508F4D7
:1022C0004CC0949FC0011124822B932B9A6817CF86
:1022D00095558F3F910511F008F050CF8C2F0E943B
:1022E000E80F90E0982F882788279F71906207CF8A
:1022F000C1158CE5D807C0F4C1159BE5D907D8F501
:10230000CE0199558F3F910511F008F037CF8C2FF2
:102310008F700E94E80F34E0D695C7953A95E1F7A3
:10232000CF709C2F9069EBCECE01905681159042D4
:1023300008F024CF8D2F8F710E94E80F90E0982F26
:10234000882788279F718C2BD1CF9F70906AD7CE1A
:102350009C2F8827816F906AD2CE949FC001112450
:1023600088CF9C2F8827846F906AC9CE9C2F88279E
:10237000806F906AC4CECE0199279066C0CE89E363
:1023800090E0BDCE82EE90E0BACE86EE90E0B7CE81
:10239000BF92CF92DF92EF92FF920F931F93CF9352
:1023A000DF938C01C090FE05D090FF05E090000601
:1023B000F09001068091070690910806A091090609
:1023C000B0910A06C82AD92AEA2AFB2ACFE1D0E02E
:1023D000BC2ED701C6010C2E04C0B695A7959795C3
:1023E00087950A94D2F780FD0EC0219788F7B12C0B
:1023F0008B2DDF91CF911F910F91FF90EF90DF9088
:10240000CF90BF900895B8018C2F0E942B10019798
:1024100061F3EECFCF93DF93D82FC92F0E94C8115D
:102420006D2F7C2FDF91CF910C942B100E940A12FC
:10243000282F892F8F70392F32953F70903C80F470
:102440003A30B0F4343020F4323090F480E0089523
:102450003630E1F781E0283E88F0213FB9F70EC021
:102460003C3011F03F3091F786958695869508951A
:1024700081E0203F39F018F4283E40F70895243FCA
:1024800029F7FCCF08950F931F93CF93DF9320E993
:10249000289FE001299FD00D1124C455DF4F10E083
:1024A00000E0FE0164913196749131968491962FEB
:1024B000972B982B89F420E040E060E0C8010E944F
:1024C0005C090F5F1F4F23960033110551F7DF9111
:1024D000CF911F910F9108950E948A0C462F672F6C
:1024E000282FECCF40E060E080E00E945A0940E0F5
:1024F00060E080E00E945A0981E0809359060895C7
:1025000027982F98089526982E98089525982D9805
:10251000089556985E980895279A2F9A0895269AB6
:102520002E9A0895259A2D9A089584B1807F84B9B2
:1025300085B1807F85B98AB1837F8AB98BB1837F6A
:102540008BB93E984698089580B38C7080BB81B358
:10255000836F81BB0895CF9384E090E00E9445375C
:10256000C82F81E290E00E944537982F8C2FCF91A1
:102570000895CF93DF9300D00F92CDB7DEB790913F
:102580007E06943019F589836A837B8382E0809389
:10259000E9008FEF9091E800815095FD06C095ED20
:1025A0009A95F1F700008111F5CF8091E80085FF41
:1025B0000DC050E040E063E070E0CE0101960E9463
:1025C000D8048091E8008E778093E8000F900F90F8
:1025D0000F90DF91CF910895CF93DF93D82FC92F1C
:1025E0000E940E06823011F0843039F46D2F7C2F5A
:1025F00084E0DF91CF910C94B912DF91CF910895CF
:10260000BC0183E00C94B912CF93DF93D82FC92F6C
:102610000E940E06823011F0843001F582E0809332
:10262000E9008FEF9091E800815095FD06C095ED8F
:102630009A95F1F700008111F5CF8091E80085FFB0
:102640000DC050E040E066E070E08D2F9C2F0E94AE
:10265000D8048091E8008E778093E800DF91CF91D5
:102660000895CF93DF93D82FC92F0E940E06823092
:1026700011F08430C9F5809119018823C1F180914E
:10268000280687FF34C060E282E08093E9008FEF84
:102690009091E800815095FD06C095ED9A95F1F76F
:1026A00000008111F5CF8091E80085FF1DC0809169
:1026B000190170E050E040E0811104C050E040E0BA
:1026C00068E070E08D2F9C2F0E94D8048091E80074
:1026D0008E778093E80080E2ED2FFC2FACE5B6E02A
:1026E00001900D928A95E1F7DF91CF91089568E00E
:1026F00081E0CBCF0E9489120E9486120E94831231
:102700000E9480128FEF90E0909389008093880060
:1027100090938B0080938A0090938D0080938C001F
:102720000E9492122FEF80E792E02150804090406B
:10273000E1F700C000000E948F122FEF80E792E0C7
:10274000215080409040E1F700C000000E948C12B0
:102750002FEF80E792E0215080409040E1F700C0E9
:1027600000000E9486122FEF80E792E02150804007
:102770009040E1F700C000000E9483122FEF80E735
:1027800092E0215080409040E1F700C000000E949C
:1027900080120E9489120E9486120E9483120C9459
:1027A0008012609112068CE090E00C9469376CEE18
:1027B0007EEF90E080E00E94873760E082E090E06A
:1027C0000E94693760E083E090E00E9469371092D0
:1027D0000706109208061092090610920A0660E099
:1027E00084E090E00E94693760E081E290E00E941E
:1027F000693760E085E090E00E94693760E086E03C
:1028000090E00E9469376FEF87E090E00E9469379F
:1028100040E050E0BA0188E090E00E947B3760E041
:102820008DE090E00E94693740E050E0BA0188E115
:1028300090E00E947B3760E087E190E00E9469377A
:1028400040E050E0BA018CE190E00E947B3760E00C
:1028500080E290E00E9469371092160610921706E7
:10286000109218061092190684E080618093160673
:10287000409116065091170660911806709119063E
:102880008FE090E00E947B3740E050E0BA0183E1A6
:1028900090E00C947B37EF92FF921F93CF93DF93DE
:1028A0007B01182F110FD0E0C0E08C2F8C5D80933E
:1028B000CD03D701AC0FBD1FEEECF3E08D918193FA
:1028C00083E0EE3DF807D1F724E630E041E150E047
:1028D0006DEC73E0812F0E9425356096C039D105DB
:1028E00021F7DF91CF911F91FF90EF900895809194
:1028F000E103882329F063EE73E084E70E944B1420
:102900001092E1038091E203882329F063E774E0E9
:1029100087E70E944B141092E2030895EDECF3E078
:102920006083418324E630E042E050E0BF01880F3D
:102930000C9425350F931F93CF93DF93082FE62F29
:10294000F0E0E95DFA4F8081882379F082E1689FA9
:10295000E0011124CD5FDA4F10E04991612F802F03
:102960000E948E141F5F1231C1F7DF91CF911F912A
:102970000F910895CF93DF93C82F4BE06DEF0E9426
:102980008E1440E06AE08C2F0E948E148FE39CE945
:102990000197F1F700C0000040E060E08C2F0E943A
:1029A0008E1440E061E08C2F0E948E1440E066E0BF
:1029B0008C2F0E948E1440E06DEF8C2F0E948E149D
:1029C000D0E040E06D2F8C2F0E948E14DF5FD2315B
:1029D000C1F740E06D2F8C2F0E948E14DF5FD43240
:1029E000C1F740E06D2F8C2F0E948E14DF5FD43B27
:1029F000C1F74BE06DEF8C2F0E948E1441E06AE02E
:102A00008C2F0E948E1440E06DEF8C2FDF91CF91C0
:102A10000C948E146F927F928F929F92AF92BF927E
:102A2000CF92DF92EF92FF920F931F93CF93DF939A
:102A30000E94703484E70E94BA1487E70E94BA1497
:102A400068E2E62E61E0F62ED12CC12C72E1772EE1
:102A5000E8E08E2E912CAA24A394B12C66246394D2
:102A6000F701418150E0CA01849702810452110BA1
:102A7000C381C452DD0BF601EE0FFF1FEE0FFF1FE7
:102A8000E85DFE4F2081237030E0FC0197FD379612
:102A900043E0F595E7954A95E1F7729EA001739E94
:102AA000500D11244D5F5A4FE40FF52FF11DB40165
:102AB0000E946A35A50101C0440F8A95EAF780811A
:102AC000842B8083F80117FD379693E0F595E79501
:102AD0009A95E1F7729EC001739E900D11248D5F4F
:102AE0009A4FE80FF92FF11DC801B4010E946A3511
:102AF000A50101C0440F8A95EAF78081842B808369
:102B0000FE01D7FD379683E0F595E7958A95E1F7C5
:102B1000729EC001739E900D11248D5F9A4FE80F35
:102B2000F92FF11DCE01B4010E946A35A50101C043
:102B3000440F8A95EAF78081842B8083295D3A4F80
:102B4000F9016082FFEFCF1ADF0A84E0E80EF11C82
:102B5000E0E3CE16D10409F083CF60E084E70E9461
:102B60009A1461E087E7DF91CF911F910F91FF9059
:102B7000EF90DF90CF90BF90AF909F908F907F901D
:102B80006F900C949A141F93CF93DF93EC01FC0188
:102B9000EE58FC4F80816823A1F00E94F235182F77
:102BA0000E94F235782F612F809193060E948A0C43
:102BB000462F672F282FCE01DF91CF911F910C94C4
:102BC0005C09DF91CF911F910895DF92EF92FF9200
:102BD0000F931F93CF93DF93EC01FC01EE58FC4F52
:102BE0008081682381F1D090920600919306109124
:102BF0009106E12EF12C0E94F235282FC7018C544A
:102C00009F4F68E671E00E946A358E199F0997FD13
:102C1000039695958795959587952370612F289FA5
:102C2000600D11247D2D802F0E948A0C462F672F66
:102C3000282FCE01DF91CF911F910F91FF90EF9040
:102C4000DF900C945C09DF91CF911F910F91FF9061
:102C5000EF90DF90089545E050E06CE170E080E98E
:102C600096E00C94593780919006982F96959695FA
:102C70009F5F9F738370943248F4990F990F892B4B
:102C80008093900610920C010C942B168460F8CF60
:102C900080919006845080939006982F9C7F21F419
:102CA00083708C688093900610920C010C942B1604
:102CB000E0E9F6E08181885F81830C942B16E0E9DE
:102CC000F6E08181885081830C942B16E0E9F6E0D0
:102CD000228130E1230F08F42FEF22830C942B166E
:102CE000E0E9F6E0228130E1231B08F420E02283B2
:102CF0000C942B16E0E9F6E0238130E1230F08F471
:102D00002FEF23830C942B16E0E9F6E0238130E1CA
:102D1000231B08F420E023830C942B16E0E9F6E053
:102D2000248130E1230F08F42FEF24830C942B1619
:102D3000E0E9F6E0248130E1231B08F420E024835D
:102D40000C942B169091900696959695981720F0D6
:102D5000961710F40C943316880F880F90919006F4
:102D60009370892B8093900610920C010C942B1673
:102D7000E0E9F6E081E3808380911D0190911E01DE
:102D8000A0911F0181839283A3838FE784830C9496
:102D90002B160E940A15109295068FEF9FEF9093C5
:102DA000AF068093AE069093B1068093B0069093E1
:102DB000B3068093B2069093B5068093B4069093C1
:102DC000B7068093B6069093B9068093B8069093A1
:102DD000BB068093BA069093BD068093BC06109202
:102DE0005E05909378058093770590937A0580939C
:102DF000790590937C0580937B0590937E05809365
:102E00007D059093800580937F0590938205809344
:102E10008105909384058093830590938605809324
:102E2000850590E080E00E9453378C3E9E4F21F054
:102E30000E94D7130E94B81645E050E06CE170E0A4
:102E400080E996E00E943537809190068C7F11F4DE
:102E50000C94B816089580E290E090930E01809350
:102E60000D018091CC0381110EC00E94703481E06D
:102E70008093CC032FEF83ED90E32150804090406E
:102E8000E1F700C0000064E670E080E40E94763460
:102E900090930E0180930D01892B09F04EC064E6DA
:102EA00070E080E00E94D23490930E0180930D0177
:102EB000892B09F042C064E670E080E00E94D234C1
:102EC00090930E0180930D01892BB9F564E670E0B3
:102ED0008FE30E94D23490930E0180930D01892BD1
:102EE00061F50E94523564E670E080E40E94763419
:102EF00090930E0180930D01892BF9F464E670E044
:102F00008CE00E94D23490930E0180930D01892BA6
:102F1000A1F464E670E080E00E94D23490930E0148
:102F200080930D01892B49F464E670E08FE30E94E1
:102F3000D23490930E0180930D010E9452358091FE
:102F40000D010895CF93C82F873070F580910D0142
:102F500090910E01892B99F564E670E080E40E945F
:102F6000763490930E0180930D01892BD1F464E6A1
:102F700070E082E10E94D23490930E0180930D01A3
:102F8000892B79F481E090E001C0880FCA95EAF7B7
:102F900064E670E080950E94D23490930E01809395
:102FA0000D01CF910C9452358B30C9F050F489301B
:102FB00081F08A3089F0883049F0209A2898CF91A2
:102FC00008958C3079F4539A5B98F9CF219A299817
:102FD000F6CF229A2A98F3CF239A2B98F0CF529AC1
:102FE0005A98EDCF3E9A4698EACFCF93DF93873039
:102FF00058F580910D0190910E01C0E0892B71F47C
:1030000064E670E081E40E94763490930E01809330
:103010000D01892B39F0C0E00E9452358C2FDF91D1
:10302000CF91089584E690E00E940135EC0197FF6E
:1030300005C090930E0180930D01EDCFC0951092C5
:103040000E0110920D01E8CFCFB12FB12695269534
:103050002C73C3702C2BC22FC095E0CF78941F9295
:103060001FB61F9211248F939F93AF93BF938091AC
:103070000B0690910C06A0910D06B0910E060196DC
:10308000A11DB11D80930B0690930C06A0930D0615
:10309000B0930E06BF91AF919F918F911F901FBE6D
:1030A0001F9018952FB7F89480910B0690910C06FD
:1030B000A0910D06B0910E062FBF0895E0912A064B
:1030C000F0912B06309749F082E08093420604800D
:1030D000F581E02D82E496E009950E9452189093C4
:1030E0003E0680933D060895109204061092030652
:1030F0000E94A60786E0E2E4F6E0DF011D928A95D1
:10310000E9F710923F0610920F060E945E1890E0B9
:1031100080E00E94EF0890E080E00C94D908FF92D4
:103120000F931F93CF93DF93F62E072F182FD92FCE
:103130000E945507C82F0E9489120E9486120E9481
:1031400083120E948012C150C73040F4EC2FF0E08F
:10315000EE50F84C0C947E350E949212F092FE05CF
:103160000093FF0510930006D0930106DF91CF91E5
:103170001F910F91FF900C9474180E9492120E945C
:103180008F12ECCF0E9492120E948C12E7CF0E9405
:1031900092120E948F12F8CF0F931F93CF93DF9359
:1031A00000D000D0CDB7DEB741E050E060E070E085
:1031B00004C0440F551F661F771F8A95D2F74095AC
:1031C0005095609570958091FE059091FF05A091B6
:1031D0000006B09101068A019B01082319232A23C6
:1031E0003B2309831A832B833C83C901B8010F90C9
:1031F0000F900F900F90DF91CF911F910F910C9432
:103200008F18909102068095892380930206282FBB
:10321000277071F4282F082E000C330B9217130619
:1032200039F08595859585950E94CC1810920206F7
:1032300008950F931F93CF93DF9300D000D0CDB7A5
:10324000DEB741E050E060E070E004C0440F551F7D
:10325000661F771F8A95D2F78091FE059091FF0532
:10326000A0910006B09101068A019B01082B192B41
:103270002A2B3B2B09831A832B833C83C901B8017A
:103280000F900F900F900F90DF91CF911F910F91A2
:103290000C948F18609307067093080680930906B4
:1032A00090930A060C9474181092050680911901E7
:1032B000E4EAF3E0882359F08091280687FF07C0ED
:1032C0008EE1DF011D928A95E9F70C94741886E06F
:1032D000F8CF1F93CF93DF93CDB7DEB7AA970FB682
:1032E000F894DEBF0FBECDBF80E896E0FC010196EA
:1032F0002091F100208326E088389207B9F7809169
:103300008106893009F456C0C8F4823009F4B1C08E
:10331000833009F480C0813071F18091E80083FF2F
:1033200085C280918006909181069A3008F07EC215
:10333000E92FF0E0E750F84C0C947E358A3009F420
:1033400087C08B3051F780918006813231F78091B0
:10335000840690918506892B01F78091E800877F8C
:103360008093E8000E9402058091820680931901F3
:103370000E945419D2CF80918006813A71F68091D3
:10338000E800877F8093E80080918406909185060D
:10339000892B61F460E28CE596E070E00E94B40550
:1033A0008091E8008B778093E800B7CF60E090E0F1
:1033B00080E0F3CF80918006813209F0AECF80911A
:1033C000840690918506029708F0A7CF8091E800C7
:1033D000877F8093E8008091E80082FF17C090917A
:1033E000F3008091F200029729F48091F1008B7F25
:1033F000813021F48091F10080935B068091E80098
:103400008B778093E8000E94020587CF80917E062B
:103410008111E1CF82CF80918006813A09F07DCF82
:103420008091840690918506892B09F076CF809152
:10343000E800877F8093E8008091E80080FFFCCF60
:10344000809119018093F1008091E8008E77D9CFA7
:1034500080918006813209F060CF8091E800877FFB
:103460008093E8000E9402058091830680935A06AB
:1034700054CF80918006813A09F04FCF8091E800C7
:10348000877F8093E8008091E80080FFFCCF8091E7
:103490005A06D8CF803899F0823809F0C7C1809198
:1034A00084068F70873008F0C1C18093E900809155
:1034B000EB0085FB882780F91092E90006C0809117
:1034C0007C0690917D06911182609091E800977F33
:1034D0009093E8008093F1001092F1008091E80051
:1034E0008E77A0C1882309F48EC1823009F09EC175
:1034F00080918206811191C1809184068F702FEF97
:10350000280F263008F092C18093E9002091EB004B
:1035100020FF83C1933031F48091EB00806280936F
:10352000EB007BC19091EB0090619093EB0021E068
:1035300030E001C0220F8A95EAF72093EA0010924A
:10354000EA008091EB008860EACF81116FC1109191
:1035500082061F778091E3008078812B8093E300BF
:103560008091E800877F8093E8000E9402058091A7
:10357000E80080FFFCCF8091E30080688093E30047
:1035800082E0111183E080937E0650C18058823022
:1035900008F04CC140918206509183064C3D83E077
:1035A0005807A1F583E08A838AE289834FB7F894AC
:1035B000DE01139620E03EE051E2E32FF0E050936D
:1035C0005700E49120FF03C0E295EF703F5FEF707A
:1035D0008E2F90E0EA30C0F0C7968D939D932F5FB9
:1035E000243159F74FBF8091E800877F8093E8002E
:1035F0006AE270E0CE0101960E94B4058091E80075
:103600008B778093E80012C1C096E7CF20918406A3
:1036100030918506852F99278330910509F160F453
:103620008130910509F47EC0029709F0FFC08BE359
:1036300090E0EBE4F8E03EC08132910509F466C009
:10364000829709F0F3C02115310509F475C02130C6
:10365000310509F0EBC08CEB90E0EFE4F7E02AC015
:10366000CA019927423009F449C08330910568F4B2
:103670000097B1F0019709F0D9C0E6EBF8E0E491CA
:103680008E2F90E0E6EBF8E012C0039709F0CEC071
:10369000E8E9F8E0E4918E2F90E0E8E9F8E007C06F
:1036A000EEECF8E0E4918E2F90E0EEECF8E000977D
:1036B00009F4BCC02091E800277F2093E800209106
:1036C0008606309187068217930708F49C0140E034
:1036D00021153105B1F5411134C08091E80082FD1A
:1036E0008DCF80917E06882309F488CF853009F438
:1036F00085CF8091E80083FFF0CF80CFEEE9F8E03E
:10370000E4918E2F90E0EEE9F8E0D1CF211531055C
:1037100071F02130310509F089C089E090E0E6E7D9
:10372000F8E0C8CF82E190E0E6E8F8E0C3CF89E0B6
:1037300090E0EDE5F8E0BECF80E490E0EBE0F8E06B
:10374000B9CF80917E06882309F458CF853009F4DB
:1037500055CF8091E80083FD51CF8091E80082FD34
:10376000BCCF8091E80080FFB3CF9091F3008091AF
:10377000F2002115310519F08830910550F041E033
:10378000089709F040E08091E8008E778093E80088
:103790009FCF44914093F100319621503109019619
:1037A000E8CF803809F042C08091E800877F80939D
:1037B000E80080917F068093F10090CE811136C0A1
:1037C00010918206123090F58091E800877F8093F7
:1037D000E80010937F060E940205112311F084E097
:1037E00005C08091E30087FDFACF81E080937E06DB
:1037F00042E061EC81E00E94210542E261EC82E05E
:103800000E94210513C080918206813079F481E005
:10381000933009F080E080937D061092E90080915A
:10382000E800877F8093E8000E9402058091E8000D
:1038300083FF0AC08091E800877F8093E800809131
:10384000EB0080628093EB00AA960FB6F894DEBF7F
:103850000FBECDBFDF91CF911F9108951F920F92A0
:103860000FB60F9211242F933F934F935F936F9353
:103870007F938F939F93AF93BF93CF93DF93EF93F8
:10388000FF93D091E900DF708091EC00C82FC170E8
:1038900080FDC0E81092E9008091F000877F80935E
:1038A000F00078940E9469191092E9008091F0006C
:1038B00088608093F000CD2BCF70C093E900FF911A
:1038C000EF91DF91CF91BF91AF919F918F917F91B8
:1038D0006F915F914F913F912F910F900FBE0F907D
:1038E0001F9018951F920F920FB60F9211242F93CD
:1038F0003F934F935F936F937F938F939F93AF9378
:10390000BF93EF93FF938091E10082FF09C0809104
:10391000E20082FF05C08091E1008B7F8093E1008F
:103920008091DA0080FF24C08091D80080FF20C001
:103930008091DA008E7F8093DA008091D90080FF39
:103940009FC080E189BD82E189BD09B400FEFDCF41
:1039500081E080937E0680915806811109C00E9403
:1039600088040E9453058091E20084608093E20005
:103970008091E10080FF17C08091E20080FF13C0BA
:103980008091E2008E7F8093E2008091E20080616E
:103990008093E2008091D80080628093D80019BCA7
:1039A00085E080937E068091E10084FF2DC08091A8
:1039B000E20084FF29C080E189BD82E189BD09B4AC
:1039C00000FEFDCF8091D8008F7D8093D80080913C
:1039D000E1008F7E8093E1008091E2008F7E8093F2
:1039E000E2008091E20081608093E20080917F0696
:1039F000882309F44BC084E080937E060E9454190A
:103A00000E940509109259068091E10083FF27C0AA
:103A10008091E20083FF23C08091E100877F809343
:103A2000E10082E080937E0610927F068091E100A3
:103A30008E7F8093E1008091E2008E7F8093E20090
:103A40008091E20080618093E20042E060E080E0EB
:103A50000E9421058091F00088608093F000FF9122
:103A6000EF91BF91AF919F918F917F916F915F91F6
:103A70004F913F912F910F900FBE0F901F9018956F
:103A800019BC10927E061092580672CF8091E30006
:103A900087FD02C081E0B0CF83E0AECF882309F478
:103AA00059C0823871F40E94050981FF53C089E32F
:103AB0000E9418080E94A60789E30E94EB070C9455
:103AC000A607833859F40E94050980FF43C083E5A7
:103AD0000E9418080E94A60783E5EFCF843859F4A6
:103AE0000E94050982FF36C087E40E9418080E94E0
:103AF000A60787E4E2CF9CEF980F913AF0F290E2AC
:103B0000980F983088F4877021E030E0A90102C056
:103B1000440F551F8A95E2F7CA01809590910506DA
:103B2000892380930506CBCF9BE5980F933020F433
:103B300090E080E00C94EF0898E5980F973120F41E
:103B400090E080E00C94D908803F20F00E94190694
:103B50000C945E180895CF93C82F882309F4ADC044
:103B60008238C1F40E94050981FDA7C089E30E9443
:103B700018080E94A6072FEF31EE84E02150304054
:103B80008040E1F700C0000089E30E94EB07CF917D
:103B90000C94A6078338A1F40E94050980FD8DC00E
:103BA00083E50E9418080E94A6079FEF21EE34E0EB
:103BB000915020403040E1F700C0000083E5E5CFA0
:103BC0008438A1F40E94050982FD77C087E40E9431
:103BD00018080E94A6078FEF91EE24E081509040D4
:103BE0002040E1F700C0000087E4CFCF8CEF8C0FBE
:103BF000813A88F580911901882301F18091280686
:103C000087FF1CC0EC2FE695E695E695F0E0EE55B3
:103C1000FC4F828190E04C2F477021E030E002C0E1
:103C2000220F331F4A95E2F782239323892B79F0E1
:103C30008C2F0E94EB070E94A60709C0E4EAF3E07C
:103C40008191C817A9F333E0EA3AF307C9F78C2F3B
:103C50000E9418089CCF80E28C0F883068F4C770EF
:103C600021E030E001C0220FCA95EAF780910506F5
:103C7000822B809305068BCF8BE58C0F833038F435
:103C80002C2F2452330BC901CF910C94EF08E8E597
:103C9000EC0FE73150F4F0E0EE0FFF1FE057FD4F5F
:103CA00080819181CF910C94D908C03F30F08C2F46
:103CB0000E94DE06CF910C945E18CF910895CF93A9
:103CC000C82F0E94AB1DC93349F42FEF87EE93E054
:103CD000215080409040E1F700C000008C2FCF9130
:103CE0000C944E1DCF92DF92EF92FF920F931F9391
:103CF000CF93DF93EC018AE0C82EFE0184918823E4
:103D000009F483C0813009F040C03196849181303C
:103D100051F42296FE011491812F0E94AB1D812F38
:103D20000E944E1D07C0823039F42296FE01849114
:103D30000E94AB1D2196E1CF833021F42296FE0133
:103D40008491EECF843009F05EC02296FE0124916A
:103D500090E080E0FE0131962053330B2A3031058C
:103D600048F0019738F3EFE9FFE03197F1F700C031
:103D70000000F7CFC89EA001C99E500D1124C901B3
:103D8000840F951F2491EF01E5CFE82FF0E0E45F69
:103D9000FC4FD490082F06950695069510E0F80183
:103DA000E450FD4FE4908770F12C082E02C0F5948A
:103DB000E7940A94E2F721E0E222FF2404511D4F28
:103DC000F801049110E002C0159507958A95E2F775
:103DD00001701127E114F10419F081EE0E94AB1D6E
:103DE0000115110519F086EE0E94AB1D8D2D0E9464
:103DF0005F1E012B19F086EE0E944E1D81EEEF280A
:103E000009F498CF8DCFEF0195CFDF91CF911F911E
:103E10000F91FF90EF90DF90CF900895FF920F9356
:103E20001F93CF93DF93C62FD42F022FFC018281E3
:103E30008823A9F0609389050E94521890932A055F
:103E400080932905C77081E001C0880FCA95EAF701
:103E5000DF91CF911F910F91FF900C94CF0810919B
:103E60008905161334C08091290590912A050E9476
:103E70004607883C910558F5C0E2CD0F1D17A9F003
:103E80001770FF24F3948F2D01C0880F1A95EAF75D
:103E90000E94C408C83048F48D2F877001C0FF0C01
:103EA0008A95EAF78F2D0E94CF08802F0E945F1E0F
:103EB000C830A0F4D77081E001C0880FDA95EAF726
:103EC000DF91CF911F910F91FF900C94C408C770A0
:103ED00081E001C0880FCA95EAF7F2CFDF91CF9158
:103EE0001F910F91FF9008952F923F924F925F92F2
:103EF0006F927F928F929F92AF92BF92CF92DF92FA
:103F0000EF92FF920F931F93CF93DF93CDB7DEB75E
:103F10002C970FB6F894DEBF0FBECDBF3C01DC017D
:103F200013968D919C911497892B49F01C911196B1
:103F3000FC90812F8F218F3F11F00C94272A2C9613
:103F40000FB6F894DEBF0FBECDBFDF91CF911F91AA
:103F50000F91FF90EF90DF90CF90BF90AF909F9028
:103F60008F907F906F905F904F903F902F9008952B
:103F70000E94C811082F682F89819A810E947608B3
:103F8000E12FF0E0B6E0FB9EE00DF11D112414E5F9
:103F9000019FE00DF11D1124EE0FFF1FE155FB4FB6
:103FA000A591B491BC87AB874D01CD01815095455A
:103FB000EB85FC858F3F910518F4FD01B5E5FB27E6
:103FC000D30112968C91882309F4E0C2EF3FF105EA
:103FD00081F078F0EE3DFC4529F010925D05EB850F
:103FE000FC8586C080915D0591E0892780935D0501
:103FF000A6CF80915D05882309F47BC110925D05F1
:10400000E03CF10508F03FC0E038F10508F03BC1A5
:104010008F01005411090034110508F401C121E099
:1040200030E040E050E060E070E080E090E00E2F93
:104030000E948435C0903D05C22AD0903E05D32A07
:10404000E0903F05E42AF0904005F52A00914105F3
:10405000062B10914205172BB0914305B82BA09168
:104060004405A92BC0923D05D0923E05E0923F0544
:10407000F09240050093410510934205B09343052B
:10408000A093440535C021E030E040E050E060E01E
:1040900070E080E090E08F01005C11090E9484359F
:1040A000C0905505C22AD0905605D32AE0905705F6
:1040B000E42AF0905805F52A00915905062B109135
:1040C0005A05172BB0915B05B82BA0915C05A92B65
:1040D000C0925505D0925605E0925705F0925805CA
:1040E0000093590510935A05B0935B05A0935C05A6
:1040F000D30111968C9111972C91B6E08B9FC00142
:10410000112482549D4F820F911DDC015C90BFEF02
:1041100010E05B1211E010928C0610928D06109246
:104120008E0610928F064F0100915E05E12EF12C54
:10413000C701800F911D099764F188E090E06C0140
:10414000CE18DF08B701615A7A4FA6018FE595E0D6
:104150000E942C37B70169597A4FA60187E695E08E
:104160000E942C37A601440F551FB701660F771F19
:1041700069587A4F87E795E00E942C37B70161595B
:104180007A4FA6018FE695E00E942C3701500093EC
:104190005E0580915E0590E0252D30E0D901AA0FE3
:1041A000BB1FBD016E5E7C4F9D012D5E3C4F41E00B
:1041B000480F911708F466C280935E05C4018B50C6
:1041C0009D458031910508F072C2F30122812223BE
:1041D00009F4B5CE44E0880F991F4A95E1F7809322
:1041E00091068FEF80939206809393062C960FB6DC
:1041F000F894DEBF0FBECDBFDF91CF911F910F911D
:10420000FF90EF90DF90CF90BF90AF909F908F90F6
:104210007F906F905F904F903F902F900C942B1653
:1042200021E030E040E050E060E070E080E090E0CD
:104230000E948435C0904505C22AD0904605D32AF5
:10424000E0904705E42AF0904805F52A00914905D9
:10425000062B10914A05172BB0914B05B82BA09156
:104260004C05A92BC0924505D0924605E092470522
:10427000F09248050093490510934A05B0934B0509
:10428000A0934C0535CF21E030E040E050E060E005
:1042900070E080E090E08F01005811090E948435A1
:1042A000C0904D05C22AD0904E05D32AE0904F050C
:1042B000E42AF0905005F52A00915105062B109143
:1042C0005205172BB0915305B82BA0915405A92B7B
:1042D000C0924D05D0924E05E0924F05F0925005E8
:1042E0000093510510935205B0935305A0935405C4
:1042F000FFCEE034F10508F06AC020903D05309013
:104300003E0540903F0550904005809041059090BB
:104310004205A0914305B091440521E030E040E022
:1043200050E060E070E080E090E00E2F0E94843565
:10433000A22EA220B32EB320C42EC420D52ED52069
:10434000E62EE820F72EF9200A2F08231B2F192329
:104350000E949D3509F043CE8F01E03CF10508F045
:1043600090C0E038F10508F0E4C0005411090034B1
:10437000110508F4B3C021E030E040E050E060E017
:1043800070E080E090E00E2F0E94843520953095FB
:104390004095509560957095809590952221332198
:1043A00044215521682179218A239B2320933D05AF
:1043B00030933E0540933F0550934005609341057F
:1043C000709342058093430590934405B8CDE0383F
:1043D000F105E0F4209045053090460540904705F2
:1043E000509048058090490590904A05A0914B0552
:1043F000B0914C0521E030E040E050E060E070E03A
:1044000080E090E08F010054110990CFE03CF1056D
:10441000E0F420904D0530904E0540904F055090AF
:1044200050058090510590905205A0915305B09190
:10443000540521E030E040E050E060E070E080E0D2
:1044400090E08F010058110971CF209055053090F0
:10445000560540905705509058058090590590900A
:104460005A05A0915B05B0915C0521E030E040E089
:1044700050E060E070E080E090E08F01005C1109A6
:1044800055CF005C110921E030E040E050E060E0F1
:1044900070E080E090E00E94843520953095409552
:1044A00050956095709580959095222133214421F7
:1044B0005521682179218A239B2320935505309328
:1044C00056054093570550935805609359057093CE
:1044D0005A0580935B0590935C0531CD21E030E077
:1044E00040E050E060E070E080E090E00E948435C1
:1044F0002095309540955095609570958095909554
:104500002221332144215521682179218A239B23AB
:104510002093450530934605409347055093480541
:104520006093490570934A0580934B0590934C0521
:1045300006CD0058110921E030E040E050E060E095
:1045400070E080E090E00E948435209530954095A1
:104550005095609570958095909522213321442146
:104560005521682179218A239B2320934D0530937F
:104570004E0540934F05509350056093510570933D
:1045800052058093530590935405D9CCEF3FF10524
:1045900009F060F5E034F10558F5A0903D05B090C4
:1045A0003E05C0903F05D0904005E0904105F09059
:1045B0004205A0914305B091440521E030E040E080
:1045C00050E060E070E080E090E00E2F0E948435C3
:1045D000A222B322C422D522E622F722082F0A23E0
:1045E000192F1B230E949D3509F4A9CC10E09CCD06
:1045F000E038F105E0F4A0904505B0904605C09084
:104600004705D0904805E0904905F0904A05A091F3
:104610004B05B0914C058F010054110921E030E0A9
:1046200040E050E060E070E080E090E0CFCFE03C20
:10463000F105A0F4A0904D05B0904E05C0904F0537
:10464000D0905005E0905105F0905205A09153058F
:10465000B09154058F0100581109E0CFA090550585
:10466000B0905605C0905705D0905805E090590578
:10467000F0905A05A0915B05B0915C058F01005C3C
:104680001109CCCF90E0FC01E25AFA4FDB015C91BA
:104690005183D9015C915187518A880F991FFC0180
:1046A000E25AFA4F128E118E842F91E080CDFBE1F9
:1046B0008F16FDE59F0609F45CC008F046C019E0BE
:1046C00081161DE5910609F460C02AE082162DE5E9
:1046D000920609F464C032EC83163CE5930609F4B3
:1046E0002ECCF30182818823A9F0F4EE8F16FCE52D
:1046F0009F0609F494C008F07EC012EE81161CE5F6
:10470000910609F487C081E023EE82162CE592061B
:1047100009F47DC097FE2DC1D30112968C91882398
:1047200009F4D4C08091050680938805109205068F
:1047300080911206823009F4B4C008F074C081116F
:10474000A3C082EE0E94AB1D71C0D30112968C9162
:10475000BCE18B16BDE59B0679F1EDE18E16EDE52A
:104760009E0609F0BECF882309F4E9CB8CE894E0DB
:1047700028C0D30112968C91882309F4E0CB1092C3
:104780009106109292068FEF2FCDF301828188233C
:1047900009F4D5CB809190068370846033C2D30135
:1047A00012968C91882309F4CACB8091870591E0F9
:1047B000892780938705C3CB882309F4C0CB8DE973
:1047C00094E02C960FB6F894DEBF0FBECDBFDF91FC
:1047D000CF911F910F91FF90EF90DF90CF90BF90FE
:1047E000AF909F908F907F906F905F904F903F9091
:1047F0002F900C94721E35EE83163CE5930689F0DB
:1048000084E046EE84164CE5940609F083CF80934D
:10481000120602C0109212060E94D1137BCF82E0D2
:10482000F6CF83E0F4CF843009F442C0EFE3FCE933
:104830003197F1F700C000007401E894F7F80CE03C
:1048400010E09701002E02C0369527950A94E2F7F2
:104850002F7087E290E029F0822F90E02A3068F5EF
:104860004D960E945F1E045011090C3FFFEF1F0779
:1048700041F780911206823019F008F5811173C05A
:1048800082EE0E944E1D1EC083E00E94BA0888E19D
:104890000E94AB1D88E10E944E1D83E00E94AF087C
:1048A000C5CF82EE0E94AB1D87E50E945F1EBECF82
:1048B00086EE0E945F1E88E1F8CF0697D2CF843043
:1048C00009F455C08091880580930506D30112969E
:1048D0009C91992309F4CFC510928905B6E18B16F6
:1048E000BCE59B0608F0A1C0E2E08E16ECE59E0652
:1048F00008F476C10E94AB12909329068093280693
:10490000F6E18F16FCE59F0608F0D0C002E08016A5
:104910000CE5900608F0BDC06091280610912906AC
:1049200084E090E00E946937612F81E290E00E946C
:1049300069372C960FB6F894DEBF0FBECDBFDF915E
:10494000CF911F910F91FF90EF90DF90CF90BF908C
:10495000AF909F908F907F906F905F904F903F901F
:104960002F900C9454198CE20E945F1EABCF88E20A
:10497000FBCF04EF80160CE5900609F44AC0B8F4AA
:1049800028ED82162CE5920609F43FC028E241E0AA
:1049900039ED83163CE59306D1F147ED84164CE5DD
:1049A000940609F093CF26E241EE61EE13C056EF74
:1049B00085165CE5950689F167EF86166CE5960627
:1049C00081F127E245EE64EE75EF87167CE59706E8
:1049D00009F07CCFC3012C960FB6F894DEBF0FBE52
:1049E000CDBFDF91CF911F910F91FF90EF90DF909E
:1049F000CF90BF90AF909F908F907F906F905F907F
:104A00004F903F902F900C940E1F27E245EE65EEDD
:104A1000E1CF26E241EE60EEDDCF26E241EE62EE2E
:104A2000D9CF27E245EE66EED5CF94012B5F3C450A
:104A30002930310508F45ECFF6E18F16FCE59F06BC
:104A400009F0CEC0809105068A7A91E009F490E0E1
:104A500090938A058111C0C089E20E9418082C96A3
:104A60000FB6F894DEBF0FBECDBFDF91CF911F917F
:104A70000F91FF90EF90DF90CF90BF90AF909F90FD
:104A80008F907F906F905F904F903F902F900C94FD
:104A9000A607F401E350FC45809128068160E331CC
:104AA000F10590F4ED5FF74C0C947E35F401EB5F6B
:104AB000FC45E930F10508F02FCFEA5EF74C0C9485
:104AC0007E358091280682608093280625CF8091CC
:104AD00028068460F9CF809128068860F5CF809100
:104AE000290681608093290617CF8091290682606C
:104AF000F9CF809128068061E7CF809128068062F7
:104B0000E3CF809128068064DFCF0E945419809102
:104B100028068068D9CF809128068C60D5CF8091F7
:104B200029068360DFCF809128068E7FCDCF8091CC
:104B300028068D7FC9CF809128068B7FC5CF8091B5
:104B40002806877FC1CF809129068E7FCBCF8091A9
:104B500029068D7FC7CF809128068F7EB5CF8091A3
:104B600028068F7DB1CF809128068F7BADCF0E9424
:104B70005419809128068F77A7CF80912806837FCC
:104B8000A3CF809129068C7FADCF8091280682FB30
:104B9000992790F921E0922790FB82F990FB83F905
:104BA00093CF80912906982F909591708E7F892BB5
:104BB00090FB81F997CF0E94541990912806892F74
:104BC00097FB87F9805880CF61E08EE090E00E94EB
:104BD0006937A2CE60E0F9CF85E33FCF85E356C4C5
:104BE000809105068272F401E25CFC45E431F10536
:104BF00008F08DC0E15EF74C0C947E3580919006F4
:104C000091E089278093900610920C01EFCA48E446
:104C100056E163E376E12C960FB6F894DEBF0FBE43
:104C2000CDBFDF91CF911F910F91FF90EF90DF905B
:104C3000CF90BF90AF909F908F907F906F905F903C
:104C40004F903F902F900C94110943E356E168E494
:104C500076E1E1CF4FE556E168E576E1DCCF48E566
:104C600056E16FE576E1D7CF40E756E166E676E1BB
:104C7000D2CF46E656E160E776E1CDCF44E856E193
:104C80006AE776E1C8CF4AE756E164E876E1C3CF48
:104C900048E956E16EE876E1BECF4EE856E168E9B4
:104CA00076E1B9CF65E082E02C960FB6F894DEBFCE
:104CB0000FBECDBFDF91CF911F910F91FF90EF906D
:104CC000DF90CF90BF90AF909F908F907F906F902C
:104CD0005F904F903F902F900C94A21668E086E072
:104CE000E3CF6EE089E0E0CF64E18FE0DDCF67E104
:104CF00085E1DACF809190068370806683CF62E28F
:104D000089E1D2CF8091900683708C687BCF992304
:104D100059F081141CE5910609F444C02FED821668
:104D20002CE5920609F47BC0D301ED90FC90992309
:104D300009F48FC0C7010E94C811182F682FC7013E
:104D40000E947608B701812F0E942B108C01D82E6B
:104D5000F301E580E2943FE0E322F280F11010924B
:104D6000040680910206877079F0FF2069F080E2E6
:104D7000800F883048F082E00E940119809102067D
:104D80008770CC24C3948111C12C812F82958F70A0
:104D9000A82EB12C8C3008F096C0F501ED5CF74CD4
:104DA0000C947E350E9454193FEF44E35CE031508F
:104DB00040405040E1F700C00000F89481E080934B
:104DC000E00080E28093D8001092C9008FE19EE459
:104DD0000197F1F700C000001DBA109268001CBCDA
:104DE00010BE1FBA10927A0010926E0010926F00DF
:104DF00010927100109272001092C9001092BC00C3
:104E000014B817B81AB81DB810BA1092BC0015B86B
:104E100018B81BB81EB811BA0C94003F90C82C9655
:104E20000FB6F894DEBF0FBECDBFDF91CF911F91BB
:104E30000F91FF90EF90DF90CF90BF90AF909F9039
:104E40008F907F906F905F904F903F902F900C9439
:104E5000D713C7010E944C08182F74CFF12FFF7091
:104E6000EF2E107F19F0E29420EFE222802FFF2036
:104E7000C9F0EE2069F090E2900F983010F0011127
:104E80000BC080910506E82AE09205060E94A6075D
:104E9000802F0E94AB1D17C080910406E82AE09283
:104EA0000406F4CF0E944E1DEE2069F0E094005EEF
:104EB000083010F0D11049C080910506E822E09238
:104EC00005060E94A607B8E0AB1AB108E4E0AE16EA
:104ED000B10410F40E940509CC20B1F080910206C3
:104EE00080FD12C0D30112961C92859585958595FB
:104EF0000E941919C3010E94741F809102068595B2
:104F0000859585950E94CC1885E0F301DE01119608
:104F100001900D928A95E1F789819A810E944C084F
:104F20009A81E981F0E0B6E09B9FE00DF11D11242C
:104F300004E5809FE00DF11D1124EE0FFF1FE155E8
:104F4000FB4F859194910C949F1F80910406E82259
:104F5000E0920406B6CF212F2F70922E107F1032D0
:104F600019F0929490EF9922802FDD2041F031E0EA
:104F7000D31631F1FF2079F1EE2041F189CFFF20E6
:104F800091F090910606892F8929E11003C00E94B3
:104F9000CF0899CF41E0E412FACF891709F493CFF3
:104FA0008093060690CFE11006C00E94A007892DCD
:104FB0000E94C40888CF51E0E51609F484CFF5CFEC
:104FC000FF2031F061E06E1508F47DCF892DDFCF31
:104FD000E11079CFECCFEE2051F3893349F47FEF24
:104FE00087EE93E0715080409040E1F700C00000F0
:104FF000802F0E944E1D67CF812F869586958370E6
:1050000061F0813009F05FCFC8019370F11002C0E8
:1050100090E080E00E94D90856CFC8019370F1104B
:1050200002C090E080E00E94EF084DCFFF2009F120
:10503000053F99F0063FB9F0043F49F480918B0594
:1050400090918C05816090938C0580938B05802FC7
:105050000E94DE060E945E1836CF80918B059091EB
:105060008C058260F0CF80918B0590918C058460D7
:10507000EACF053F89F0063FA9F0043F49F480914B
:105080008B0590918C058E7F90938C0580938B057A
:10509000802F0E941906DECF80918B0590918C05A0
:1050A0008D7FF2CF80918B0590918C058B7FECCF1B
:1050B000812F837009F072C0F11005CF202F229547
:1050C00026952770220F220F402F4F7050E070E07E
:1050D00060E0022E04C0440F551F661F771F0A941C
:1050E000D2F780E090E0DC0104FF0FC08FE090E099
:1050F000A0E0B0E004C0880F991FAA1FBB1F2A952B
:10510000D2F780959095A095B095E12FE695E6951C
:10511000E370E23081F1E33009F10091070610916C
:1051200008062091090630910A06E13099F0842B97
:10513000952BA62BB72BAC01BD0140235123622335
:1051400073234E835F8368877987CB01BA010E94FE
:105150004A19B9CE402B512B622B732B8A019B012C
:10516000082B192B2A2B3B2B0E831F83288739876B
:10517000C901B801ECCF842B952BA62BB72B4091FE
:105180000706509108066091090670910A068C0185
:105190009D010427152726273727E6CF8695FF2070
:1051A00011F0812F8170882309F48DCE202F229554
:1051B00026952770220F220F402F4F7050E070E08D
:1051C00060E0022E04C0440F551F661F771F0A942B
:1051D000D2F780E090E0DC0104FF0FC08FE090E0A8
:1051E000A0E0B0E004C0880F991FAA1FBB1F2A953A
:1051F000D2F780959095A095B095E12FE695E6952C
:10520000E370E23081F1E330F9F00091FE05109196
:10521000FF052091000630910106E13089F0842BD2
:10522000952BA62BB72BAC01BD0140235123622344
:1052300073234E835F8368877987CB01BA0110C0DF
:10524000402B512B622B732B8A019B01082B192BAE
:105250002A2B3B2B0E831F8328873987C901B8016E
:105260000E948F1830CE842B952BA62BB72B409104
:10527000FE055091FF0560910006709101068C01BA
:105280009D010427152726273727E4CF1F70FF200D
:1052900029F0812F0E941919802F79CE802F0E942A
:1052A000C408812F0E94CC180ECE802F22EFD21678
:1052B00009F444C02D1570F030EFD31609F141EF19
:1052C000D416A1F1FF2009F45EC0E110E1CD812FD9
:1052D0008F7131C053EFD516B1F164EFD612F2CF12
:1052E000FF2009F445C01F71812F0E94191958E051
:1052F000159FC0011124836080930206812F1BC07B
:10530000FF2079F0E110DFCD1F7181E090E0A0E097
:10531000B0E004C0880F991FAA1FBB1F1A95D2F7CF
:10532000A6CF21E02E1508F4CECDEECF812F8F71C0
:10533000FF2009F4B7CF0E941919C5CD812F8F71B5
:10534000FF20C9F3AFCF60E070E0CB01FF2009F48C
:1053500087CF1F7181E090E0A0E0B0E0AC01BD011B
:1053600004C0440F551F661F771F1A95D2F761CFEF
:1053700081E00E94011961E06E1508F0A4CD82E081
:105380000E940119A0CDE11028CE812F8F718ACF04
:10539000A3EFDA16D1F1AD1520F1B1EFDB1609F468
:1053A0003EC0E2EFDE1699F1F0EFDF1621F18091B9
:1053B0008D05EE2009F43FC0882341F080918E05D1
:1053C00091E0892780938E0510928D05802FF11032
:1053D00060CD0E944E1D86E0D3011D928A95E9F7AB
:1053E00072CD14EFD116B1F025EFD212E0CFF1104B
:1053F0006ACD81E007C0FF2009F465CD80918E055C
:1054000091E0892780938E055ECD81E0F826F092A9
:105410008E0559CDF11057CD10928E0554CDFF2039
:1054200039F080918D05882349F310928D054BCD7D
:10543000EE2021F348CD882309F445CDF11043CD6A
:1054400080918E0591E0892780938E05EECF85E0CF
:10545000F301DE01119601900D928A95E1F7F301B7
:10546000228189819A8121110C94B81F0E944C08D5
:10547000082F0C94C01F06E180160CE5900609F079
:1054800053CC80918A058111A9CB89E20E94EB0758
:10549000E6CA1F93CF93DF9380919405807FA9F490
:1054A00080919105882389F08091C605D09195055A
:1054B00060918F0570919005A0919205B091930530
:1054C000C62FC72316E0D81304C0DF91CF911F91D8
:1054D000089590E0109711F0CF3F19F4019687706E
:1054E000F2CF189F9001199F300D1124F901EA564F
:1054F000FA4F41814713F2CF40814613EFCF4281EB
:105500004111ECCF438154814A1B5B0B483C510550
:1055100028F7809194058F70806180939405F9013C
:10552000E556FA4F80818F70806180838FE895E027
:105530000E94741FDF91CF911F910C94A508AF9228
:10554000BF92CF92DF92EF92FF920F931F93CF9370
:10555000DF93CDB7DEB72B970FB6F894DEBF0FBE43
:10556000CDBF8C0185E0F801DE01179601900D9208
:105570008A95E1F7F80180819181E2802FE8A22EDF
:1055800025E0B22E60919205709193056115710529
:1055900009F421C130918F0540919005242F2323D8
:1055A0002F3F09F418C1C380D480F0909105F60113
:1055B000E61BF70BFF2009F4DFC020919405522F62
:1055C000507FE83CF10508F0BAC0511177C0FE2CBD
:1055D000491321C038131FC0E1101DC02F70206176
:1055E00020939405C5010E94741F80919405F801D1
:1055F00085838F2D2B960FB6F894DEBF0FBECDBFDF
:10560000DF91CF911F910F91FF90EF90DF90CF909E
:10561000BF90AF900895CD2829F0282F29232F3F40
:1056200009F003C120E0F22FF170DF2EE091C605F2
:105630004091950556E020FD1CC0EE20D1F28091EE
:105640009405816080939405F12CD3CF2E2F30E008
:105650005E9FF0011124EA56FA4F6181961306C04D
:105660006081861303C06281E612E7CFF9013196AB
:10567000E770E413EBCF8F8398878F8198850E9422
:105680000A12292F22952F70903260F0225F2F701E
:10569000223078F49F7051F0F8019581907F31F4B9
:1056A000D12C0AC09F7011F08823D1F3805E88301E
:1056B000B8F3C8010E94741FFD2C9BCF491312C080
:1056C000381310C0E1100EC0F8012583C8010E94F4
:1056D000741F86E0F801AFE8B5E001900D928A955D
:1056E000E1F787CF8F8398878F8198850E94161264
:1056F000882309F1EE20F9F080919405803270F052
:1057000020918F05309190053A8329831B82DD8299
:10571000CC828E83CE0101960E94741F86E0F80130
:10572000AFE8B5E001900D928A95E1F70E94492A11
:10573000FF24F3945ECFC8010E94741FF9CF51116A
:105740000AC08FE895E00E94741F86E0F50111926F
:105750008A95E9F779CF4913C5CF3813C3CFE11044
:10576000C1CFF8012583C8010E94741F86E0F501AE
:1057700011928A95E9F73DCFE83CF105B8F7FE2C88
:10578000EE20C9F2491316C0381314C08091940555
:1057900080FD9FCF982F907F09F49BCFF8018583E0
:1057A000903F09F493CF982F907F905F8F70892B53
:1057B00085838CCF8F8398878F8198850E9416125E
:1057C0008111ACCF80919405816080939405C801CC
:1057D0000E94741F0ECFEE2009F4ADCF8F839887FF
:1057E0008F8198850E941612F82E882309F4A3CF82
:1057F00086E0F801AFE8B5E001900D928A95E1F7F7
:1058000080918F05909190050E940A1292959F7049
:10581000963041F480918E0591E0892780938E0522
:1058200090938D050E94492AE4CE21E02E25FBCEDF
:105830000F931F93CF93DF93CDB7DEB767970FB664
:10584000F894DEBF0FBECDBF4B8B5C8B6D8B7E8B18
:105850008F8B0E891F890115110509F48AC0842FC9
:1058600085238F3F09F061C05FEF4FEF82C08095C5
:1058700028232C937EC086E0FE013796DE01119628
:1058800001900D928A95E1F76A857B856115710516
:1058900009F485C05F814885842F85238F3F09F4F3
:1058A0007EC02091950530E0C90101968770992747
:1058B000E091C605E817190671F40E945419109278
:1058C00095051092C60586E0EFE8F5E0DF011D9230
:1058D0008A95E9F764C059834A837D836C8396E097
:1058E000929FD001939FB00D1124AA56BA4FFE018A
:1058F000319601900D929A95E1F7809395050E945B
:10590000A5084DC0819FC00111248A569A4F0E945C
:105910009F2A882309F44AC08091C60590E0019629
:10592000877099278093C6053BC081E090E0042EE4
:1059300001C0880F0A94EAF7A52FB0E0A15DBA4F25
:105940002C9130918E05611102C0322F3823332300
:1059500009F48DCFE42FF0E036E0539FE00DF11D08
:105960001124EE0FFF1FE851FE4F40815181822B21
:105970008C931A8A4D875E876F87198B088B86E018
:10598000FE013D96DE01179601900D928A95E1F792
:10599000CE0107960E949F2A882309F46CCF16E057
:1059A0008091C605909195058913ACCF67960FB687
:1059B000F894DEBF0FBECDBFDF91CF911F910F9145
:1059C00008958F929F92AF92BF92CF92DF92EF9203
:1059D000FF920F931F93CF93DF9300D000D00F92CD
:1059E000CDB7DEB780910D0190910E01892BA1F00A
:1059F0008091CB038F5F8093CB0381110DC00E94F8
:105A00002B1790E090930E0180930D01892B21F4C8
:105A10000E947A130E94C916EAE18E2EE6E09E2EBD
:105A2000740100E010E077E0C72EC00E802F0E94C6
:105A3000A2178C2D0E94A217802F0E94F517D70164
:105A40009D917D01D12C891729F0FD01319780832B
:105A5000DD24D3948C2D0E94F517F70196818917C8
:105A600009F47CC0868381E08D29182B0E94951251
:105A70000F5F0730C1F60E9452189C014091C3038A
:105A80005091C4039093C4038093C3038091C203D5
:105A900090E0841B950B820F931F6BEF70E00E94C8
:105AA0005635E82E392F082F8093C203F090C60395
:105AB000FF2009F493C3E0911006F0911106AF01A5
:105AC000425F5F4F20E06BEFB62E6BEF70E0A1916D
:105AD000AB3FA1F0CA2ED12C8E2D932F0A1708F4BC
